{
  "contractName": "ArtipToken",
  "abi": [
    {
      "anonymous": false,
      "inputs": [
        {
          "indexed": true,
          "internalType": "address",
          "name": "owner",
          "type": "address"
        },
        {
          "indexed": true,
          "internalType": "address",
          "name": "spender",
          "type": "address"
        },
        {
          "indexed": false,
          "internalType": "uint256",
          "name": "value",
          "type": "uint256"
        }
      ],
      "name": "Approval",
      "type": "event"
    },
    {
      "anonymous": false,
      "inputs": [
        {
          "indexed": true,
          "internalType": "address",
          "name": "from",
          "type": "address"
        },
        {
          "indexed": true,
          "internalType": "address",
          "name": "to",
          "type": "address"
        },
        {
          "indexed": false,
          "internalType": "uint256",
          "name": "value",
          "type": "uint256"
        }
      ],
      "name": "Transfer",
      "type": "event"
    },
    {
      "constant": true,
      "inputs": [
        {
          "internalType": "address",
          "name": "owner",
          "type": "address"
        },
        {
          "internalType": "address",
          "name": "spender",
          "type": "address"
        }
      ],
      "name": "allowance",
      "outputs": [
        {
          "internalType": "uint256",
          "name": "",
          "type": "uint256"
        }
      ],
      "payable": false,
      "stateMutability": "view",
      "type": "function"
    },
    {
      "constant": false,
      "inputs": [
        {
          "internalType": "address",
          "name": "spender",
          "type": "address"
        },
        {
          "internalType": "uint256",
          "name": "amount",
          "type": "uint256"
        }
      ],
      "name": "approve",
      "outputs": [
        {
          "internalType": "bool",
          "name": "",
          "type": "bool"
        }
      ],
      "payable": false,
      "stateMutability": "nonpayable",
      "type": "function"
    },
    {
      "constant": true,
      "inputs": [
        {
          "internalType": "address",
          "name": "account",
          "type": "address"
        }
      ],
      "name": "balanceOf",
      "outputs": [
        {
          "internalType": "uint256",
          "name": "",
          "type": "uint256"
        }
      ],
      "payable": false,
      "stateMutability": "view",
      "type": "function"
    },
    {
      "constant": false,
      "inputs": [
        {
          "internalType": "address",
          "name": "spender",
          "type": "address"
        },
        {
          "internalType": "uint256",
          "name": "subtractedValue",
          "type": "uint256"
        }
      ],
      "name": "decreaseAllowance",
      "outputs": [
        {
          "internalType": "bool",
          "name": "",
          "type": "bool"
        }
      ],
      "payable": false,
      "stateMutability": "nonpayable",
      "type": "function"
    },
    {
      "constant": false,
      "inputs": [
        {
          "internalType": "address",
          "name": "spender",
          "type": "address"
        },
        {
          "internalType": "uint256",
          "name": "addedValue",
          "type": "uint256"
        }
      ],
      "name": "increaseAllowance",
      "outputs": [
        {
          "internalType": "bool",
          "name": "",
          "type": "bool"
        }
      ],
      "payable": false,
      "stateMutability": "nonpayable",
      "type": "function"
    },
    {
      "constant": true,
      "inputs": [],
      "name": "totalSupply",
      "outputs": [
        {
          "internalType": "uint256",
          "name": "",
          "type": "uint256"
        }
      ],
      "payable": false,
      "stateMutability": "view",
      "type": "function"
    },
    {
      "constant": false,
      "inputs": [
        {
          "internalType": "address",
          "name": "recipient",
          "type": "address"
        },
        {
          "internalType": "uint256",
          "name": "amount",
          "type": "uint256"
        }
      ],
      "name": "transfer",
      "outputs": [
        {
          "internalType": "bool",
          "name": "",
          "type": "bool"
        }
      ],
      "payable": false,
      "stateMutability": "nonpayable",
      "type": "function"
    },
    {
      "constant": false,
      "inputs": [
        {
          "internalType": "address",
          "name": "sender",
          "type": "address"
        },
        {
          "internalType": "address",
          "name": "recipient",
          "type": "address"
        },
        {
          "internalType": "uint256",
          "name": "amount",
          "type": "uint256"
        }
      ],
      "name": "transferFrom",
      "outputs": [
        {
          "internalType": "bool",
          "name": "",
          "type": "bool"
        }
      ],
      "payable": false,
      "stateMutability": "nonpayable",
      "type": "function"
    }
  ],
  "bytecode": "0x60806040526040518060400160405280600a81526020017f4172746970546f6b656e000000000000000000000000000000000000000000008152506003908051906020019061004f9291906100a6565b506040518060400160405280600581526020017f41525449500000000000000000000000000000000000000000000000000000008152506004908051906020019061009b9291906100a6565b50601260055561014b565b828054600181600116156101000203166002900490600052602060002090601f016020900481019282601f106100e757805160ff1916838001178555610115565b82800160010185558215610115579182015b828111156101145782518255916020019190600101906100f9565b5b5090506101229190610126565b5090565b61014891905b8082111561014457600081600090555060010161012c565b5090565b90565b610e3a8061015a6000396000f3fe608060405234801561001057600080fd5b50600436106100885760003560e01c806370a082311161005b57806370a08231146101fd578063a457c2d714610255578063a9059cbb146102bb578063dd62ed3e1461032157610088565b8063095ea7b31461008d57806318160ddd146100f357806323b872dd146101115780633950935114610197575b600080fd5b6100d9600480360360408110156100a357600080fd5b81019080803573ffffffffffffffffffffffffffffffffffffffff16906020019092919080359060200190929190505050610399565b604051808215151515815260200191505060405180910390f35b6100fb6103b7565b6040518082815260200191505060405180910390f35b61017d6004803603606081101561012757600080fd5b81019080803573ffffffffffffffffffffffffffffffffffffffff169060200190929190803573ffffffffffffffffffffffffffffffffffffffff169060200190929190803590602001909291905050506103c1565b604051808215151515815260200191505060405180910390f35b6101e3600480360360408110156101ad57600080fd5b81019080803573ffffffffffffffffffffffffffffffffffffffff1690602001909291908035906020019092919050505061049a565b604051808215151515815260200191505060405180910390f35b61023f6004803603602081101561021357600080fd5b81019080803573ffffffffffffffffffffffffffffffffffffffff16906020019092919050505061054d565b6040518082815260200191505060405180910390f35b6102a16004803603604081101561026b57600080fd5b81019080803573ffffffffffffffffffffffffffffffffffffffff16906020019092919080359060200190929190505050610595565b604051808215151515815260200191505060405180910390f35b610307600480360360408110156102d157600080fd5b81019080803573ffffffffffffffffffffffffffffffffffffffff16906020019092919080359060200190929190505050610662565b604051808215151515815260200191505060405180910390f35b6103836004803603604081101561033757600080fd5b81019080803573ffffffffffffffffffffffffffffffffffffffff169060200190929190803573ffffffffffffffffffffffffffffffffffffffff169060200190929190505050610680565b6040518082815260200191505060405180910390f35b60006103ad6103a6610707565b848461070f565b6001905092915050565b6000600254905090565b60006103ce848484610906565b61048f846103da610707565b61048a85604051806060016040528060288152602001610d7060289139600160008b73ffffffffffffffffffffffffffffffffffffffff1673ffffffffffffffffffffffffffffffffffffffff1681526020019081526020016000206000610440610707565b73ffffffffffffffffffffffffffffffffffffffff1673ffffffffffffffffffffffffffffffffffffffff16815260200190815260200160002054610bbc9092919063ffffffff16565b61070f565b600190509392505050565b60006105436104a7610707565b8461053e85600160006104b8610707565b73ffffffffffffffffffffffffffffffffffffffff1673ffffffffffffffffffffffffffffffffffffffff16815260200190815260200160002060008973ffffffffffffffffffffffffffffffffffffffff1673ffffffffffffffffffffffffffffffffffffffff16815260200190815260200160002054610c7c90919063ffffffff16565b61070f565b6001905092915050565b60008060008373ffffffffffffffffffffffffffffffffffffffff1673ffffffffffffffffffffffffffffffffffffffff168152602001908152602001600020549050919050565b60006106586105a2610707565b8461065385604051806060016040528060258152602001610de160259139600160006105cc610707565b73ffffffffffffffffffffffffffffffffffffffff1673ffffffffffffffffffffffffffffffffffffffff16815260200190815260200160002060008a73ffffffffffffffffffffffffffffffffffffffff1673ffffffffffffffffffffffffffffffffffffffff16815260200190815260200160002054610bbc9092919063ffffffff16565b61070f565b6001905092915050565b600061067661066f610707565b8484610906565b6001905092915050565b6000600160008473ffffffffffffffffffffffffffffffffffffffff1673ffffffffffffffffffffffffffffffffffffffff16815260200190815260200160002060008373ffffffffffffffffffffffffffffffffffffffff1673ffffffffffffffffffffffffffffffffffffffff16815260200190815260200160002054905092915050565b600033905090565b600073ffffffffffffffffffffffffffffffffffffffff168373ffffffffffffffffffffffffffffffffffffffff161415610795576040517f08c379a0000000000000000000000000000000000000000000000000000000008152600401808060200182810382526024815260200180610dbd6024913960400191505060405180910390fd5b600073ffffffffffffffffffffffffffffffffffffffff168273ffffffffffffffffffffffffffffffffffffffff16141561081b576040517f08c379a0000000000000000000000000000000000000000000000000000000008152600401808060200182810382526022815260200180610d286022913960400191505060405180910390fd5b80600160008573ffffffffffffffffffffffffffffffffffffffff1673ffffffffffffffffffffffffffffffffffffffff16815260200190815260200160002060008473ffffffffffffffffffffffffffffffffffffffff1673ffffffffffffffffffffffffffffffffffffffff168152602001908152602001600020819055508173ffffffffffffffffffffffffffffffffffffffff168373ffffffffffffffffffffffffffffffffffffffff167f8c5be1e5ebec7d5bd14f71427d1e84f3dd0314c0f7b2291e5b200ac8c7c3b925836040518082815260200191505060405180910390a3505050565b600073ffffffffffffffffffffffffffffffffffffffff168373ffffffffffffffffffffffffffffffffffffffff16141561098c576040517f08c379a0000000000000000000000000000000000000000000000000000000008152600401808060200182810382526025815260200180610d986025913960400191505060405180910390fd5b600073ffffffffffffffffffffffffffffffffffffffff168273ffffffffffffffffffffffffffffffffffffffff161415610a12576040517f08c379a0000000000000000000000000000000000000000000000000000000008152600401808060200182810382526023815260200180610d056023913960400191505060405180910390fd5b610a7d81604051806060016040528060268152602001610d4a602691396000808773ffffffffffffffffffffffffffffffffffffffff1673ffffffffffffffffffffffffffffffffffffffff16815260200190815260200160002054610bbc9092919063ffffffff16565b6000808573ffffffffffffffffffffffffffffffffffffffff1673ffffffffffffffffffffffffffffffffffffffff16815260200190815260200160002081905550610b10816000808573ffffffffffffffffffffffffffffffffffffffff1673ffffffffffffffffffffffffffffffffffffffff16815260200190815260200160002054610c7c90919063ffffffff16565b6000808473ffffffffffffffffffffffffffffffffffffffff1673ffffffffffffffffffffffffffffffffffffffff168152602001908152602001600020819055508173ffffffffffffffffffffffffffffffffffffffff168373ffffffffffffffffffffffffffffffffffffffff167fddf252ad1be2c89b69c2b068fc378daa952ba7f163c4a11628f55a4df523b3ef836040518082815260200191505060405180910390a3505050565b6000838311158290610c69576040517f08c379a00000000000000000000000000000000000000000000000000000000081526004018080602001828103825283818151815260200191508051906020019080838360005b83811015610c2e578082015181840152602081019050610c13565b50505050905090810190601f168015610c5b5780820380516001836020036101000a031916815260200191505b509250505060405180910390fd5b5060008385039050809150509392505050565b600080828401905083811015610cfa576040517f08c379a000000000000000000000000000000000000000000000000000000000815260040180806020018281038252601b8152602001807f536166654d6174683a206164646974696f6e206f766572666c6f77000000000081525060200191505060405180910390fd5b809150509291505056fe45524332303a207472616e7366657220746f20746865207a65726f206164647265737345524332303a20617070726f766520746f20746865207a65726f206164647265737345524332303a207472616e7366657220616d6f756e7420657863656564732062616c616e636545524332303a207472616e7366657220616d6f756e74206578636565647320616c6c6f77616e636545524332303a207472616e736665722066726f6d20746865207a65726f206164647265737345524332303a20617070726f76652066726f6d20746865207a65726f206164647265737345524332303a2064656372656173656420616c6c6f77616e63652062656c6f77207a65726fa265627a7a72315820cd6ee12f4a577ef7cfea1d89a02d813939efb45eafa8d81c23144f1cf8c5f5b264736f6c63430005100032",
  "source": "pragma solidity ^0.5.16;\r\n\r\n//import \"github.com/OpenZeppelin/openzeppelin-contract/contracts/GSN/Context.sol\";\r\n//import \"github.com/OpenZeppelin/openzeppelin-contracts/contracts/token/ERC20/ERC20.sol\";\r\n//import \"github.com/OpenZeppelin/openzeppelin-contracts/contracts/token/ERC20/ERC20Detailed.sol\";\r\n//import \"@openzeppelin/contracts/math/SafeMath.sol\";\r\n//import \"@openzeppelin/contracts/GSN/Context.sol\";\r\nimport \"@OpenZeppelin/contracts/token/ERC20/ERC20.sol\";\r\n//import \"@openzeppelin/contracts/token/ERC20/ERC20Detailed.sol\";\r\n\r\n\r\ncontract ArtipToken is   ERC20  {\r\n    string name = 'ArtipToken';\r\n    string symbol = 'ARTIP';\r\n    uint decimals = 18;\r\n   /* constructor () public ERC20Detailed(\"ArtipToken\", \"ARTIP\", 18) {\r\n        _mint(_msgSender(), 1 * (10 ** uint256(decimals())));\r\n    }*/\r\n\r\n}\r\ncontract ArtipCrowdSale is ArtipToken {\r\n\t// stocke la date de début du PreSale\r\n    uint private datePreSaleStart = 1580598000;\r\n\t// stocke la date de fin du PreSale\r\n    uint private datePreSaleEnd = 1593468000;\r\n\t// stocke la date de début du Sale\r\n    uint private dateSaleStart = 1593554400;\r\n\t// stocke la date de fin du Sale\r\n    uint private dateSaleEnd = 1601416800;\r\n\t// stocke la date de début du remboursement\r\n    uint private dateRemboursementStart = 1604185200;\r\n\t// stocke la date de fin du remboursement\r\n    uint private dateRemboursementEnd = 1609369200;\r\n\t// Minimum requis pour une contribution en PreSale\r\n    uint private minContrubPreSale = 10 ether;\r\n\t// Maximum requis pour une contribution en PreSale\r\n    uint private maxContrubPreSale = 1000 ether;\r\n\t// Minimum requis pour une contribution en Sale\r\n    uint private minContrubSale = 5 ether;\r\n\t// Maxiùmum requis pour une contribution en Sale\r\n    uint private maxContrubSale = 500 ether;\r\n\t// Recupère le maximum de Token\r\n    uint private maxArtip = 6000000*10**(18) ;\r\n\t//Recupère la réduction à effectué pour une Sale\r\n    uint private preSalReduction = 20; //20%\r\n    // The token being sold\r\n    ArtipToken private  artiptoken;\r\n    // Address where funds are collected\r\n    address payable private _wallet;\r\n    // How many token units a buyer gets per wei.\r\n    uint256 private _rate = 1;\r\n    // Amount of wei raised\r\n    uint256 private _weiRaised;\r\n    //Récupère une whiteList\r\n    mapping(address=>Personne) public whiteliste;\r\n    mapping(address=>uint) private listAcheteurs;\r\n\t//Adresse de l'administrateur\r\n    address admin;\r\n    //Structure définit les caractéristiques d'une personne\r\n    struct Personne {\r\n        string nom;\r\n        string prenom;\r\n        address _address;\r\n    }\r\n\t//Exige que l'admin soit le détenteur du contrat\r\n    modifier onlyAdmin{\r\n        require(admin == msg.sender, \"erreur: not admin\");\r\n        _;\r\n    }\r\n    /**\r\n     * Event for token purchase logging\r\n     * @param purchaser who paid for the tokens\r\n     * @param beneficiary who got the tokens\r\n     * @param value weis paid for purchase\r\n     * @param amount amount of tokens purchased\r\n     */\r\n    event TokensAchete(address indexed purchaser, address indexed beneficiary, uint256 value, uint256 amount);\r\n    constructor (address payable wallet) public {\r\n        require(wallet != address(0), \"ArtipCrowdSale: wallet is the zero address\");\r\n        _wallet = wallet;\r\n        artiptoken = new ArtipToken();\r\n        admin = msg.sender;\r\n    }\r\n    // Fonction pour acheter des tokens\r\n    function acheterArtipToken() public  payable {\r\n        //le montant a payer en wei\r\n        uint256 weiAmount = msg.value;\r\n\t\t//Adresse du beneficiaire\r\n        address beneficiary = msg.sender;\r\n        uint256 artip;\r\n\t\t//On valide le beneficiaire et le montant\r\n        _premiereValidation(beneficiary, weiAmount);\r\n        //Si le beneficiaire est dans la WhiteList et que date du jour est comprise dans les dates de PreSale\r\n        if (whiteliste[msg.sender]._address == msg.sender && now < datePreSaleEnd){\r\n\t\t\t//Alors, on valide le montant en Wei\r\n            _preSaleValidation(weiAmount);\r\n\t\t\t// On récupère le montant en Wei auquel on ajoute la réduction de 20%\r\n            artip = _getTokenAmount(weiAmount+weiAmount.mul(preSalReduction).div(100));\r\n        } else {\r\n             _SaleValidation(weiAmount);\r\n\t\t\t //Sinon on récupère le montant en Wei\r\n             artip = _getTokenAmount(weiAmount);\r\n        }\r\n        _weiRaised = _weiRaised.add(weiAmount);\r\n        _envoieTokens(beneficiary,artip);\r\n        _forwardFunds();\r\n        listAcheteurs[msg.sender].add(weiAmount);\r\n    }\r\n    // Fonction de rembourssement\r\n    function remboursement() public {\r\n\t\t//On exige que le remboursement soit effectué durant l'intervalle de dates données\r\n        require(now >= dateRemboursementStart && now <= dateRemboursementEnd,\"Remboursement non disponible actuellement\");\r\n\t\t//On exige que seulement les personnes dans la Liste des acheteurs puisse avoir un reboursement\r\n        require(listAcheteurs[msg.sender]>0, \"rien a rembourser\");\r\n\t\t// Permet d'envoyer des tokens vers un acheteur\r\n        transfer(msg.sender, listAcheteurs[msg.sender]);\r\n\t\t//Ajoute les wei de l'acheteur dans les wei amassés\r\n        _weiRaised.sub(listAcheteurs[msg.sender]);\r\n        listAcheteurs[msg.sender] = 0;\r\n    }\r\n    // Fonction qui permet de valider le beneficiaire et le montant de la transaction\r\n    function _premiereValidation(address beneficiary, uint256 weiAmount) internal view {\r\n\t\t//Exige de ne pas dépasser le maximum de Artip disponible\r\n        require(artiptoken.totalSupply() < maxArtip, \"le maximum de artip est atteint\");\r\n\t\t//Exige que le beneficiaire a une adresse différente de zéro\r\n        require(beneficiary != address(0), \"ArtipCrowdsale: beneficiary is the zero address\");\r\n\t\t//Exige que le montant de Wei disponible soit non-nul\r\n        require(weiAmount != 0, \"ArtipCrowdsale: weiAmount is 0\");\r\n\t\t//Exige que les dates de PreSale soient respectées\r\n        require(now >= datePreSaleStart && now <= dateSaleEnd,\"sale expiré !\");\r\n        this; // silence state mutability warning without generating bytecode - see https://github.com/ethereum/solidity/issues/2691\r\n    }\r\n\t//Fonction qui valide les paramètres du PreSale\r\n    function _preSaleValidation(uint256 weiAmount) internal view {\r\n\t\t//Exige que le montant de Wei soit compris dans l'intervalle du montant de Contribution PreSale\r\n        require(weiAmount >= minContrubPreSale && weiAmount <= maxContrubPreSale,\"Montant non valide\");\r\n\t\t//Exige que lorsqu'on ajoute le montant de Wei, il ne dépasse pas le maximum de Artip disponible\r\n        require(artiptoken.totalSupply().add(weiAmount) < maxArtip, \"le maximum de artip est atteint\");\r\n        this;\r\n    }\r\n    //Fonction qui valide les paramètres du Sale\r\n    function _SaleValidation(uint256 weiAmount) internal view {\r\n\t\t//Exige que le montant de Wei soit compris dans l'intervalle de Contribution Sale\r\n        require(weiAmount >= minContrubSale && weiAmount <= maxContrubSale,\"montant non valide\");\r\n\t\t//Exige que le montant de total ne dépasse le maximum de Artip disponible\r\n        require(artiptoken.totalSupply().add(weiAmount) < maxArtip, \"le maximum de artip est atteint\");\r\n\t\t//Exige que la date actuelle soit égale à la date de début du Sale\r\n        require(now >= dateSaleStart,\"sale non disponible\");\r\n        this;\r\n    }\r\n    //Fonction qui envoie les token vers le beneficiaire\r\n    function _envoieTokens(address beneficiary, uint256 tokenAmount) internal {\r\n        artiptoken.transfer(beneficiary, tokenAmount);\r\n    }\r\n    //Récupère les Token pour y appliquer le taux de change\r\n    function _getTokenAmount(uint256 weiAmount) internal view returns (uint256) {\r\n        return weiAmount.mul(_rate);\r\n    }\r\n    /**\r\n     * @dev Determines how ETH is stored/forwarded on purchases.\r\n     */\r\n    function _forwardFunds() internal {\r\n        _wallet.transfer(msg.value);\r\n    }\r\n    //Ajoute une personne à la WhiteList\r\n    function ajouterPersonne (string memory _nom, string memory _prenom, address _address) public onlyAdmin {\r\n\t\t// Création d'une nouvelle personne\r\n        Personne memory p = Personne(_nom, _prenom, _address);\r\n\t\t//Ajout de la nouvelle personne dans la WhiteList\r\n        whiteliste[_address] = p;\r\n    }\r\n}",
  "sourcePath": "C:\\Users\\inesk\\Documents\\Work\\Alyra\\Git\\semaine5\\ARTIP_ICO_with_Truffle\\contracts\\ArtipCrowdSale.sol",
  "compiler": {
    "name": "solc",
    "version": "0.5.16+commit.9c3226ce.Emscripten.clang"
  },
  "schemaVersion": "3.0.23",
  "updatedAt": "2020-02-27T11:05:51.079Z",
  "devdoc": {
    "methods": {
      "allowance(address,address)": {
        "details": "See {IERC20-allowance}."
      },
      "approve(address,uint256)": {
        "details": "See {IERC20-approve}.     * Requirements:     * - `spender` cannot be the zero address."
      },
      "balanceOf(address)": {
        "details": "See {IERC20-balanceOf}."
      },
      "decreaseAllowance(address,uint256)": {
        "details": "Atomically decreases the allowance granted to `spender` by the caller.     * This is an alternative to {approve} that can be used as a mitigation for problems described in {IERC20-approve}.     * Emits an {Approval} event indicating the updated allowance.     * Requirements:     * - `spender` cannot be the zero address. - `spender` must have allowance for the caller of at least `subtractedValue`."
      },
      "increaseAllowance(address,uint256)": {
        "details": "Atomically increases the allowance granted to `spender` by the caller.     * This is an alternative to {approve} that can be used as a mitigation for problems described in {IERC20-approve}.     * Emits an {Approval} event indicating the updated allowance.     * Requirements:     * - `spender` cannot be the zero address."
      },
      "totalSupply()": {
        "details": "See {IERC20-totalSupply}."
      },
      "transfer(address,uint256)": {
        "details": "See {IERC20-transfer}.     * Requirements:     * - `recipient` cannot be the zero address. - the caller must have a balance of at least `amount`."
      },
      "transferFrom(address,address,uint256)": {
        "details": "See {IERC20-transferFrom}.     * Emits an {Approval} event indicating the updated allowance. This is not required by the EIP. See the note at the beginning of {ERC20};     * Requirements: - `sender` and `recipient` cannot be the zero address. - `sender` must have a balance of at least `amount`. - the caller must have allowance for `sender`'s tokens of at least `amount`."
      }
    }
  },
  "userdoc": {
    "methods": {}
  }
}