{
  "contractName": "Defi2",
  "abi": [
    {
      "inputs": [],
      "payable": false,
      "stateMutability": "nonpayable",
      "type": "constructor"
    },
    {
      "anonymous": false,
      "inputs": [
        {
          "indexed": false,
          "internalType": "address",
          "name": "demandeur",
          "type": "address"
        },
        {
          "indexed": false,
          "internalType": "uint256",
          "name": "val",
          "type": "uint256"
        }
      ],
      "name": "eventAjouterDemande",
      "type": "event"
    },
    {
      "constant": true,
      "inputs": [
        {
          "internalType": "address",
          "name": "",
          "type": "address"
        }
      ],
      "name": "bannies",
      "outputs": [
        {
          "internalType": "bool",
          "name": "",
          "type": "bool"
        }
      ],
      "payable": false,
      "stateMutability": "view",
      "type": "function"
    },
    {
      "constant": true,
      "inputs": [
        {
          "internalType": "address",
          "name": "",
          "type": "address"
        }
      ],
      "name": "utilisateur",
      "outputs": [
        {
          "internalType": "string",
          "name": "nom",
          "type": "string"
        },
        {
          "internalType": "string",
          "name": "prenom",
          "type": "string"
        },
        {
          "internalType": "address",
          "name": "adr",
          "type": "address"
        },
        {
          "internalType": "uint256",
          "name": "reputation",
          "type": "uint256"
        }
      ],
      "payable": false,
      "stateMutability": "view",
      "type": "function"
    },
    {
      "constant": false,
      "inputs": [
        {
          "internalType": "string",
          "name": "_nom",
          "type": "string"
        },
        {
          "internalType": "string",
          "name": "_prenom",
          "type": "string"
        }
      ],
      "name": "inscription",
      "outputs": [],
      "payable": false,
      "stateMutability": "nonpayable",
      "type": "function"
    },
    {
      "constant": false,
      "inputs": [
        {
          "internalType": "address",
          "name": "_address",
          "type": "address"
        }
      ],
      "name": "bannie",
      "outputs": [],
      "payable": false,
      "stateMutability": "nonpayable",
      "type": "function"
    },
    {
      "constant": false,
      "inputs": [
        {
          "internalType": "uint256",
          "name": "_renumeration",
          "type": "uint256"
        },
        {
          "internalType": "uint256",
          "name": "_delais",
          "type": "uint256"
        },
        {
          "internalType": "string",
          "name": "_decrireTache",
          "type": "string"
        },
        {
          "internalType": "enum Defi2.etatDemande",
          "name": "_etat",
          "type": "uint8"
        },
        {
          "internalType": "uint256",
          "name": "_minReputation",
          "type": "uint256"
        }
      ],
      "name": "ajouterDemande",
      "outputs": [],
      "payable": true,
      "stateMutability": "payable",
      "type": "function"
    },
    {
      "constant": false,
      "inputs": [
        {
          "internalType": "uint256",
          "name": "_indiceDemande",
          "type": "uint256"
        },
        {
          "internalType": "enum Defi2.etatDemande",
          "name": "_etat",
          "type": "uint8"
        }
      ],
      "name": "changerEtatDemande",
      "outputs": [],
      "payable": false,
      "stateMutability": "nonpayable",
      "type": "function"
    },
    {
      "constant": false,
      "inputs": [
        {
          "internalType": "uint256",
          "name": "_indiceDemande",
          "type": "uint256"
        }
      ],
      "name": "postuler",
      "outputs": [],
      "payable": false,
      "stateMutability": "nonpayable",
      "type": "function"
    },
    {
      "constant": false,
      "inputs": [
        {
          "internalType": "uint256",
          "name": "_indiceDemande",
          "type": "uint256"
        },
        {
          "internalType": "address",
          "name": "_candidatAccepte",
          "type": "address"
        }
      ],
      "name": "accepterOffre",
      "outputs": [],
      "payable": false,
      "stateMutability": "nonpayable",
      "type": "function"
    },
    {
      "constant": true,
      "inputs": [
        {
          "internalType": "bytes",
          "name": "_link",
          "type": "bytes"
        }
      ],
      "name": "hashDepot",
      "outputs": [
        {
          "internalType": "bytes32",
          "name": "",
          "type": "bytes32"
        }
      ],
      "payable": false,
      "stateMutability": "pure",
      "type": "function"
    },
    {
      "constant": false,
      "inputs": [
        {
          "internalType": "uint256",
          "name": "_indiceDemande",
          "type": "uint256"
        },
        {
          "internalType": "bytes32",
          "name": "_linkDepot",
          "type": "bytes32"
        }
      ],
      "name": "livraison",
      "outputs": [],
      "payable": true,
      "stateMutability": "payable",
      "type": "function"
    }
  ],
  "bytecode": "0x608060405234801561001057600080fd5b5033600260006101000a81548173ffffffffffffffffffffffffffffffffffffffff021916908373ffffffffffffffffffffffffffffffffffffffff1602179055506129a4806100616000396000f3fe6080604052600436106100915760003560e01c806377a558c21161005957806377a558c2146103c0578063a6edb17e1461049c578063d617a95b146104d4578063e783a5b41461053d578063fe9603c91461059857610091565b8063108492fe146100965780631db6a3e6146100de57806345ea43b01461012f5780635267c7de1461016a5780635b317629146102da575b600080fd5b3480156100a257600080fd5b506100dc600480360360408110156100b957600080fd5b8101908080359060200190929190803560ff1690602001909291905050506106f7565b005b3480156100ea57600080fd5b5061012d6004803603602081101561010157600080fd5b81019080803573ffffffffffffffffffffffffffffffffffffffff1690602001909291905050506108b5565b005b34801561013b57600080fd5b506101686004803603602081101561015257600080fd5b8101908080359060200190929190505050610be6565b005b34801561017657600080fd5b506101b96004803603602081101561018d57600080fd5b81019080803573ffffffffffffffffffffffffffffffffffffffff16906020019092919050505061103e565b6040518080602001806020018573ffffffffffffffffffffffffffffffffffffffff1673ffffffffffffffffffffffffffffffffffffffff168152602001848152602001838103835287818151815260200191508051906020019080838360005b8381101561023557808201518184015260208101905061021a565b50505050905090810190601f1680156102625780820380516001836020036101000a031916815260200191505b50838103825286818151815260200191508051906020019080838360005b8381101561029b578082015181840152602081019050610280565b50505050905090810190601f1680156102c85780820380516001836020036101000a031916815260200191505b50965050505050505060405180910390f35b6103be600480360360a08110156102f057600080fd5b8101908080359060200190929190803590602001909291908035906020019064010000000081111561032157600080fd5b82018360208201111561033357600080fd5b8035906020019184600183028401116401000000008311171561035557600080fd5b91908080601f016020809104026020016040519081016040528093929190818152602001838380828437600081840152601f19601f820116905080830192505050505050509192919290803560ff169060200190929190803590602001909291905050506111be565b005b3480156103cc57600080fd5b50610486600480360360208110156103e357600080fd5b810190808035906020019064010000000081111561040057600080fd5b82018360208201111561041257600080fd5b8035906020019184600183028401116401000000008311171561043457600080fd5b91908080601f016020809104026020016040519081016040528093929190818152602001838380828437600081840152601f19601f82011690508083019250505050505050919291929050505061170a565b6040518082815260200191505060405180910390f35b6104d2600480360360408110156104b257600080fd5b81019080803590602001909291908035906020019092919050505061171b565b005b3480156104e057600080fd5b50610523600480360360208110156104f757600080fd5b81019080803573ffffffffffffffffffffffffffffffffffffffff169060200190929190505050611b35565b604051808215151515815260200191505060405180910390f35b34801561054957600080fd5b506105966004803603604081101561056057600080fd5b8101908080359060200190929190803573ffffffffffffffffffffffffffffffffffffffff169060200190929190505050611b55565b005b3480156105a457600080fd5b506106f5600480360360408110156105bb57600080fd5b81019080803590602001906401000000008111156105d857600080fd5b8201836020820111156105ea57600080fd5b8035906020019184600183028401116401000000008311171561060c57600080fd5b91908080601f016020809104026020016040519081016040528093929190818152602001838380828437600081840152601f19601f8201169050808301925050505050505091929192908035906020019064010000000081111561066f57600080fd5b82018360208201111561068157600080fd5b803590602001918460018302840111640100000000831117156106a357600080fd5b91908080601f016020809104026020016040519081016040528093929190818152602001838380828437600081840152601f19601f8201169050808301925050505050505091929192905050506120c8565b005b333373ffffffffffffffffffffffffffffffffffffffff166000808373ffffffffffffffffffffffffffffffffffffffff1673ffffffffffffffffffffffffffffffffffffffff16815260200190815260200160002060020160009054906101000a900473ffffffffffffffffffffffffffffffffffffffff1673ffffffffffffffffffffffffffffffffffffffff1614156107fb576040517f08c379a00000000000000000000000000000000000000000000000000000000081526004018080602001828103825260198152602001807f5574696c697361746575722064c3a96a6120696e73637269740000000000000081525060200191505060405180910390fd5b3373ffffffffffffffffffffffffffffffffffffffff166003848154811061081f57fe5b90600052602060002090600a020160070160009054906101000a900473ffffffffffffffffffffffffffffffffffffffff1673ffffffffffffffffffffffffffffffffffffffff161461087157600080fd5b816003848154811061087f57fe5b90600052602060002090600a020160030160006101000a81548160ff021916908360028111156108ab57fe5b0217905550505050565b803373ffffffffffffffffffffffffffffffffffffffff166000808373ffffffffffffffffffffffffffffffffffffffff1673ffffffffffffffffffffffffffffffffffffffff16815260200190815260200160002060020160009054906101000a900473ffffffffffffffffffffffffffffffffffffffff1673ffffffffffffffffffffffffffffffffffffffff1614156109b9576040517f08c379a00000000000000000000000000000000000000000000000000000000081526004018080602001828103825260198152602001807f5574696c697361746575722064c3a96a6120696e73637269740000000000000081525060200191505060405180910390fd5b8160001515600160008373ffffffffffffffffffffffffffffffffffffffff1673ffffffffffffffffffffffffffffffffffffffff16815260200190815260200160002060009054906101000a900460ff16151514610a80576040517f08c379a000000000000000000000000000000000000000000000000000000000815260040180806020018281038252600c8152602001807f64c3a96a612062616e6e6965000000000000000000000000000000000000000081525060200191505060405180910390fd5b3373ffffffffffffffffffffffffffffffffffffffff16600260009054906101000a900473ffffffffffffffffffffffffffffffffffffffff1673ffffffffffffffffffffffffffffffffffffffff1614610b43576040517f08c379a000000000000000000000000000000000000000000000000000000000815260040180806020018281038252601f8152602001807f566f7573206e27c3aa746573207061732061646d696e6973747261746575720081525060200191505060405180910390fd5b60018060008573ffffffffffffffffffffffffffffffffffffffff1673ffffffffffffffffffffffffffffffffffffffff16815260200190815260200160002060006101000a81548160ff02191690831515021790555060008060008573ffffffffffffffffffffffffffffffffffffffff1673ffffffffffffffffffffffffffffffffffffffff16815260200190815260200160002060030181905550505050565b333373ffffffffffffffffffffffffffffffffffffffff166000808373ffffffffffffffffffffffffffffffffffffffff1673ffffffffffffffffffffffffffffffffffffffff16815260200190815260200160002060020160009054906101000a900473ffffffffffffffffffffffffffffffffffffffff1673ffffffffffffffffffffffffffffffffffffffff161415610cea576040517f08c379a00000000000000000000000000000000000000000000000000000000081526004018080602001828103825260198152602001807f5574696c697361746575722064c3a96a6120696e73637269740000000000000081525060200191505060405180910390fd5b6003805490508210610d64576040517f08c379a00000000000000000000000000000000000000000000000000000000081526004018080602001828103825260188152602001807f6c612064656d616e646573206e2765786973746520706173000000000000000081525060200191505060405180910390fd5b60006002811115610d7157fe5b60038381548110610d7e57fe5b90600052602060002090600a020160030160009054906101000a900460ff166002811115610da857fe5b14610e1b576040517f08c379a000000000000000000000000000000000000000000000000000000000815260040180806020018281038252601c8152602001807f6c612064656d616e6465206e2765737420706173206f7576657274650000000081525060200191505060405180910390fd5b60038281548110610e2857fe5b90600052602060002090600a02016005013390806001815401808255809150509060018203906000526020600020016000909192909190916101000a81548173ffffffffffffffffffffffffffffffffffffffff021916908373ffffffffffffffffffffffffffffffffffffffff160217905550506000803373ffffffffffffffffffffffffffffffffffffffff1673ffffffffffffffffffffffffffffffffffffffff16815260200190815260200160002060038381548110610ee857fe5b90600052602060002090600a020160060160003373ffffffffffffffffffffffffffffffffffffffff1673ffffffffffffffffffffffffffffffffffffffff16815260200190815260200160002060008201816000019080546001816001161561010002031660029004610f5d9291906125c7565b5060018201816001019080546001816001161561010002031660029004610f859291906125c7565b506002820160009054906101000a900473ffffffffffffffffffffffffffffffffffffffff168160020160006101000a81548173ffffffffffffffffffffffffffffffffffffffff021916908373ffffffffffffffffffffffffffffffffffffffff1602179055506003820154816003015590505060016003838154811061100957fe5b90600052602060002090600a020160030160006101000a81548160ff0219169083600281111561103557fe5b02179055505050565b6000602052806000526040600020600091509050806000018054600181600116156101000203166002900480601f0160208091040260200160405190810160405280929190818152602001828054600181600116156101000203166002900480156110ea5780601f106110bf576101008083540402835291602001916110ea565b820191906000526020600020905b8154815290600101906020018083116110cd57829003601f168201915b505050505090806001018054600181600116156101000203166002900480601f0160208091040260200160405190810160405280929190818152602001828054600181600116156101000203166002900480156111885780601f1061115d57610100808354040283529160200191611188565b820191906000526020600020905b81548152906001019060200180831161116b57829003601f168201915b5050505050908060020160009054906101000a900473ffffffffffffffffffffffffffffffffffffffff16908060030154905084565b333373ffffffffffffffffffffffffffffffffffffffff166000808373ffffffffffffffffffffffffffffffffffffffff1673ffffffffffffffffffffffffffffffffffffffff16815260200190815260200160002060020160009054906101000a900473ffffffffffffffffffffffffffffffffffffffff1673ffffffffffffffffffffffffffffffffffffffff1614156112c2576040517f08c379a00000000000000000000000000000000000000000000000000000000081526004018080602001828103825260198152602001807f5574696c697361746575722064c3a96a6120696e73637269740000000000000081525060200191505060405180910390fd5b60008611611338576040517f08c379a000000000000000000000000000000000000000000000000000000000815260040180806020018281038252601c8152602001807f696c206661757420756e652072656e756d65726174696f6e203e20300000000081525060200191505060405180910390fd5b600085116113ae576040517f08c379a00000000000000000000000000000000000000000000000000000000081526004018080602001828103825260158152602001807f696c206661757420756e2064656c616973203e2030000000000000000000000081525060200191505060405180910390fd5b600060028111156113bb57fe5b8360028111156113c757fe5b14806113e857506002808111156113da57fe5b8360028111156113e657fe5b145b61143d576040517f08c379a00000000000000000000000000000000000000000000000000000000081526004018080602001828103825260218152602001806128a96021913960400191505060405180910390fd5b60008211611496576040517f08c379a00000000000000000000000000000000000000000000000000000000081526004018080602001828103825260248152602001806128856024913960400191505060405180910390fd5b61149e61264e565b868160000181815250508581602001818152505084816040018190525083816060019060028111156114cc57fe5b908160028111156114d957fe5b8152505082816080018181525050338160c0019073ffffffffffffffffffffffffffffffffffffffff16908173ffffffffffffffffffffffffffffffffffffffff16815250506003819080600181540180825580915050906001820390600052602060002090600a0201600090919290919091506000820151816000015560208201518160010155604082015181600201908051906020019061157d9291906126d4565b5060608201518160030160006101000a81548160ff021916908360028111156115a257fe5b02179055506080820151816004015560a08201518160050190805190602001906115cd929190612754565b5060c08201518160070160006101000a81548173ffffffffffffffffffffffffffffffffffffffff021916908373ffffffffffffffffffffffffffffffffffffffff16021790555060e08201518160080160006101000a81548173ffffffffffffffffffffffffffffffffffffffff021916908373ffffffffffffffffffffffffffffffffffffffff16021790555061010082015181600901555050506000611693606461168560028b6123a990919063ffffffff16565b61242f90919063ffffffff16565b90507fcb4440121070d175d800daa9555803591dee6e1bf0f37b959c81df69eae455293382604051808373ffffffffffffffffffffffffffffffffffffffff1673ffffffffffffffffffffffffffffffffffffffff1681526020018281526020019250505060405180910390a15050505050505050565b600081805190602001209050919050565b333373ffffffffffffffffffffffffffffffffffffffff166000808373ffffffffffffffffffffffffffffffffffffffff1673ffffffffffffffffffffffffffffffffffffffff16815260200190815260200160002060020160009054906101000a900473ffffffffffffffffffffffffffffffffffffffff1673ffffffffffffffffffffffffffffffffffffffff16141561181f576040517f08c379a00000000000000000000000000000000000000000000000000000000081526004018080602001828103825260198152602001807f5574696c697361746575722064c3a96a6120696e73637269740000000000000081525060200191505060405180910390fd5b6003805490508310611899576040517f08c379a00000000000000000000000000000000000000000000000000000000081526004018080602001828103825260188152602001807f6c612064656d616e646573206e2765786973746520706173000000000000000081525060200191505060405180910390fd5b3373ffffffffffffffffffffffffffffffffffffffff16600384815481106118bd57fe5b90600052602060002090600a020160080160009054906101000a900473ffffffffffffffffffffffffffffffffffffffff1673ffffffffffffffffffffffffffffffffffffffff161461195b576040517f08c379a00000000000000000000000000000000000000000000000000000000081526004018080602001828103825260378152602001806128ee6037913960400191505060405180910390fd5b6001600281111561196857fe5b6003848154811061197557fe5b90600052602060002090600a020160030160009054906101000a900460ff16600281111561199f57fe5b14611a12576040517f08c379a000000000000000000000000000000000000000000000000000000000815260040180806020018281038252601d8152602001807f6c612064656d616e6465206e276573742070617320656e20636f75727300000081525060200191505060405180910390fd5b8160038481548110611a2057fe5b90600052602060002090600a020160090181905550600260038481548110611a4457fe5b90600052602060002090600a020160030160006101000a81548160ff02191690836002811115611a7057fe5b0217905550611aca60016000803373ffffffffffffffffffffffffffffffffffffffff1673ffffffffffffffffffffffffffffffffffffffff1681526020019081526020016000206003015461247990919063ffffffff16565b503373ffffffffffffffffffffffffffffffffffffffff166108fc60038581548110611af257fe5b90600052602060002090600a0201600001549081150290604051600060405180830381858888f19350505050158015611b2f573d6000803e3d6000fd5b50505050565b60016020528060005260406000206000915054906101000a900460ff1681565b333373ffffffffffffffffffffffffffffffffffffffff166000808373ffffffffffffffffffffffffffffffffffffffff1673ffffffffffffffffffffffffffffffffffffffff16815260200190815260200160002060020160009054906101000a900473ffffffffffffffffffffffffffffffffffffffff1673ffffffffffffffffffffffffffffffffffffffff161415611c59576040517f08c379a00000000000000000000000000000000000000000000000000000000081526004018080602001828103825260198152602001807f5574696c697361746575722064c3a96a6120696e73637269740000000000000081525060200191505060405180910390fd5b813373ffffffffffffffffffffffffffffffffffffffff166000808373ffffffffffffffffffffffffffffffffffffffff1673ffffffffffffffffffffffffffffffffffffffff16815260200190815260200160002060020160009054906101000a900473ffffffffffffffffffffffffffffffffffffffff1673ffffffffffffffffffffffffffffffffffffffff161415611d5d576040517f08c379a00000000000000000000000000000000000000000000000000000000081526004018080602001828103825260198152602001807f5574696c697361746575722064c3a96a6120696e73637269740000000000000081525060200191505060405180910390fd5b6003805490508410611dd7576040517f08c379a00000000000000000000000000000000000000000000000000000000081526004018080602001828103825260188152602001807f6c612064656d616e646573206e2765786973746520706173000000000000000081525060200191505060405180910390fd5b3373ffffffffffffffffffffffffffffffffffffffff1660038581548110611dfb57fe5b90600052602060002090600a020160070160009054906101000a900473ffffffffffffffffffffffffffffffffffffffff1673ffffffffffffffffffffffffffffffffffffffff1614611e99576040517f08c379a000000000000000000000000000000000000000000000000000000000815260040180806020018281038252602a815260200180612946602a913960400191505060405180910390fd5b60006002811115611ea657fe5b60038581548110611eb357fe5b90600052602060002090600a020160030160009054906101000a900460ff166002811115611edd57fe5b14611f50576040517f08c379a000000000000000000000000000000000000000000000000000000000815260040180806020018281038252601c8152602001807f6c612064656d616e6465206e2765737420706173206f7576657274650000000081525060200191505060405180910390fd5b60038481548110611f5d57fe5b90600052602060002090600a020160060160008473ffffffffffffffffffffffffffffffffffffffff1673ffffffffffffffffffffffffffffffffffffffff1681526020019081526020016000206003015460038581548110611fbc57fe5b90600052602060002090600a0201600401541115612025576040517f08c379a00000000000000000000000000000000000000000000000000000000081526004018080602001828103825260248152602001806128ca6024913960400191505060405180910390fd5b826003858154811061203357fe5b90600052602060002090600a020160080160006101000a81548173ffffffffffffffffffffffffffffffffffffffff021916908373ffffffffffffffffffffffffffffffffffffffff16021790555060016003858154811061209157fe5b90600052602060002090600a020160030160006101000a81548160ff021916908360028111156120bd57fe5b021790555050505050565b333373ffffffffffffffffffffffffffffffffffffffff166000808373ffffffffffffffffffffffffffffffffffffffff1673ffffffffffffffffffffffffffffffffffffffff16815260200190815260200160002060020160009054906101000a900473ffffffffffffffffffffffffffffffffffffffff1673ffffffffffffffffffffffffffffffffffffffff1614156121cc576040517f08c379a00000000000000000000000000000000000000000000000000000000081526004018080602001828103825260198152602001807f5574696c697361746575722064c3a96a6120696e73637269740000000000000081525060200191505060405180910390fd5b3360001515600160008373ffffffffffffffffffffffffffffffffffffffff1673ffffffffffffffffffffffffffffffffffffffff16815260200190815260200160002060009054906101000a900460ff16151514612293576040517f08c379a000000000000000000000000000000000000000000000000000000000815260040180806020018281038252600c8152602001807f64c3a96a612062616e6e6965000000000000000000000000000000000000000081525060200191505060405180910390fd5b61229b6127de565b60405180608001604052808681526020018581526020013373ffffffffffffffffffffffffffffffffffffffff16815260200160018152509050806000803373ffffffffffffffffffffffffffffffffffffffff1673ffffffffffffffffffffffffffffffffffffffff16815260200190815260200160002060008201518160000190805190602001906123309291906126d4565b50602082015181600101908051906020019061234d9291906126d4565b5060408201518160020160006101000a81548173ffffffffffffffffffffffffffffffffffffffff021916908373ffffffffffffffffffffffffffffffffffffffff160217905550606082015181600301559050505050505050565b6000808314156123bc5760009050612429565b60008284029050828482816123cd57fe5b0414612424576040517f08c379a00000000000000000000000000000000000000000000000000000000081526004018080602001828103825260218152602001806129256021913960400191505060405180910390fd5b809150505b92915050565b600061247183836040518060400160405280601a81526020017f536166654d6174683a206469766973696f6e206279207a65726f000000000000815250612501565b905092915050565b6000808284019050838110156124f7576040517f08c379a000000000000000000000000000000000000000000000000000000000815260040180806020018281038252601b8152602001807f536166654d6174683a206164646974696f6e206f766572666c6f77000000000081525060200191505060405180910390fd5b8091505092915050565b600080831182906125ad576040517f08c379a00000000000000000000000000000000000000000000000000000000081526004018080602001828103825283818151815260200191508051906020019080838360005b83811015612572578082015181840152602081019050612557565b50505050905090810190601f16801561259f5780820380516001836020036101000a031916815260200191505b509250505060405180910390fd5b5060008385816125b957fe5b049050809150509392505050565b828054600181600116156101000203166002900490600052602060002090601f016020900481019282601f10612600578054855561263d565b8280016001018555821561263d57600052602060002091601f016020900482015b8281111561263c578254825591600101919060010190612621565b5b50905061264a919061281c565b5090565b6040518061012001604052806000815260200160008152602001606081526020016000600281111561267c57fe5b81526020016000815260200160608152602001600073ffffffffffffffffffffffffffffffffffffffff168152602001600073ffffffffffffffffffffffffffffffffffffffff168152602001600080191681525090565b828054600181600116156101000203166002900490600052602060002090601f016020900481019282601f1061271557805160ff1916838001178555612743565b82800160010185558215612743579182015b82811115612742578251825591602001919060010190612727565b5b509050612750919061281c565b5090565b8280548282559060005260206000209081019282156127cd579160200282015b828111156127cc5782518260006101000a81548173ffffffffffffffffffffffffffffffffffffffff021916908373ffffffffffffffffffffffffffffffffffffffff16021790555091602001919060010190612774565b5b5090506127da9190612841565b5090565b60405180608001604052806060815260200160608152602001600073ffffffffffffffffffffffffffffffffffffffff168152602001600081525090565b61283e91905b8082111561283a576000816000905550600101612822565b5090565b90565b61288191905b8082111561287d57600081816101000a81549073ffffffffffffffffffffffffffffffffffffffff021916905550600101612847565b5090565b9056fe6c612072657075746174696f6e206d696e696d616c6520646f69742065747265203e20306c2765746174206465206c612044656d616e64652065737420696e646566696e6963652070726f66696c65206e65207065757820706173206574726520616363657074c3a9766f7573206e276574657320706173206c652063616e646964617420616363657074c3a920706f75722063657474652064656d616e6465536166654d6174683a206d756c7469706c69636174696f6e206f766572666c6f77766f7573206e276574657320706173206c6520746974756c61697265206465206c612064656d616e6465a265627a7a723158202c681d2253437d2357ae4850efe7edec9e4aad1527c5b3e91f7edf81656d9d0264736f6c63430005100032",
  "source": "pragma solidity >=0.4.21 <0.7.0;\r\n\r\n//pragma experimental ABIEncoderV2;\r\n\r\nimport \"@openzeppelin/contracts/math/SafeMath.sol\";\r\n\r\ncontract Defi2 {\r\n    \r\n    using SafeMath for uint;\r\n    mapping (address => Utilisateur) public utilisateur; \r\n    mapping (address => bool) public bannies;\r\n    address admin;\r\n    enum etatDemande {OUVERTE, ENCOURS, FERMER}\r\n    Demande [] demandes;\r\n    \r\n    struct Utilisateur {\r\n        string nom;\r\n        string prenom;\r\n        address adr;\r\n        uint reputation;\r\n    }\r\n    \r\n    struct Demande {\r\n        uint renumeration;\r\n        uint delais;\r\n        string decrireTache;\r\n        etatDemande etat; \r\n        uint minReputation;\r\n        address [] candidatsAddress;\r\n        mapping(address => Utilisateur) candidats;\r\n        address entrepriseAddress;\r\n        address candidatAccepte;\r\n        bytes32 linkDepot;\r\n        \r\n    }\r\n   \r\n    modifier estInscrit(address _address){\r\n        require(utilisateur[_address].adr != msg.sender, \"Utilisateur dja inscrit\");\r\n        _;\r\n    }\r\n    modifier estAdmin(){\r\n        require(admin == msg.sender, \"Vous n'tes pas administrateur\");\r\n        _;\r\n    }\r\n    modifier nEstPasBannie(address _address){\r\n        require(bannies[_address] == false, \"dja bannie\");\r\n        _;\r\n    }\r\n    /*\r\n     *Event ajouter demande\r\n     *address du demandeur \r\n     *valeur a payer\r\n    */\r\n    event eventAjouterDemande(address demandeur, uint val);\r\n    \r\n    constructor() public {\r\n        admin = msg.sender;\r\n    }\r\n    \r\n    function inscription(string memory _nom, string memory _prenom) public estInscrit(msg.sender) nEstPasBannie(msg.sender) { // mais le modifier nEstPasBannie ne sert a rien puisque il ya le modifier estInscrit\r\n        Utilisateur memory user = Utilisateur(_nom,_prenom,msg.sender,1);\r\n        utilisateur[msg.sender] = user;\r\n    }\r\n    \r\n    function bannie (address _address) public estInscrit(_address) nEstPasBannie(_address) estAdmin  {\r\n        bannies[_address] = true;\r\n        utilisateur[_address].reputation = 0;\r\n    }\r\n    \r\n    function ajouterDemande(uint _renumeration, uint _delais, string memory _decrireTache, etatDemande _etat, uint _minReputation) public estInscrit(msg.sender) payable {\r\n      require(_renumeration > 0 , \"il faut une renumeration > 0\");\r\n      require(_delais > 0, \"il faut un delais > 0\");\r\n     // require(_decrireTache.length > 0, \"Il faut une description des taches\");\r\n      require(_etat == etatDemande.OUVERTE || _etat == etatDemande.FERMER , \"l'etat de la Demande est indefini\");\r\n      require(_minReputation > 0, \"la reputation minimale doit etre > 0\");\r\n      Demande memory dem ;\r\n      dem.renumeration = _renumeration;\r\n      dem.delais = _delais;\r\n      dem.decrireTache = _decrireTache;\r\n      dem.etat = _etat;\r\n      dem.minReputation = _minReputation;\r\n      dem.entrepriseAddress = msg.sender;\r\n      demandes.push(dem);\r\n      uint val = _renumeration.mul(2).div(100);\r\n      emit eventAjouterDemande(msg.sender, val);\r\n\r\n    }\r\n    \r\n    function changerEtatDemande(uint _indiceDemande, etatDemande _etat) public estInscrit(msg.sender) {\r\n        require(demandes[_indiceDemande].entrepriseAddress == msg.sender);\r\n        demandes[_indiceDemande].etat = _etat;\r\n    }\r\n    \r\n    function postuler(uint _indiceDemande) public estInscrit(msg.sender) {\r\n      require(_indiceDemande < demandes.length, \"la demandes n'existe pas\");\r\n      require(demandes[_indiceDemande].etat == etatDemande.OUVERTE, \"la demande n'est pas ouverte\");\r\n      demandes[_indiceDemande].candidatsAddress.push(msg.sender);\r\n      demandes[_indiceDemande].candidats[msg.sender] = utilisateur[msg.sender];\r\n      demandes[_indiceDemande].etat = etatDemande.ENCOURS;\r\n    }\r\n    \r\n    function accepterOffre(uint _indiceDemande,address _candidatAccepte) public estInscrit(msg.sender) estInscrit(_candidatAccepte){\r\n        require(_indiceDemande < demandes.length, \"la demandes n'existe pas\");\r\n        require(demandes[_indiceDemande].entrepriseAddress == msg.sender, \"vous n'etes pas le titulaire de la demande\");\r\n        require(demandes[_indiceDemande].etat == etatDemande.OUVERTE, \"la demande n'est pas ouverte\");\r\n        require(demandes[_indiceDemande].minReputation <= demandes[_indiceDemande].candidats[_candidatAccepte].reputation, \"ce profile ne peux pas etre accept\");\r\n        demandes[_indiceDemande].candidatAccepte = _candidatAccepte;\r\n        demandes[_indiceDemande].etat = etatDemande.ENCOURS;\r\n        \r\n    }\r\n    \r\n    function hashDepot(bytes  memory _link) public pure returns (bytes32) {\r\n        return keccak256(_link);\r\n    }\r\n    \r\n    function livraison(uint _indiceDemande, bytes32 _linkDepot) public estInscrit(msg.sender) payable {\r\n        require(_indiceDemande < demandes.length, \"la demandes n'existe pas\");\r\n        require(demandes[_indiceDemande].candidatAccepte == msg.sender, \"vous n'etes pas le candidat accept pour cette demande\");\r\n        require(demandes[_indiceDemande].etat == etatDemande.ENCOURS, \"la demande n'est pas en cours\");\r\n        demandes[_indiceDemande].linkDepot = _linkDepot;\r\n        demandes[_indiceDemande].etat = etatDemande.FERMER;\r\n        utilisateur[msg.sender].reputation.add(1);\r\n        msg.sender.transfer(demandes[_indiceDemande].renumeration);\r\n        \r\n        \r\n    }\r\n    \r\n}",
  "sourcePath": "C:\\Users\\inesk\\Documents\\Work\\Alyra\\Git\\semaine5\\Defi2WithTruffle\\contracts\\Defi2.sol",
  "compiler": {
    "name": "solc",
    "version": "0.5.16+commit.9c3226ce.Emscripten.clang"
  },
  "schemaVersion": "3.0.23",
  "updatedAt": "2020-02-17T23:15:00.168Z",
  "devdoc": {
    "methods": {}
  },
  "userdoc": {
    "methods": {}
  }
}