{
  "contractName": "Defi2",
  "abi": [
    {
      "inputs": [],
      "payable": false,
      "stateMutability": "nonpayable",
      "type": "constructor"
    },
    {
      "anonymous": false,
      "inputs": [
        {
          "indexed": false,
          "internalType": "address",
          "name": "demandeur",
          "type": "address"
        },
        {
          "indexed": false,
          "internalType": "uint256",
          "name": "val",
          "type": "uint256"
        }
      ],
      "name": "eventAjouterDemande",
      "type": "event"
    },
    {
      "anonymous": false,
      "inputs": [
        {
          "indexed": false,
          "internalType": "address",
          "name": "candidat",
          "type": "address"
        },
        {
          "indexed": false,
          "internalType": "uint256",
          "name": "val",
          "type": "uint256"
        }
      ],
      "name": "eventCandidatPaye",
      "type": "event"
    },
    {
      "constant": true,
      "inputs": [],
      "name": "admin",
      "outputs": [
        {
          "internalType": "address",
          "name": "",
          "type": "address"
        }
      ],
      "payable": false,
      "stateMutability": "view",
      "type": "function"
    },
    {
      "constant": true,
      "inputs": [
        {
          "internalType": "address",
          "name": "",
          "type": "address"
        }
      ],
      "name": "bannies",
      "outputs": [
        {
          "internalType": "bool",
          "name": "",
          "type": "bool"
        }
      ],
      "payable": false,
      "stateMutability": "view",
      "type": "function"
    },
    {
      "constant": true,
      "inputs": [
        {
          "internalType": "uint256",
          "name": "",
          "type": "uint256"
        }
      ],
      "name": "demandes",
      "outputs": [
        {
          "internalType": "uint256",
          "name": "renumeration",
          "type": "uint256"
        },
        {
          "internalType": "uint256",
          "name": "delais",
          "type": "uint256"
        },
        {
          "internalType": "uint256",
          "name": "minReputation",
          "type": "uint256"
        },
        {
          "internalType": "string",
          "name": "decrireTache",
          "type": "string"
        },
        {
          "internalType": "enum Defi2.etatDemande",
          "name": "etat",
          "type": "uint8"
        },
        {
          "internalType": "address",
          "name": "entrepriseAddress",
          "type": "address"
        },
        {
          "internalType": "address",
          "name": "candidatAccepte",
          "type": "address"
        },
        {
          "internalType": "bytes32",
          "name": "linkDepot",
          "type": "bytes32"
        },
        {
          "internalType": "bool",
          "name": "autorisePayment",
          "type": "bool"
        }
      ],
      "payable": false,
      "stateMutability": "view",
      "type": "function"
    },
    {
      "constant": true,
      "inputs": [
        {
          "internalType": "address",
          "name": "",
          "type": "address"
        }
      ],
      "name": "utilisateur",
      "outputs": [
        {
          "internalType": "string",
          "name": "nom",
          "type": "string"
        },
        {
          "internalType": "string",
          "name": "prenom",
          "type": "string"
        },
        {
          "internalType": "address",
          "name": "adr",
          "type": "address"
        },
        {
          "internalType": "uint256",
          "name": "reputation",
          "type": "uint256"
        }
      ],
      "payable": false,
      "stateMutability": "view",
      "type": "function"
    },
    {
      "constant": false,
      "inputs": [
        {
          "internalType": "string",
          "name": "_nom",
          "type": "string"
        },
        {
          "internalType": "string",
          "name": "_prenom",
          "type": "string"
        }
      ],
      "name": "inscription",
      "outputs": [],
      "payable": false,
      "stateMutability": "nonpayable",
      "type": "function"
    },
    {
      "constant": false,
      "inputs": [
        {
          "internalType": "address",
          "name": "_address",
          "type": "address"
        }
      ],
      "name": "bannie",
      "outputs": [],
      "payable": false,
      "stateMutability": "nonpayable",
      "type": "function"
    },
    {
      "constant": false,
      "inputs": [
        {
          "internalType": "uint256",
          "name": "_renumeration",
          "type": "uint256"
        },
        {
          "internalType": "uint256",
          "name": "_delais",
          "type": "uint256"
        },
        {
          "internalType": "string",
          "name": "_decrireTache",
          "type": "string"
        },
        {
          "internalType": "enum Defi2.etatDemande",
          "name": "_etat",
          "type": "uint8"
        },
        {
          "internalType": "uint256",
          "name": "_minReputation",
          "type": "uint256"
        }
      ],
      "name": "ajouterDemande",
      "outputs": [],
      "payable": true,
      "stateMutability": "payable",
      "type": "function"
    },
    {
      "constant": false,
      "inputs": [
        {
          "internalType": "uint256",
          "name": "_indiceDemande",
          "type": "uint256"
        },
        {
          "internalType": "enum Defi2.etatDemande",
          "name": "_etat",
          "type": "uint8"
        }
      ],
      "name": "changerEtatDemande",
      "outputs": [],
      "payable": false,
      "stateMutability": "nonpayable",
      "type": "function"
    },
    {
      "constant": false,
      "inputs": [
        {
          "internalType": "uint256",
          "name": "_indiceDemande",
          "type": "uint256"
        }
      ],
      "name": "postuler",
      "outputs": [],
      "payable": false,
      "stateMutability": "nonpayable",
      "type": "function"
    },
    {
      "constant": false,
      "inputs": [
        {
          "internalType": "uint256",
          "name": "_indiceDemande",
          "type": "uint256"
        },
        {
          "internalType": "address",
          "name": "_candidatAccepte",
          "type": "address"
        }
      ],
      "name": "accepterOffre",
      "outputs": [],
      "payable": false,
      "stateMutability": "nonpayable",
      "type": "function"
    },
    {
      "constant": true,
      "inputs": [
        {
          "internalType": "bytes",
          "name": "_link",
          "type": "bytes"
        }
      ],
      "name": "hashDepot",
      "outputs": [
        {
          "internalType": "bytes32",
          "name": "",
          "type": "bytes32"
        }
      ],
      "payable": false,
      "stateMutability": "pure",
      "type": "function"
    },
    {
      "constant": false,
      "inputs": [
        {
          "internalType": "uint256",
          "name": "_indiceDemande",
          "type": "uint256"
        },
        {
          "internalType": "bytes32",
          "name": "_linkDepot",
          "type": "bytes32"
        }
      ],
      "name": "livraison",
      "outputs": [],
      "payable": false,
      "stateMutability": "nonpayable",
      "type": "function"
    },
    {
      "constant": false,
      "inputs": [
        {
          "internalType": "uint256",
          "name": "_indiceDemande",
          "type": "uint256"
        }
      ],
      "name": "renumeration",
      "outputs": [],
      "payable": true,
      "stateMutability": "payable",
      "type": "function"
    }
  ],
  "bytecode": "0x608060405234801561001057600080fd5b50336000806101000a81548173ffffffffffffffffffffffffffffffffffffffff021916908373ffffffffffffffffffffffffffffffffffffffff1602179055506135da806100606000396000f3fe6080604052600436106100c25760003560e01c806377a558c21161007f578063d617a95b11610059578063d617a95b14610265578063e783a5b4146102a2578063f851a440146102cb578063fe9603c9146102f6576100c2565b806377a558c2146101ba578063a6edb17e146101f7578063b5e2bf2f14610220576100c2565b80630aeeb302146100c7578063108492fe146100e35780631db6a3e61461010c57806345ea43b0146101355780635267c7de1461015e5780635b3176291461019e575b600080fd5b6100e160048036036100dc91908101906126be565b61031f565b005b3480156100ef57600080fd5b5061010a6004803603610105919081019061275f565b610649565b005b34801561011857600080fd5b50610133600480360361012e91908101906125e8565b61080b565b005b34801561014157600080fd5b5061015c600480360361015791908101906126be565b610aa2565b005b34801561016a57600080fd5b50610185600480360361018091908101906125e8565b610e20565b6040516101959493929190613002565b60405180910390f35b6101b860048036036101b3919081019061279b565b610fa0565b005b3480156101c657600080fd5b506101e160048036036101dc9190810190612611565b6114e5565b6040516101ee9190612fc5565b60405180910390f35b34801561020357600080fd5b5061021e60048036036102199190810190612723565b6114f6565b005b34801561022c57600080fd5b50610247600480360361024291908101906126be565b611831565b60405161025c999897969594939291906132f5565b60405180910390f35b34801561027157600080fd5b5061028c600480360361028791908101906125e8565b61197e565b6040516102999190612faa565b60405180910390f35b3480156102ae57600080fd5b506102c960048036036102c491908101906126e7565b61199e565b005b3480156102d757600080fd5b506102e0611e14565b6040516102ed9190612f66565b60405180910390f35b34801561030257600080fd5b5061031d60048036036103189190810190612652565b611e39565b005b3373ffffffffffffffffffffffffffffffffffffffff16600260003373ffffffffffffffffffffffffffffffffffffffff1673ffffffffffffffffffffffffffffffffffffffff16815260200190815260200160002060020160009054906101000a900473ffffffffffffffffffffffffffffffffffffffff1673ffffffffffffffffffffffffffffffffffffffff16146103ef576040517f08c379a00000000000000000000000000000000000000000000000000000000081526004016103e6906132b5565b60405180910390fd5b6001805490508110610436576040517f08c379a000000000000000000000000000000000000000000000000000000000815260040161042d90613055565b60405180910390fd5b3373ffffffffffffffffffffffffffffffffffffffff166001828154811061045a57fe5b90600052602060002090600b020160070160009054906101000a900473ffffffffffffffffffffffffffffffffffffffff1673ffffffffffffffffffffffffffffffffffffffff16146104e2576040517f08c379a00000000000000000000000000000000000000000000000000000000081526004016104d9906131f5565b60405180910390fd5b60011515600182815481106104f357fe5b90600052602060002090600b020160090160009054906101000a900460ff16151514610554576040517f08c379a000000000000000000000000000000000000000000000000000000000815260040161054b90613275565b60405180910390fd5b3373ffffffffffffffffffffffffffffffffffffffff166108fc6001838154811061057b57fe5b90600052602060002090600b0201600001549081150290604051600060405180830381858888f193505050501580156105b8573d6000803e3d6000fd5b5060018082815481106105c757fe5b90600052602060002090600b020160090160006101000a81548160ff0219169083151502179055507f66642b3162fab70643d3e58f385200fb1245de066a59dddea017d21bea00d242336001838154811061061e57fe5b90600052602060002090600b02016000015460405161063e929190612f81565b60405180910390a150565b333373ffffffffffffffffffffffffffffffffffffffff16600260008373ffffffffffffffffffffffffffffffffffffffff1673ffffffffffffffffffffffffffffffffffffffff16815260200190815260200160002060020160009054906101000a900473ffffffffffffffffffffffffffffffffffffffff1673ffffffffffffffffffffffffffffffffffffffff16141561071b576040517f08c379a000000000000000000000000000000000000000000000000000000000815260040161071290613075565b60405180910390fd5b3373ffffffffffffffffffffffffffffffffffffffff166001848154811061073f57fe5b90600052602060002090600b020160060160009054906101000a900473ffffffffffffffffffffffffffffffffffffffff1673ffffffffffffffffffffffffffffffffffffffff16146107c7576040517f08c379a00000000000000000000000000000000000000000000000000000000081526004016107be906130d5565b60405180910390fd5b81600184815481106107d557fe5b90600052602060002090600b020160040160006101000a81548160ff0219169083600281111561080157fe5b0217905550505050565b8060001515600360008373ffffffffffffffffffffffffffffffffffffffff1673ffffffffffffffffffffffffffffffffffffffff16815260200190815260200160002060009054906101000a900460ff1615151461089f576040517f08c379a000000000000000000000000000000000000000000000000000000000815260040161089690613235565b60405180910390fd5b3373ffffffffffffffffffffffffffffffffffffffff166000809054906101000a900473ffffffffffffffffffffffffffffffffffffffff1673ffffffffffffffffffffffffffffffffffffffff161461092e576040517f08c379a000000000000000000000000000000000000000000000000000000000815260040161092590613215565b60405180910390fd5b8173ffffffffffffffffffffffffffffffffffffffff16600260008473ffffffffffffffffffffffffffffffffffffffff1673ffffffffffffffffffffffffffffffffffffffff16815260200190815260200160002060020160009054906101000a900473ffffffffffffffffffffffffffffffffffffffff1673ffffffffffffffffffffffffffffffffffffffff16146109fe576040517f08c379a00000000000000000000000000000000000000000000000000000000081526004016109f5906132b5565b60405180910390fd5b6001600360008473ffffffffffffffffffffffffffffffffffffffff1673ffffffffffffffffffffffffffffffffffffffff16815260200190815260200160002060006101000a81548160ff0219169083151502179055506000600260008473ffffffffffffffffffffffffffffffffffffffff1673ffffffffffffffffffffffffffffffffffffffff168152602001908152602001600020600301819055505050565b3373ffffffffffffffffffffffffffffffffffffffff16600260003373ffffffffffffffffffffffffffffffffffffffff1673ffffffffffffffffffffffffffffffffffffffff16815260200190815260200160002060020160009054906101000a900473ffffffffffffffffffffffffffffffffffffffff1673ffffffffffffffffffffffffffffffffffffffff1614610b72576040517f08c379a0000000000000000000000000000000000000000000000000000000008152600401610b69906132b5565b60405180910390fd5b6001805490508110610bb9576040517f08c379a0000000000000000000000000000000000000000000000000000000008152600401610bb090613055565b60405180910390fd5b60006002811115610bc657fe5b60018281548110610bd357fe5b90600052602060002090600b020160040160009054906101000a900460ff166002811115610bfd57fe5b14610c3d576040517f08c379a0000000000000000000000000000000000000000000000000000000008152600401610c3490613115565b60405180910390fd5b60018181548110610c4a57fe5b90600052602060002090600b02016005013390806001815401808255809150509060018203906000526020600020016000909192909190916101000a81548173ffffffffffffffffffffffffffffffffffffffff021916908373ffffffffffffffffffffffffffffffffffffffff16021790555050600260003373ffffffffffffffffffffffffffffffffffffffff1673ffffffffffffffffffffffffffffffffffffffff16815260200190815260200160002060018281548110610d0b57fe5b90600052602060002090600b0201600a0160003373ffffffffffffffffffffffffffffffffffffffff1673ffffffffffffffffffffffffffffffffffffffff16815260200190815260200160002060008201816000019080546001816001161561010002031660029004610d80929190612226565b5060018201816001019080546001816001161561010002031660029004610da8929190612226565b506002820160009054906101000a900473ffffffffffffffffffffffffffffffffffffffff168160020160006101000a81548173ffffffffffffffffffffffffffffffffffffffff021916908373ffffffffffffffffffffffffffffffffffffffff1602179055506003820154816003015590505050565b6002602052806000526040600020600091509050806000018054600181600116156101000203166002900480601f016020809104026020016040519081016040528092919081815260200182805460018160011615610100020316600290048015610ecc5780601f10610ea157610100808354040283529160200191610ecc565b820191906000526020600020905b815481529060010190602001808311610eaf57829003601f168201915b505050505090806001018054600181600116156101000203166002900480601f016020809104026020016040519081016040528092919081815260200182805460018160011615610100020316600290048015610f6a5780601f10610f3f57610100808354040283529160200191610f6a565b820191906000526020600020905b815481529060010190602001808311610f4d57829003601f168201915b5050505050908060020160009054906101000a900473ffffffffffffffffffffffffffffffffffffffff16908060030154905084565b60008511610fe3576040517f08c379a0000000000000000000000000000000000000000000000000000000008152600401610fda906132d5565b60405180910390fd5b3373ffffffffffffffffffffffffffffffffffffffff16600260003373ffffffffffffffffffffffffffffffffffffffff1673ffffffffffffffffffffffffffffffffffffffff16815260200190815260200160002060020160009054906101000a900473ffffffffffffffffffffffffffffffffffffffff1673ffffffffffffffffffffffffffffffffffffffff16146110b3576040517f08c379a00000000000000000000000000000000000000000000000000000000081526004016110aa906131b5565b60405180910390fd5b600084116110f6576040517f08c379a00000000000000000000000000000000000000000000000000000000081526004016110ed90613195565b60405180910390fd5b61112f61112060646111126002896120b690919063ffffffff16565b61212690919063ffffffff16565b8661217090919063ffffffff16565b341015611171576040517f08c379a000000000000000000000000000000000000000000000000000000000815260040161116890613175565b60405180910390fd5b60008351116111b5576040517f08c379a00000000000000000000000000000000000000000000000000000000081526004016111ac90613095565b60405180910390fd5b600060028111156111c257fe5b8260028111156111ce57fe5b14806111ef57506002808111156111e157fe5b8260028111156111ed57fe5b145b61122e576040517f08c379a000000000000000000000000000000000000000000000000000000000815260040161122590613135565b60405180910390fd5b60008111611271576040517f08c379a0000000000000000000000000000000000000000000000000000000008152600401611268906130b5565b60405180910390fd5b6112796122ad565b858160000181815250508481602001818152505083816060018190525082816080019060028111156112a757fe5b908160028111156112b457fe5b8152505081816040018181525050338160c0019073ffffffffffffffffffffffffffffffffffffffff16908173ffffffffffffffffffffffffffffffffffffffff16815250506001819080600181540180825580915050906001820390600052602060002090600b020160009091929091909150600082015181600001556020820151816001015560408201518160020155606082015181600301908051906020019061136292919061233c565b5060808201518160040160006101000a81548160ff0219169083600281111561138757fe5b021790555060a08201518160050190805190602001906113a89291906123bc565b5060c08201518160060160006101000a81548173ffffffffffffffffffffffffffffffffffffffff021916908373ffffffffffffffffffffffffffffffffffffffff16021790555060e08201518160070160006101000a81548173ffffffffffffffffffffffffffffffffffffffff021916908373ffffffffffffffffffffffffffffffffffffffff16021790555061010082015181600801556101208201518160090160006101000a81548160ff02191690831515021790555050505060006114a1611492606461148460028b6120b690919063ffffffff16565b61212690919063ffffffff16565b8861217090919063ffffffff16565b90507fcb4440121070d175d800daa9555803591dee6e1bf0f37b959c81df69eae4552933826040516114d4929190612f81565b60405180910390a150505050505050565b600081805190602001209050919050565b3373ffffffffffffffffffffffffffffffffffffffff16600260003373ffffffffffffffffffffffffffffffffffffffff1673ffffffffffffffffffffffffffffffffffffffff16815260200190815260200160002060020160009054906101000a900473ffffffffffffffffffffffffffffffffffffffff1673ffffffffffffffffffffffffffffffffffffffff16146115c6576040517f08c379a00000000000000000000000000000000000000000000000000000000081526004016115bd906132b5565b60405180910390fd5b600180549050821061160d576040517f08c379a000000000000000000000000000000000000000000000000000000000815260040161160490613055565b60405180910390fd5b3373ffffffffffffffffffffffffffffffffffffffff166001838154811061163157fe5b90600052602060002090600b020160070160009054906101000a900473ffffffffffffffffffffffffffffffffffffffff1673ffffffffffffffffffffffffffffffffffffffff16146116b9576040517f08c379a00000000000000000000000000000000000000000000000000000000081526004016116b0906131f5565b60405180910390fd5b600160028111156116c657fe5b600183815481106116d357fe5b90600052602060002090600b020160040160009054906101000a900460ff1660028111156116fd57fe5b1461173d576040517f08c379a000000000000000000000000000000000000000000000000000000000815260040161173490613155565b60405180910390fd5b806001838154811061174b57fe5b90600052602060002090600b02016008018190555060026001838154811061176f57fe5b90600052602060002090600b020160040160006101000a81548160ff0219169083600281111561179b57fe5b02179055506117f66001600260003373ffffffffffffffffffffffffffffffffffffffff1673ffffffffffffffffffffffffffffffffffffffff1681526020019081526020016000206003015461217090919063ffffffff16565b50600180838154811061180557fe5b90600052602060002090600b020160090160006101000a81548160ff0219169083151502179055505050565b6001818154811061183e57fe5b90600052602060002090600b0201600091509050806000015490806001015490806002015490806003018054600181600116156101000203166002900480601f0160208091040260200160405190810160405280929190818152602001828054600181600116156101000203166002900480156118fc5780601f106118d1576101008083540402835291602001916118fc565b820191906000526020600020905b8154815290600101906020018083116118df57829003601f168201915b5050505050908060040160009054906101000a900460ff16908060060160009054906101000a900473ffffffffffffffffffffffffffffffffffffffff16908060070160009054906101000a900473ffffffffffffffffffffffffffffffffffffffff16908060080154908060090160009054906101000a900460ff16905089565b60036020528060005260406000206000915054906101000a900460ff1681565b3373ffffffffffffffffffffffffffffffffffffffff16600260003373ffffffffffffffffffffffffffffffffffffffff1673ffffffffffffffffffffffffffffffffffffffff16815260200190815260200160002060020160009054906101000a900473ffffffffffffffffffffffffffffffffffffffff1673ffffffffffffffffffffffffffffffffffffffff1614611a6e576040517f08c379a0000000000000000000000000000000000000000000000000000000008152600401611a65906132b5565b60405180910390fd5b8073ffffffffffffffffffffffffffffffffffffffff16600260008373ffffffffffffffffffffffffffffffffffffffff1673ffffffffffffffffffffffffffffffffffffffff16815260200190815260200160002060020160009054906101000a900473ffffffffffffffffffffffffffffffffffffffff1673ffffffffffffffffffffffffffffffffffffffff1614611b3e576040517f08c379a0000000000000000000000000000000000000000000000000000000008152600401611b35906132b5565b60405180910390fd5b6001805490508210611b85576040517f08c379a0000000000000000000000000000000000000000000000000000000008152600401611b7c90613055565b60405180910390fd5b3373ffffffffffffffffffffffffffffffffffffffff1660018381548110611ba957fe5b90600052602060002090600b020160060160009054906101000a900473ffffffffffffffffffffffffffffffffffffffff1673ffffffffffffffffffffffffffffffffffffffff1614611c31576040517f08c379a0000000000000000000000000000000000000000000000000000000008152600401611c2890613295565b60405180910390fd5b60006002811115611c3e57fe5b60018381548110611c4b57fe5b90600052602060002090600b020160040160009054906101000a900460ff166002811115611c7557fe5b14611cb5576040517f08c379a0000000000000000000000000000000000000000000000000000000008152600401611cac90613115565b60405180910390fd5b60018281548110611cc257fe5b90600052602060002090600b0201600a0160008273ffffffffffffffffffffffffffffffffffffffff1673ffffffffffffffffffffffffffffffffffffffff1681526020019081526020016000206003015460018381548110611d2157fe5b90600052602060002090600b0201600201541115611d74576040517f08c379a0000000000000000000000000000000000000000000000000000000008152600401611d6b906131d5565b60405180910390fd5b8060018381548110611d8257fe5b90600052602060002090600b020160070160006101000a81548173ffffffffffffffffffffffffffffffffffffffff021916908373ffffffffffffffffffffffffffffffffffffffff1602179055506001808381548110611ddf57fe5b90600052602060002090600b020160040160006101000a81548160ff02191690836002811115611e0b57fe5b02179055505050565b6000809054906101000a900473ffffffffffffffffffffffffffffffffffffffff1681565b333373ffffffffffffffffffffffffffffffffffffffff16600260008373ffffffffffffffffffffffffffffffffffffffff1673ffffffffffffffffffffffffffffffffffffffff16815260200190815260200160002060020160009054906101000a900473ffffffffffffffffffffffffffffffffffffffff1673ffffffffffffffffffffffffffffffffffffffff161415611f0b576040517f08c379a0000000000000000000000000000000000000000000000000000000008152600401611f0290613075565b60405180910390fd5b3360001515600360008373ffffffffffffffffffffffffffffffffffffffff1673ffffffffffffffffffffffffffffffffffffffff16815260200190815260200160002060009054906101000a900460ff16151514611f9f576040517f08c379a0000000000000000000000000000000000000000000000000000000008152600401611f9690613235565b60405180910390fd5b611fa7612446565b60405180608001604052808681526020018581526020013373ffffffffffffffffffffffffffffffffffffffff1681526020016001815250905080600260003373ffffffffffffffffffffffffffffffffffffffff1673ffffffffffffffffffffffffffffffffffffffff168152602001908152602001600020600082015181600001908051906020019061203d92919061233c565b50602082015181600101908051906020019061205a92919061233c565b5060408201518160020160006101000a81548173ffffffffffffffffffffffffffffffffffffffff021916908373ffffffffffffffffffffffffffffffffffffffff160217905550606082015181600301559050505050505050565b6000808314156120c95760009050612120565b60008284029050828482816120da57fe5b041461211b576040517f08c379a000000000000000000000000000000000000000000000000000000000815260040161211290613255565b60405180910390fd5b809150505b92915050565b600061216883836040518060400160405280601a81526020017f536166654d6174683a206469766973696f6e206279207a65726f0000000000008152506121c5565b905092915050565b6000808284019050838110156121bb576040517f08c379a00000000000000000000000000000000000000000000000000000000081526004016121b2906130f5565b60405180910390fd5b8091505092915050565b6000808311829061220c576040517f08c379a00000000000000000000000000000000000000000000000000000000081526004016122039190612fe0565b60405180910390fd5b50600083858161221857fe5b049050809150509392505050565b828054600181600116156101000203166002900490600052602060002090601f016020900481019282601f1061225f578054855561229c565b8280016001018555821561229c57600052602060002091601f016020900482015b8281111561229b578254825591600101919060010190612280565b5b5090506122a99190612484565b5090565b60405180610140016040528060008152602001600081526020016000815260200160608152602001600060028111156122e257fe5b815260200160608152602001600073ffffffffffffffffffffffffffffffffffffffff168152602001600073ffffffffffffffffffffffffffffffffffffffff168152602001600080191681526020016000151581525090565b828054600181600116156101000203166002900490600052602060002090601f016020900481019282601f1061237d57805160ff19168380011785556123ab565b828001600101855582156123ab579182015b828111156123aa57825182559160200191906001019061238f565b5b5090506123b89190612484565b5090565b828054828255906000526020600020908101928215612435579160200282015b828111156124345782518260006101000a81548173ffffffffffffffffffffffffffffffffffffffff021916908373ffffffffffffffffffffffffffffffffffffffff160217905550916020019190600101906123dc565b5b50905061244291906124a9565b5090565b60405180608001604052806060815260200160608152602001600073ffffffffffffffffffffffffffffffffffffffff168152602001600081525090565b6124a691905b808211156124a257600081600090555060010161248a565b5090565b90565b6124e991905b808211156124e557600081816101000a81549073ffffffffffffffffffffffffffffffffffffffff0219169055506001016124af565b5090565b90565b6000813590506124fb81613542565b92915050565b60008135905061251081613559565b92915050565b600082601f83011261252757600080fd5b813561253a612535826133b6565b613389565b9150808252602083016020830185838301111561255657600080fd5b6125618382846134e2565b50505092915050565b60008135905061257981613570565b92915050565b600082601f83011261259057600080fd5b81356125a361259e826133e2565b613389565b915080825260208301602083018583830111156125bf57600080fd5b6125ca8382846134e2565b50505092915050565b6000813590506125e281613580565b92915050565b6000602082840312156125fa57600080fd5b6000612608848285016124ec565b91505092915050565b60006020828403121561262357600080fd5b600082013567ffffffffffffffff81111561263d57600080fd5b61264984828501612516565b91505092915050565b6000806040838503121561266557600080fd5b600083013567ffffffffffffffff81111561267f57600080fd5b61268b8582860161257f565b925050602083013567ffffffffffffffff8111156126a857600080fd5b6126b48582860161257f565b9150509250929050565b6000602082840312156126d057600080fd5b60006126de848285016125d3565b91505092915050565b600080604083850312156126fa57600080fd5b6000612708858286016125d3565b9250506020612719858286016124ec565b9150509250929050565b6000806040838503121561273657600080fd5b6000612744858286016125d3565b925050602061275585828601612501565b9150509250929050565b6000806040838503121561277257600080fd5b6000612780858286016125d3565b92505060206127918582860161256a565b9150509250929050565b600080600080600060a086880312156127b357600080fd5b60006127c1888289016125d3565b95505060206127d2888289016125d3565b945050604086013567ffffffffffffffff8111156127ef57600080fd5b6127fb8882890161257f565b935050606061280c8882890161256a565b925050608061281d888289016125d3565b9150509295509295909350565b6128338161349a565b82525050565b61284281613435565b82525050565b61285181613447565b82525050565b61286081613453565b82525050565b61286f816134ac565b82525050565b600061288082613419565b61288a8185613424565b935061289a8185602086016134f1565b6128a381613524565b840191505092915050565b60006128b98261340e565b6128c38185613424565b93506128d38185602086016134f1565b6128dc81613524565b840191505092915050565b60006128f4601883613424565b91507f6c612064656d616e646573206e276578697374652070617300000000000000006000830152602082019050919050565b6000612934601983613424565b91507f5574696c697361746575722064c3a96a6120696e7363726974000000000000006000830152602082019050919050565b6000612974602283613424565b91507f496c206661757420756e65206465736372697074696f6e20646573207461636860008301527f65730000000000000000000000000000000000000000000000000000000000006020830152604082019050919050565b60006129da602483613424565b91507f6c612072657075746174696f6e206d696e696d616c6520646f6974206574726560008301527f203e2030000000000000000000000000000000000000000000000000000000006020830152604082019050919050565b6000612a40602983613424565b91507f766f7573206e276574657320706173206c65206372656174657572206465206c60008301527f612064656d616e646500000000000000000000000000000000000000000000006020830152604082019050919050565b6000612aa6601b83613424565b91507f536166654d6174683a206164646974696f6e206f766572666c6f7700000000006000830152602082019050919050565b6000612ae6601c83613424565b91507f6c612064656d616e6465206e2765737420706173206f757665727465000000006000830152602082019050919050565b6000612b26602183613424565b91507f6c2765746174206465206c612044656d616e64652065737420696e646566696e60008301527f69000000000000000000000000000000000000000000000000000000000000006020830152604082019050919050565b6000612b8c601d83613424565b91507f6c612064656d616e6465206e276573742070617320656e20636f7572730000006000830152602082019050919050565b6000612bcc601f83613424565b91507f6d73672e76616c7565203a206e276573742070617320737566666973616e74006000830152602082019050919050565b6000612c0c601583613424565b91507f696c206661757420756e2064656c616973203e203000000000000000000000006000830152602082019050919050565b6000612c4c601d83613424565b91507f7574696c69736174657572206e276573742070617320696e73637269740000006000830152602082019050919050565b6000612c8c602483613424565b91507f63652070726f66696c65206e652070657578207061732065747265206163636560008301527f7074c3a9000000000000000000000000000000000000000000000000000000006020830152604082019050919050565b6000612cf2603783613424565b91507f766f7573206e276574657320706173206c652063616e6469646174206163636560008301527f7074c3a920706f75722063657474652064656d616e64650000000000000000006020830152604082019050919050565b6000612d58601f83613424565b91507f566f7573206e27c3aa746573207061732061646d696e697374726174657572006000830152602082019050919050565b6000612d98600c83613424565b91507f64c3a96a612062616e6e696500000000000000000000000000000000000000006000830152602082019050919050565b6000612dd8602183613424565b91507f536166654d6174683a206d756c7469706c69636174696f6e206f766572666c6f60008301527f77000000000000000000000000000000000000000000000000000000000000006020830152604082019050919050565b6000612e3e601c83613424565b91507f5061796d656e742070617320656e636f7265206175746f726973c3a9000000006000830152602082019050919050565b6000612e7e602a83613424565b91507f766f7573206e276574657320706173206c6520746974756c616972652064652060008301527f6c612064656d616e6465000000000000000000000000000000000000000000006020830152604082019050919050565b6000612ee4601183613424565b91507f6e276573742070617320696e73637269740000000000000000000000000000006000830152602082019050919050565b6000612f24601c83613424565b91507f496c206661757420756e652072656e756d65726174696f6e203e2030000000006000830152602082019050919050565b612f6081613490565b82525050565b6000602082019050612f7b6000830184612839565b92915050565b6000604082019050612f96600083018561282a565b612fa36020830184612f57565b9392505050565b6000602082019050612fbf6000830184612848565b92915050565b6000602082019050612fda6000830184612857565b92915050565b60006020820190508181036000830152612ffa8184612875565b905092915050565b6000608082019050818103600083015261301c81876128ae565b9050818103602083015261303081866128ae565b905061303f6040830185612839565b61304c6060830184612f57565b95945050505050565b6000602082019050818103600083015261306e816128e7565b9050919050565b6000602082019050818103600083015261308e81612927565b9050919050565b600060208201905081810360008301526130ae81612967565b9050919050565b600060208201905081810360008301526130ce816129cd565b9050919050565b600060208201905081810360008301526130ee81612a33565b9050919050565b6000602082019050818103600083015261310e81612a99565b9050919050565b6000602082019050818103600083015261312e81612ad9565b9050919050565b6000602082019050818103600083015261314e81612b19565b9050919050565b6000602082019050818103600083015261316e81612b7f565b9050919050565b6000602082019050818103600083015261318e81612bbf565b9050919050565b600060208201905081810360008301526131ae81612bff565b9050919050565b600060208201905081810360008301526131ce81612c3f565b9050919050565b600060208201905081810360008301526131ee81612c7f565b9050919050565b6000602082019050818103600083015261320e81612ce5565b9050919050565b6000602082019050818103600083015261322e81612d4b565b9050919050565b6000602082019050818103600083015261324e81612d8b565b9050919050565b6000602082019050818103600083015261326e81612dcb565b9050919050565b6000602082019050818103600083015261328e81612e31565b9050919050565b600060208201905081810360008301526132ae81612e71565b9050919050565b600060208201905081810360008301526132ce81612ed7565b9050919050565b600060208201905081810360008301526132ee81612f17565b9050919050565b60006101208201905061330b600083018c612f57565b613318602083018b612f57565b613325604083018a612f57565b818103606083015261333781896128ae565b90506133466080830188612866565b61335360a0830187612839565b61336060c0830186612839565b61336d60e0830185612857565b61337b610100830184612848565b9a9950505050505050505050565b6000604051905081810181811067ffffffffffffffff821117156133ac57600080fd5b8060405250919050565b600067ffffffffffffffff8211156133cd57600080fd5b601f19601f8301169050602081019050919050565b600067ffffffffffffffff8211156133f957600080fd5b601f19601f8301169050602081019050919050565b600081519050919050565b600081519050919050565b600082825260208201905092915050565b600061344082613470565b9050919050565b60008115159050919050565b6000819050919050565b600081905061346b82613535565b919050565b600073ffffffffffffffffffffffffffffffffffffffff82169050919050565b6000819050919050565b60006134a5826134be565b9050919050565b60006134b78261345d565b9050919050565b60006134c9826134d0565b9050919050565b60006134db82613470565b9050919050565b82818337600083830152505050565b60005b8381101561350f5780820151818401526020810190506134f4565b8381111561351e576000848401525b50505050565b6000601f19601f8301169050919050565b6003811061353f57fe5b50565b61354b81613435565b811461355657600080fd5b50565b61356281613453565b811461356d57600080fd5b50565b6003811061357d57600080fd5b50565b61358981613490565b811461359457600080fd5b5056fea365627a7a72315820ac67bf51bd61a29e2fc0357e7dcd6b8f800f9b330b7799cf2fc5329b942904b06c6578706572696d656e74616cf564736f6c63430005100040",
  "source": "pragma solidity 0.5.16;\r\n\r\npragma experimental ABIEncoderV2;\r\n\r\nimport \"@openzeppelin/contracts/math/SafeMath.sol\";\r\n/// @title Dfi #2: Place de march dillustrateurs indpendants\r\n/// @author Ines Khoufi\r\n/// @notice Ce contrat assure les fonctionalits suivantes: Mcanisme de rputation, Liste de demandes, Mcanisme de contractualisation\r\n/// @dev Des fonctions basiques\r\n\r\ncontract Defi2 {\r\n    using SafeMath for uint;\r\n    address public admin;\r\n    enum etatDemande {OUVERTE, ENCOURS, FERMER}\r\n    Demande[] public demandes;\r\n    mapping (address => Utilisateur) public utilisateur;\r\n    mapping (address => bool) public bannies;\r\n\r\n    struct Utilisateur {\r\n        string nom;\r\n        string prenom;\r\n        address adr;\r\n        uint reputation;\r\n    }\r\n    struct Demande {\r\n        uint renumeration;\r\n        uint delais;\r\n        uint minReputation;\r\n        string decrireTache;\r\n        etatDemande etat;\r\n        address[] candidatsAddress;\r\n        address entrepriseAddress;\r\n        address candidatAccepte;\r\n        bytes32 linkDepot;\r\n        bool autorisePayment;\r\n        mapping(address => Utilisateur) candidats;\r\n    }\r\n    modifier estInscrit(address _address){\r\n        require(utilisateur[_address].adr != msg.sender, \"Utilisateur dja inscrit\");\r\n        _;\r\n    }\r\n    modifier estAdmin(){\r\n        require(admin == msg.sender, \"Vous n'tes pas administrateur\");\r\n        _;\r\n    }\r\n    modifier nEstPasBannie(address _address){\r\n        require(bannies[_address] == false, \"dja bannie\");\r\n        _;\r\n    }\r\n    /*\r\n     *Event ajouter demande\r\n     *address du demandeur\r\n     *valeur a payer\r\n    */\r\n    event eventAjouterDemande(address demandeur, uint val);\r\n    /*\r\n     *Event candidat pay\r\n     *address du candidat\r\n     *renumeration\r\n    */\r\n    event eventCandidatPaye(address candidat, uint val);\r\n\r\n    constructor() public {\r\n        admin = msg.sender;\r\n    }\r\n\r\n    /// @notice Cette fonction d'inscrire un utilisateur\r\n    /// @param _nom le nom de l'utilisateur\r\n    /// @param _prenom le prenom de l'utilisateur\r\n\r\n    function inscription(string memory _nom, string memory _prenom) public estInscrit(msg.sender)\r\n    nEstPasBannie(msg.sender){\r\n        Utilisateur memory user = Utilisateur(_nom, _prenom, msg.sender, 1);\r\n        utilisateur[msg.sender] = user;\r\n    }\r\n\r\n    ///@notice Cette fonction permet a l'Administrateur de Bannir un utilisateur\r\n    ///@param _address addresse de l'utilisateur qui va etre bannie\r\n\r\n    function bannie (address _address) public  nEstPasBannie(_address) estAdmin  {\r\n        require (utilisateur[_address].adr == _address, \"n'est pas inscrit\");\r\n        bannies[_address] = true;\r\n        utilisateur[_address].reputation = 0;\r\n    }\r\n\r\n    /// @notice Cette fonction permet d'ajouter une demande d'offre d'emploi\r\n    /// @param _renumeration Renumeration propose\r\n    /// @param _delais delais de la demande\r\n    /// @param _decrireTache decription de l'offre\r\n    /// @param _etat etat de la demande (Ouverte,encours,ferm)\r\n    /// @param _minReputation la reputation minimale necessaire pour postuler  l'offre\r\n\r\n    function ajouterDemande(uint _renumeration, uint _delais, string memory _decrireTache, etatDemande _etat,\r\n    uint _minReputation) public payable {\r\n      require(_renumeration > 0, \"Il faut une renumeration > 0\");\r\n      require(utilisateur[msg.sender].adr == msg.sender, \"utilisateur n'est pas inscrit\");\r\n      require(_delais > 0, \"il faut un delais > 0\");\r\n      require(msg.value >= _renumeration.add(_renumeration.mul(2).div(100)), \"msg.value : n'est pas suffisant\");\r\n      require(bytes(_decrireTache).length > 0, \"Il faut une description des taches\");\r\n      require(_etat == etatDemande.OUVERTE || _etat == etatDemande.FERMER, \"l'etat de la Demande est indefini\");\r\n      require(_minReputation > 0, \"la reputation minimale doit etre > 0\");\r\n      Demande memory dem;\r\n      dem.renumeration = _renumeration;\r\n      dem.delais = _delais;\r\n      dem.decrireTache = _decrireTache;\r\n      dem.etat = _etat;\r\n      dem.minReputation = _minReputation;\r\n      dem.entrepriseAddress = msg.sender;\r\n      demandes.push(dem);\r\n      uint val = _renumeration.add(_renumeration.mul(2).div(100));\r\n      emit eventAjouterDemande(msg.sender, val);\r\n    }\r\n\r\n    /// @notice Cette fonction permet a un utilisateur (createur de la demande) de changer l'etat de la demande\r\n    /// @param _indiceDemande indice de la demande\r\n    /// @param _etat etat de la demande (Ouverte,encours,ferm)\r\n\r\n    function changerEtatDemande(uint _indiceDemande, etatDemande _etat) public estInscrit(msg.sender) {\r\n        require(demandes[_indiceDemande].entrepriseAddress == msg.sender, \"vous n'etes pas le createur de la demande\");\r\n        demandes[_indiceDemande].etat = _etat;\r\n    }\r\n\r\n    /// @notice Cette fonction permet a un utilisateur (candidat) de postuler  une demande (offre)\r\n    /// @param _indiceDemande indice de la demande\r\n\r\n    function postuler(uint _indiceDemande) public {\r\n      require (utilisateur[msg.sender].adr == msg.sender, \"n'est pas inscrit\");\r\n      require(_indiceDemande < demandes.length, \"la demandes n'existe pas\");\r\n      require(demandes[_indiceDemande].etat == etatDemande.OUVERTE, \"la demande n'est pas ouverte\");\r\n      demandes[_indiceDemande].candidatsAddress.push(msg.sender);\r\n      demandes[_indiceDemande].candidats[msg.sender] = utilisateur[msg.sender];\r\n    }\r\n\r\n    /// @notice Cette fonction permet a un utilisateur (representant de l'entreprise) d'accepter une candidature\r\n    /// @param _indiceDemande indice de la demande\r\n    /// @param _candidatAccepte l'adresse du candidat accept\r\n\r\n    function accepterOffre(uint _indiceDemande,address _candidatAccepte) public {\r\n        require (utilisateur[msg.sender].adr == msg.sender, \"n'est pas inscrit\");\r\n        require (utilisateur[_candidatAccepte].adr == _candidatAccepte, \"n'est pas inscrit\");\r\n        require(_indiceDemande < demandes.length, \"la demandes n'existe pas\");\r\n        require(demandes[_indiceDemande].entrepriseAddress == msg.sender, \"vous n'etes pas le titulaire de la demande\");\r\n        require(demandes[_indiceDemande].etat == etatDemande.OUVERTE, \"la demande n'est pas ouverte\");\r\n        require(demandes[_indiceDemande].minReputation <= demandes[_indiceDemande].candidats[_candidatAccepte].reputation,\r\n         \"ce profile ne peux pas etre accept\");\r\n        demandes[_indiceDemande].candidatAccepte = _candidatAccepte;\r\n        demandes[_indiceDemande].etat = etatDemande.ENCOURS;\r\n    }\r\n\r\n    /// @notice Cette fonction calcule un hash avec la fonction keccak256\r\n    /// @param _link le lien du depo github\r\n    /// @return le hash du lien\r\n\r\n    function hashDepot(bytes  memory _link) public pure returns (bytes32) {\r\n        return keccak256(_link);\r\n    }\r\n\r\n    /// @notice Cette fonction calcule un hash avec la fonction keccak256\r\n    /// @param _indiceDemande l'indice de la demande\r\n    /// @param _linkDepot le hash du lien du depo github\r\n    /// @return le hash du lien\r\n\r\n    function livraison(uint _indiceDemande, bytes32 _linkDepot) public {\r\n        require (utilisateur[msg.sender].adr == msg.sender, \"n'est pas inscrit\");\r\n        require(_indiceDemande < demandes.length, \"la demandes n'existe pas\");\r\n        require(demandes[_indiceDemande].candidatAccepte == msg.sender, \"vous n'etes pas le candidat accept pour cette demande\");\r\n        require(demandes[_indiceDemande].etat == etatDemande.ENCOURS, \"la demande n'est pas en cours\");\r\n        demandes[_indiceDemande].linkDepot = _linkDepot;\r\n        demandes[_indiceDemande].etat = etatDemande.FERMER;\r\n        utilisateur[msg.sender].reputation.add(1);\r\n        demandes[_indiceDemande].autorisePayment = true;\r\n    }\r\n\r\n    /// @notice Cette fonction permet de payer un uilisateur (candidat accept)\r\n    /// @param _indiceDemande indice de la demande\r\n\r\n    function renumeration(uint _indiceDemande) public  payable {\r\n        require (utilisateur[msg.sender].adr == msg.sender, \"n'est pas inscrit\");\r\n        require(_indiceDemande < demandes.length, \"la demandes n'existe pas\");\r\n        require(demandes[_indiceDemande].candidatAccepte == msg.sender, \"vous n'etes pas le candidat accept pour cette demande\");\r\n        require(demandes[_indiceDemande].autorisePayment == true, \"Payment pas encore autoris\");\r\n        msg.sender.transfer(demandes[_indiceDemande].renumeration);\r\n        demandes[_indiceDemande].autorisePayment = true;\r\n        emit eventCandidatPaye(msg.sender,demandes[_indiceDemande].renumeration);\r\n    }\r\n}",
  "sourcePath": "C:\\Users\\inesk\\Documents\\Work\\Alyra\\Git\\semaine5\\Defi2WithTruffle\\contracts\\Defi2.sol",
  "compiler": {
    "name": "solc",
    "version": "0.5.16+commit.9c3226ce.Emscripten.clang"
  },
  "schemaVersion": "3.0.23",
  "updatedAt": "2020-02-27T14:30:43.301Z",
  "devdoc": {
    "author": "Ines Khoufi",
    "details": "Des fonctions basiques",
    "methods": {
      "accepterOffre(uint256,address)": {
        "params": {
          "_candidatAccepte": "l'adresse du candidat accept",
          "_indiceDemande": "indice de la demande"
        }
      },
      "ajouterDemande(uint256,uint256,string,uint8,uint256)": {
        "params": {
          "_decrireTache": "decription de l'offre",
          "_delais": "delais de la demande",
          "_etat": "etat de la demande (Ouverte,encours,ferm)",
          "_minReputation": "la reputation minimale necessaire pour postuler  l'offre",
          "_renumeration": "Renumeration propose"
        }
      },
      "bannie(address)": {
        "params": {
          "_address": "addresse de l'utilisateur qui va etre bannie"
        }
      },
      "changerEtatDemande(uint256,uint8)": {
        "params": {
          "_etat": "etat de la demande (Ouverte,encours,ferm)",
          "_indiceDemande": "indice de la demande"
        }
      },
      "hashDepot(bytes)": {
        "params": {
          "_link": "le lien du depo github"
        },
        "return": "le hash du lien"
      },
      "inscription(string,string)": {
        "params": {
          "_nom": "le nom de l'utilisateur",
          "_prenom": "le prenom de l'utilisateur"
        }
      },
      "livraison(uint256,bytes32)": {
        "params": {
          "_indiceDemande": "l'indice de la demande",
          "_linkDepot": "le hash du lien du depo github"
        },
        "return": "le hash du lien"
      },
      "postuler(uint256)": {
        "params": {
          "_indiceDemande": "indice de la demande"
        }
      },
      "renumeration(uint256)": {
        "params": {
          "_indiceDemande": "indice de la demande"
        }
      }
    },
    "title": "Dfi #2: Place de march dillustrateurs indpendants"
  },
  "userdoc": {
    "methods": {
      "accepterOffre(uint256,address)": {
        "notice": "Cette fonction permet a un utilisateur (representant de l'entreprise) d'accepter une candidature"
      },
      "ajouterDemande(uint256,uint256,string,uint8,uint256)": {
        "notice": "Cette fonction permet d'ajouter une demande d'offre d'emploi"
      },
      "bannie(address)": {
        "notice": "Cette fonction permet a l'Administrateur de Bannir un utilisateur"
      },
      "changerEtatDemande(uint256,uint8)": {
        "notice": "Cette fonction permet a un utilisateur (createur de la demande) de changer l'etat de la demande"
      },
      "hashDepot(bytes)": {
        "notice": "Cette fonction calcule un hash avec la fonction keccak256"
      },
      "inscription(string,string)": {
        "notice": "Cette fonction d'inscrire un utilisateur"
      },
      "livraison(uint256,bytes32)": {
        "notice": "Cette fonction calcule un hash avec la fonction keccak256"
      },
      "postuler(uint256)": {
        "notice": "Cette fonction permet a un utilisateur (candidat) de postuler  une demande (offre)"
      },
      "renumeration(uint256)": {
        "notice": "Cette fonction permet de payer un uilisateur (candidat accept)"
      }
    },
    "notice": "Ce contrat assure les fonctionalits suivantes: Mcanisme de rputation, Liste de demandes, Mcanisme de contractualisation"
  }
}