{
  "contractName": "Defi2",
  "abi": [
    {
      "inputs": [],
      "payable": false,
      "stateMutability": "nonpayable",
      "type": "constructor"
    },
    {
      "anonymous": false,
      "inputs": [
        {
          "indexed": false,
          "internalType": "address",
          "name": "demandeur",
          "type": "address"
        },
        {
          "indexed": false,
          "internalType": "uint256",
          "name": "val",
          "type": "uint256"
        }
      ],
      "name": "eventAjouterDemande",
      "type": "event"
    },
    {
      "anonymous": false,
      "inputs": [
        {
          "indexed": false,
          "internalType": "address",
          "name": "candidat",
          "type": "address"
        },
        {
          "indexed": false,
          "internalType": "uint256",
          "name": "val",
          "type": "uint256"
        }
      ],
      "name": "eventCandidatPaye",
      "type": "event"
    },
    {
      "constant": true,
      "inputs": [
        {
          "internalType": "address",
          "name": "",
          "type": "address"
        }
      ],
      "name": "bannies",
      "outputs": [
        {
          "internalType": "bool",
          "name": "",
          "type": "bool"
        }
      ],
      "payable": false,
      "stateMutability": "view",
      "type": "function"
    },
    {
      "constant": true,
      "inputs": [
        {
          "internalType": "uint256",
          "name": "",
          "type": "uint256"
        }
      ],
      "name": "demandes",
      "outputs": [
        {
          "internalType": "uint256",
          "name": "renumeration",
          "type": "uint256"
        },
        {
          "internalType": "uint256",
          "name": "delais",
          "type": "uint256"
        },
        {
          "internalType": "uint256",
          "name": "minReputation",
          "type": "uint256"
        },
        {
          "internalType": "string",
          "name": "decrireTache",
          "type": "string"
        },
        {
          "internalType": "enum Defi2.etatDemande",
          "name": "etat",
          "type": "uint8"
        },
        {
          "internalType": "address",
          "name": "entrepriseAddress",
          "type": "address"
        },
        {
          "internalType": "address",
          "name": "candidatAccepte",
          "type": "address"
        },
        {
          "internalType": "bytes32",
          "name": "linkDepot",
          "type": "bytes32"
        },
        {
          "internalType": "bool",
          "name": "autorisePayment",
          "type": "bool"
        }
      ],
      "payable": false,
      "stateMutability": "view",
      "type": "function"
    },
    {
      "constant": true,
      "inputs": [
        {
          "internalType": "address",
          "name": "",
          "type": "address"
        }
      ],
      "name": "utilisateur",
      "outputs": [
        {
          "internalType": "string",
          "name": "nom",
          "type": "string"
        },
        {
          "internalType": "string",
          "name": "prenom",
          "type": "string"
        },
        {
          "internalType": "address",
          "name": "adr",
          "type": "address"
        },
        {
          "internalType": "uint256",
          "name": "reputation",
          "type": "uint256"
        }
      ],
      "payable": false,
      "stateMutability": "view",
      "type": "function"
    },
    {
      "constant": false,
      "inputs": [
        {
          "internalType": "string",
          "name": "_nom",
          "type": "string"
        },
        {
          "internalType": "string",
          "name": "_prenom",
          "type": "string"
        }
      ],
      "name": "inscription",
      "outputs": [],
      "payable": false,
      "stateMutability": "nonpayable",
      "type": "function"
    },
    {
      "constant": false,
      "inputs": [
        {
          "internalType": "address",
          "name": "_address",
          "type": "address"
        }
      ],
      "name": "bannie",
      "outputs": [],
      "payable": false,
      "stateMutability": "nonpayable",
      "type": "function"
    },
    {
      "constant": false,
      "inputs": [
        {
          "internalType": "uint256",
          "name": "_renumeration",
          "type": "uint256"
        },
        {
          "internalType": "uint256",
          "name": "_delais",
          "type": "uint256"
        },
        {
          "internalType": "string",
          "name": "_decrireTache",
          "type": "string"
        },
        {
          "internalType": "enum Defi2.etatDemande",
          "name": "_etat",
          "type": "uint8"
        },
        {
          "internalType": "uint256",
          "name": "_minReputation",
          "type": "uint256"
        }
      ],
      "name": "ajouterDemande",
      "outputs": [],
      "payable": true,
      "stateMutability": "payable",
      "type": "function"
    },
    {
      "constant": false,
      "inputs": [
        {
          "internalType": "uint256",
          "name": "_indiceDemande",
          "type": "uint256"
        },
        {
          "internalType": "enum Defi2.etatDemande",
          "name": "_etat",
          "type": "uint8"
        }
      ],
      "name": "changerEtatDemande",
      "outputs": [],
      "payable": false,
      "stateMutability": "nonpayable",
      "type": "function"
    },
    {
      "constant": false,
      "inputs": [
        {
          "internalType": "uint256",
          "name": "_indiceDemande",
          "type": "uint256"
        }
      ],
      "name": "postuler",
      "outputs": [],
      "payable": false,
      "stateMutability": "nonpayable",
      "type": "function"
    },
    {
      "constant": false,
      "inputs": [
        {
          "internalType": "uint256",
          "name": "_indiceDemande",
          "type": "uint256"
        },
        {
          "internalType": "address",
          "name": "_candidatAccepte",
          "type": "address"
        }
      ],
      "name": "accepterOffre",
      "outputs": [],
      "payable": false,
      "stateMutability": "nonpayable",
      "type": "function"
    },
    {
      "constant": true,
      "inputs": [
        {
          "internalType": "string",
          "name": "_link",
          "type": "string"
        }
      ],
      "name": "hashDepot",
      "outputs": [
        {
          "internalType": "bytes32",
          "name": "",
          "type": "bytes32"
        }
      ],
      "payable": false,
      "stateMutability": "pure",
      "type": "function"
    },
    {
      "constant": false,
      "inputs": [
        {
          "internalType": "uint256",
          "name": "_indiceDemande",
          "type": "uint256"
        },
        {
          "internalType": "bytes32",
          "name": "_linkDepot",
          "type": "bytes32"
        }
      ],
      "name": "livraison",
      "outputs": [],
      "payable": false,
      "stateMutability": "nonpayable",
      "type": "function"
    },
    {
      "constant": false,
      "inputs": [
        {
          "internalType": "uint256",
          "name": "_indiceDemande",
          "type": "uint256"
        }
      ],
      "name": "renumeration",
      "outputs": [],
      "payable": true,
      "stateMutability": "payable",
      "type": "function"
    },
    {
      "constant": true,
      "inputs": [],
      "name": "getAdmin",
      "outputs": [
        {
          "internalType": "address",
          "name": "",
          "type": "address"
        }
      ],
      "payable": false,
      "stateMutability": "view",
      "type": "function"
    },
    {
      "constant": true,
      "inputs": [
        {
          "internalType": "address",
          "name": "_address",
          "type": "address"
        }
      ],
      "name": "getBannies",
      "outputs": [
        {
          "internalType": "bool",
          "name": "",
          "type": "bool"
        }
      ],
      "payable": false,
      "stateMutability": "view",
      "type": "function"
    }
  ],
  "bytecode": "0x608060405234801561001057600080fd5b50336000806101000a81548173ffffffffffffffffffffffffffffffffffffffff021916908373ffffffffffffffffffffffffffffffffffffffff160217905550613651806100606000396000f3fe6080604052600436106100dd5760003560e01c80636e9960c31161007f578063d617a95b11610059578063d617a95b146102ab578063e783a5b4146102e8578063fd43e69b14610311578063fe9603c91461034e576100dd565b80636e9960c314610212578063a6edb17e1461023d578063b5e2bf2f14610266576100dd565b806321fec34d116100bb57806321fec34d1461015057806345ea43b01461018d5780635267c7de146101b65780635b317629146101f6576100dd565b80630aeeb302146100e2578063108492fe146100fe5780631db6a3e614610127575b600080fd5b6100fc60048036036100f79190810190612761565b610377565b005b34801561010a57600080fd5b5061012560048036036101209190810190612802565b6106a1565b005b34801561013357600080fd5b5061014e6004803603610149919081019061268b565b610863565b005b34801561015c57600080fd5b506101776004803603610172919081019061268b565b610afa565b604051610184919061304d565b60405180910390f35b34801561019957600080fd5b506101b460048036036101af9190810190612761565b610b50565b005b3480156101c257600080fd5b506101dd60048036036101d8919081019061268b565b610ece565b6040516101ed94939291906130a5565b60405180910390f35b610210600480360361020b919081019061283e565b61104e565b005b34801561021e57600080fd5b50610227611593565b6040516102349190613009565b60405180910390f35b34801561024957600080fd5b50610264600480360361025f91908101906127c6565b6115bc565b005b34801561027257600080fd5b5061028d60048036036102889190810190612761565b61193c565b6040516102a299989796959493929190613398565b60405180910390f35b3480156102b757600080fd5b506102d260048036036102cd919081019061268b565b611a89565b6040516102df919061304d565b60405180910390f35b3480156102f457600080fd5b5061030f600480360361030a919081019061278a565b611aa9565b005b34801561031d57600080fd5b50610338600480360361033391908101906126b4565b611f1f565b6040516103459190613068565b60405180910390f35b34801561035a57600080fd5b50610375600480360361037091908101906126f5565b611f30565b005b3373ffffffffffffffffffffffffffffffffffffffff16600260003373ffffffffffffffffffffffffffffffffffffffff1673ffffffffffffffffffffffffffffffffffffffff16815260200190815260200160002060020160009054906101000a900473ffffffffffffffffffffffffffffffffffffffff1673ffffffffffffffffffffffffffffffffffffffff1614610447576040517f08c379a000000000000000000000000000000000000000000000000000000000815260040161043e90613358565b60405180910390fd5b600180549050811061048e576040517f08c379a0000000000000000000000000000000000000000000000000000000008152600401610485906130f8565b60405180910390fd5b3373ffffffffffffffffffffffffffffffffffffffff16600182815481106104b257fe5b90600052602060002090600b020160070160009054906101000a900473ffffffffffffffffffffffffffffffffffffffff1673ffffffffffffffffffffffffffffffffffffffff161461053a576040517f08c379a000000000000000000000000000000000000000000000000000000000815260040161053190613298565b60405180910390fd5b600115156001828154811061054b57fe5b90600052602060002090600b020160090160009054906101000a900460ff161515146105ac576040517f08c379a00000000000000000000000000000000000000000000000000000000081526004016105a390613318565b60405180910390fd5b3373ffffffffffffffffffffffffffffffffffffffff166108fc600183815481106105d357fe5b90600052602060002090600b0201600001549081150290604051600060405180830381858888f19350505050158015610610573d6000803e3d6000fd5b50600180828154811061061f57fe5b90600052602060002090600b020160090160006101000a81548160ff0219169083151502179055507f66642b3162fab70643d3e58f385200fb1245de066a59dddea017d21bea00d242336001838154811061067657fe5b90600052602060002090600b020160000154604051610696929190613024565b60405180910390a150565b333373ffffffffffffffffffffffffffffffffffffffff16600260008373ffffffffffffffffffffffffffffffffffffffff1673ffffffffffffffffffffffffffffffffffffffff16815260200190815260200160002060020160009054906101000a900473ffffffffffffffffffffffffffffffffffffffff1673ffffffffffffffffffffffffffffffffffffffff161415610773576040517f08c379a000000000000000000000000000000000000000000000000000000000815260040161076a90613118565b60405180910390fd5b3373ffffffffffffffffffffffffffffffffffffffff166001848154811061079757fe5b90600052602060002090600b020160060160009054906101000a900473ffffffffffffffffffffffffffffffffffffffff1673ffffffffffffffffffffffffffffffffffffffff161461081f576040517f08c379a000000000000000000000000000000000000000000000000000000000815260040161081690613178565b60405180910390fd5b816001848154811061082d57fe5b90600052602060002090600b020160040160006101000a81548160ff0219169083600281111561085957fe5b0217905550505050565b8060001515600360008373ffffffffffffffffffffffffffffffffffffffff1673ffffffffffffffffffffffffffffffffffffffff16815260200190815260200160002060009054906101000a900460ff161515146108f7576040517f08c379a00000000000000000000000000000000000000000000000000000000081526004016108ee906132d8565b60405180910390fd5b3373ffffffffffffffffffffffffffffffffffffffff166000809054906101000a900473ffffffffffffffffffffffffffffffffffffffff1673ffffffffffffffffffffffffffffffffffffffff1614610986576040517f08c379a000000000000000000000000000000000000000000000000000000000815260040161097d906132b8565b60405180910390fd5b8173ffffffffffffffffffffffffffffffffffffffff16600260008473ffffffffffffffffffffffffffffffffffffffff1673ffffffffffffffffffffffffffffffffffffffff16815260200190815260200160002060020160009054906101000a900473ffffffffffffffffffffffffffffffffffffffff1673ffffffffffffffffffffffffffffffffffffffff1614610a56576040517f08c379a0000000000000000000000000000000000000000000000000000000008152600401610a4d90613358565b60405180910390fd5b6001600360008473ffffffffffffffffffffffffffffffffffffffff1673ffffffffffffffffffffffffffffffffffffffff16815260200190815260200160002060006101000a81548160ff0219169083151502179055506000600260008473ffffffffffffffffffffffffffffffffffffffff1673ffffffffffffffffffffffffffffffffffffffff168152602001908152602001600020600301819055505050565b6000600360008373ffffffffffffffffffffffffffffffffffffffff1673ffffffffffffffffffffffffffffffffffffffff16815260200190815260200160002060009054906101000a900460ff169050919050565b3373ffffffffffffffffffffffffffffffffffffffff16600260003373ffffffffffffffffffffffffffffffffffffffff1673ffffffffffffffffffffffffffffffffffffffff16815260200190815260200160002060020160009054906101000a900473ffffffffffffffffffffffffffffffffffffffff1673ffffffffffffffffffffffffffffffffffffffff1614610c20576040517f08c379a0000000000000000000000000000000000000000000000000000000008152600401610c1790613358565b60405180910390fd5b6001805490508110610c67576040517f08c379a0000000000000000000000000000000000000000000000000000000008152600401610c5e906130f8565b60405180910390fd5b60006002811115610c7457fe5b60018281548110610c8157fe5b90600052602060002090600b020160040160009054906101000a900460ff166002811115610cab57fe5b14610ceb576040517f08c379a0000000000000000000000000000000000000000000000000000000008152600401610ce2906131b8565b60405180910390fd5b60018181548110610cf857fe5b90600052602060002090600b02016005013390806001815401808255809150509060018203906000526020600020016000909192909190916101000a81548173ffffffffffffffffffffffffffffffffffffffff021916908373ffffffffffffffffffffffffffffffffffffffff16021790555050600260003373ffffffffffffffffffffffffffffffffffffffff1673ffffffffffffffffffffffffffffffffffffffff16815260200190815260200160002060018281548110610db957fe5b90600052602060002090600b0201600a0160003373ffffffffffffffffffffffffffffffffffffffff1673ffffffffffffffffffffffffffffffffffffffff16815260200190815260200160002060008201816000019080546001816001161561010002031660029004610e2e92919061231d565b5060018201816001019080546001816001161561010002031660029004610e5692919061231d565b506002820160009054906101000a900473ffffffffffffffffffffffffffffffffffffffff168160020160006101000a81548173ffffffffffffffffffffffffffffffffffffffff021916908373ffffffffffffffffffffffffffffffffffffffff1602179055506003820154816003015590505050565b6002602052806000526040600020600091509050806000018054600181600116156101000203166002900480601f016020809104026020016040519081016040528092919081815260200182805460018160011615610100020316600290048015610f7a5780601f10610f4f57610100808354040283529160200191610f7a565b820191906000526020600020905b815481529060010190602001808311610f5d57829003601f168201915b505050505090806001018054600181600116156101000203166002900480601f0160208091040260200160405190810160405280929190818152602001828054600181600116156101000203166002900480156110185780601f10610fed57610100808354040283529160200191611018565b820191906000526020600020905b815481529060010190602001808311610ffb57829003601f168201915b5050505050908060020160009054906101000a900473ffffffffffffffffffffffffffffffffffffffff16908060030154905084565b60008511611091576040517f08c379a000000000000000000000000000000000000000000000000000000000815260040161108890613378565b60405180910390fd5b3373ffffffffffffffffffffffffffffffffffffffff16600260003373ffffffffffffffffffffffffffffffffffffffff1673ffffffffffffffffffffffffffffffffffffffff16815260200190815260200160002060020160009054906101000a900473ffffffffffffffffffffffffffffffffffffffff1673ffffffffffffffffffffffffffffffffffffffff1614611161576040517f08c379a000000000000000000000000000000000000000000000000000000000815260040161115890613258565b60405180910390fd5b600084116111a4576040517f08c379a000000000000000000000000000000000000000000000000000000000815260040161119b90613238565b60405180910390fd5b6111dd6111ce60646111c06002896121ad90919063ffffffff16565b61221d90919063ffffffff16565b8661226790919063ffffffff16565b34101561121f576040517f08c379a000000000000000000000000000000000000000000000000000000000815260040161121690613218565b60405180910390fd5b6000835111611263576040517f08c379a000000000000000000000000000000000000000000000000000000000815260040161125a90613138565b60405180910390fd5b6000600281111561127057fe5b82600281111561127c57fe5b148061129d575060028081111561128f57fe5b82600281111561129b57fe5b145b6112dc576040517f08c379a00000000000000000000000000000000000000000000000000000000081526004016112d3906131d8565b60405180910390fd5b6000811161131f576040517f08c379a000000000000000000000000000000000000000000000000000000000815260040161131690613158565b60405180910390fd5b6113276123a4565b8581600001818152505084816020018181525050838160600181905250828160800190600281111561135557fe5b9081600281111561136257fe5b8152505081816040018181525050338160c0019073ffffffffffffffffffffffffffffffffffffffff16908173ffffffffffffffffffffffffffffffffffffffff16815250506001819080600181540180825580915050906001820390600052602060002090600b0201600090919290919091506000820151816000015560208201518160010155604082015181600201556060820151816003019080519060200190611410929190612433565b5060808201518160040160006101000a81548160ff0219169083600281111561143557fe5b021790555060a08201518160050190805190602001906114569291906124b3565b5060c08201518160060160006101000a81548173ffffffffffffffffffffffffffffffffffffffff021916908373ffffffffffffffffffffffffffffffffffffffff16021790555060e08201518160070160006101000a81548173ffffffffffffffffffffffffffffffffffffffff021916908373ffffffffffffffffffffffffffffffffffffffff16021790555061010082015181600801556101208201518160090160006101000a81548160ff021916908315150217905550505050600061154f611540606461153260028b6121ad90919063ffffffff16565b61221d90919063ffffffff16565b8861226790919063ffffffff16565b90507fcb4440121070d175d800daa9555803591dee6e1bf0f37b959c81df69eae455293382604051611582929190613024565b60405180910390a150505050505050565b60008060009054906101000a900473ffffffffffffffffffffffffffffffffffffffff16905090565b3373ffffffffffffffffffffffffffffffffffffffff16600260003373ffffffffffffffffffffffffffffffffffffffff1673ffffffffffffffffffffffffffffffffffffffff16815260200190815260200160002060020160009054906101000a900473ffffffffffffffffffffffffffffffffffffffff1673ffffffffffffffffffffffffffffffffffffffff161461168c576040517f08c379a000000000000000000000000000000000000000000000000000000000815260040161168390613358565b60405180910390fd5b60018054905082106116d3576040517f08c379a00000000000000000000000000000000000000000000000000000000081526004016116ca906130f8565b60405180910390fd5b3373ffffffffffffffffffffffffffffffffffffffff16600183815481106116f757fe5b90600052602060002090600b020160070160009054906101000a900473ffffffffffffffffffffffffffffffffffffffff1673ffffffffffffffffffffffffffffffffffffffff161461177f576040517f08c379a000000000000000000000000000000000000000000000000000000000815260040161177690613298565b60405180910390fd5b6001600281111561178c57fe5b6001838154811061179957fe5b90600052602060002090600b020160040160009054906101000a900460ff1660028111156117c357fe5b14611803576040517f08c379a00000000000000000000000000000000000000000000000000000000081526004016117fa906131f8565b60405180910390fd5b806001838154811061181157fe5b90600052602060002090600b02016008018190555060026001838154811061183557fe5b90600052602060002090600b020160040160006101000a81548160ff0219169083600281111561186157fe5b0217905550600180838154811061187457fe5b90600052602060002090600b020160090160006101000a81548160ff0219169083151502179055506118f26001600260003373ffffffffffffffffffffffffffffffffffffffff1673ffffffffffffffffffffffffffffffffffffffff1681526020019081526020016000206003015461226790919063ffffffff16565b600260003373ffffffffffffffffffffffffffffffffffffffff1673ffffffffffffffffffffffffffffffffffffffff168152602001908152602001600020600301819055505050565b6001818154811061194957fe5b90600052602060002090600b0201600091509050806000015490806001015490806002015490806003018054600181600116156101000203166002900480601f016020809104026020016040519081016040528092919081815260200182805460018160011615610100020316600290048015611a075780601f106119dc57610100808354040283529160200191611a07565b820191906000526020600020905b8154815290600101906020018083116119ea57829003601f168201915b5050505050908060040160009054906101000a900460ff16908060060160009054906101000a900473ffffffffffffffffffffffffffffffffffffffff16908060070160009054906101000a900473ffffffffffffffffffffffffffffffffffffffff16908060080154908060090160009054906101000a900460ff16905089565b60036020528060005260406000206000915054906101000a900460ff1681565b3373ffffffffffffffffffffffffffffffffffffffff16600260003373ffffffffffffffffffffffffffffffffffffffff1673ffffffffffffffffffffffffffffffffffffffff16815260200190815260200160002060020160009054906101000a900473ffffffffffffffffffffffffffffffffffffffff1673ffffffffffffffffffffffffffffffffffffffff1614611b79576040517f08c379a0000000000000000000000000000000000000000000000000000000008152600401611b7090613358565b60405180910390fd5b8073ffffffffffffffffffffffffffffffffffffffff16600260008373ffffffffffffffffffffffffffffffffffffffff1673ffffffffffffffffffffffffffffffffffffffff16815260200190815260200160002060020160009054906101000a900473ffffffffffffffffffffffffffffffffffffffff1673ffffffffffffffffffffffffffffffffffffffff1614611c49576040517f08c379a0000000000000000000000000000000000000000000000000000000008152600401611c4090613358565b60405180910390fd5b6001805490508210611c90576040517f08c379a0000000000000000000000000000000000000000000000000000000008152600401611c87906130f8565b60405180910390fd5b3373ffffffffffffffffffffffffffffffffffffffff1660018381548110611cb457fe5b90600052602060002090600b020160060160009054906101000a900473ffffffffffffffffffffffffffffffffffffffff1673ffffffffffffffffffffffffffffffffffffffff1614611d3c576040517f08c379a0000000000000000000000000000000000000000000000000000000008152600401611d3390613338565b60405180910390fd5b60006002811115611d4957fe5b60018381548110611d5657fe5b90600052602060002090600b020160040160009054906101000a900460ff166002811115611d8057fe5b14611dc0576040517f08c379a0000000000000000000000000000000000000000000000000000000008152600401611db7906131b8565b60405180910390fd5b60018281548110611dcd57fe5b90600052602060002090600b0201600a0160008273ffffffffffffffffffffffffffffffffffffffff1673ffffffffffffffffffffffffffffffffffffffff1681526020019081526020016000206003015460018381548110611e2c57fe5b90600052602060002090600b0201600201541115611e7f576040517f08c379a0000000000000000000000000000000000000000000000000000000008152600401611e7690613278565b60405180910390fd5b8060018381548110611e8d57fe5b90600052602060002090600b020160070160006101000a81548173ffffffffffffffffffffffffffffffffffffffff021916908373ffffffffffffffffffffffffffffffffffffffff1602179055506001808381548110611eea57fe5b90600052602060002090600b020160040160006101000a81548160ff02191690836002811115611f1657fe5b02179055505050565b600081805190602001209050919050565b333373ffffffffffffffffffffffffffffffffffffffff16600260008373ffffffffffffffffffffffffffffffffffffffff1673ffffffffffffffffffffffffffffffffffffffff16815260200190815260200160002060020160009054906101000a900473ffffffffffffffffffffffffffffffffffffffff1673ffffffffffffffffffffffffffffffffffffffff161415612002576040517f08c379a0000000000000000000000000000000000000000000000000000000008152600401611ff990613118565b60405180910390fd5b3360001515600360008373ffffffffffffffffffffffffffffffffffffffff1673ffffffffffffffffffffffffffffffffffffffff16815260200190815260200160002060009054906101000a900460ff16151514612096576040517f08c379a000000000000000000000000000000000000000000000000000000000815260040161208d906132d8565b60405180910390fd5b61209e61253d565b60405180608001604052808681526020018581526020013373ffffffffffffffffffffffffffffffffffffffff1681526020016001815250905080600260003373ffffffffffffffffffffffffffffffffffffffff1673ffffffffffffffffffffffffffffffffffffffff1681526020019081526020016000206000820151816000019080519060200190612134929190612433565b506020820151816001019080519060200190612151929190612433565b5060408201518160020160006101000a81548173ffffffffffffffffffffffffffffffffffffffff021916908373ffffffffffffffffffffffffffffffffffffffff160217905550606082015181600301559050505050505050565b6000808314156121c05760009050612217565b60008284029050828482816121d157fe5b0414612212576040517f08c379a0000000000000000000000000000000000000000000000000000000008152600401612209906132f8565b60405180910390fd5b809150505b92915050565b600061225f83836040518060400160405280601a81526020017f536166654d6174683a206469766973696f6e206279207a65726f0000000000008152506122bc565b905092915050565b6000808284019050838110156122b2576040517f08c379a00000000000000000000000000000000000000000000000000000000081526004016122a990613198565b60405180910390fd5b8091505092915050565b60008083118290612303576040517f08c379a00000000000000000000000000000000000000000000000000000000081526004016122fa9190613083565b60405180910390fd5b50600083858161230f57fe5b049050809150509392505050565b828054600181600116156101000203166002900490600052602060002090601f016020900481019282601f106123565780548555612393565b8280016001018555821561239357600052602060002091601f016020900482015b82811115612392578254825591600101919060010190612377565b5b5090506123a0919061257b565b5090565b60405180610140016040528060008152602001600081526020016000815260200160608152602001600060028111156123d957fe5b815260200160608152602001600073ffffffffffffffffffffffffffffffffffffffff168152602001600073ffffffffffffffffffffffffffffffffffffffff168152602001600080191681526020016000151581525090565b828054600181600116156101000203166002900490600052602060002090601f016020900481019282601f1061247457805160ff19168380011785556124a2565b828001600101855582156124a2579182015b828111156124a1578251825591602001919060010190612486565b5b5090506124af919061257b565b5090565b82805482825590600052602060002090810192821561252c579160200282015b8281111561252b5782518260006101000a81548173ffffffffffffffffffffffffffffffffffffffff021916908373ffffffffffffffffffffffffffffffffffffffff160217905550916020019190600101906124d3565b5b50905061253991906125a0565b5090565b60405180608001604052806060815260200160608152602001600073ffffffffffffffffffffffffffffffffffffffff168152602001600081525090565b61259d91905b80821115612599576000816000905550600101612581565b5090565b90565b6125e091905b808211156125dc57600081816101000a81549073ffffffffffffffffffffffffffffffffffffffff0219169055506001016125a6565b5090565b90565b6000813590506125f2816135b9565b92915050565b600081359050612607816135d0565b92915050565b60008135905061261c816135e7565b92915050565b600082601f83011261263357600080fd5b813561264661264182613459565b61342c565b9150808252602083016020830185838301111561266257600080fd5b61266d838284613559565b50505092915050565b600081359050612685816135f7565b92915050565b60006020828403121561269d57600080fd5b60006126ab848285016125e3565b91505092915050565b6000602082840312156126c657600080fd5b600082013567ffffffffffffffff8111156126e057600080fd5b6126ec84828501612622565b91505092915050565b6000806040838503121561270857600080fd5b600083013567ffffffffffffffff81111561272257600080fd5b61272e85828601612622565b925050602083013567ffffffffffffffff81111561274b57600080fd5b61275785828601612622565b9150509250929050565b60006020828403121561277357600080fd5b600061278184828501612676565b91505092915050565b6000806040838503121561279d57600080fd5b60006127ab85828601612676565b92505060206127bc858286016125e3565b9150509250929050565b600080604083850312156127d957600080fd5b60006127e785828601612676565b92505060206127f8858286016125f8565b9150509250929050565b6000806040838503121561281557600080fd5b600061282385828601612676565b92505060206128348582860161260d565b9150509250929050565b600080600080600060a0868803121561285657600080fd5b600061286488828901612676565b955050602061287588828901612676565b945050604086013567ffffffffffffffff81111561289257600080fd5b61289e88828901612622565b93505060606128af8882890161260d565b92505060806128c088828901612676565b9150509295509295909350565b6128d681613511565b82525050565b6128e5816134ac565b82525050565b6128f4816134be565b82525050565b612903816134ca565b82525050565b61291281613523565b82525050565b600061292382613490565b61292d818561349b565b935061293d818560208601613568565b6129468161359b565b840191505092915050565b600061295c82613485565b612966818561349b565b9350612976818560208601613568565b61297f8161359b565b840191505092915050565b600061299760188361349b565b91507f6c612064656d616e646573206e276578697374652070617300000000000000006000830152602082019050919050565b60006129d760198361349b565b91507f5574696c697361746575722064c3a96a6120696e7363726974000000000000006000830152602082019050919050565b6000612a1760228361349b565b91507f496c206661757420756e65206465736372697074696f6e20646573207461636860008301527f65730000000000000000000000000000000000000000000000000000000000006020830152604082019050919050565b6000612a7d60248361349b565b91507f6c612072657075746174696f6e206d696e696d616c6520646f6974206574726560008301527f203e2030000000000000000000000000000000000000000000000000000000006020830152604082019050919050565b6000612ae360298361349b565b91507f766f7573206e276574657320706173206c65206372656174657572206465206c60008301527f612064656d616e646500000000000000000000000000000000000000000000006020830152604082019050919050565b6000612b49601b8361349b565b91507f536166654d6174683a206164646974696f6e206f766572666c6f7700000000006000830152602082019050919050565b6000612b89601c8361349b565b91507f6c612064656d616e6465206e2765737420706173206f757665727465000000006000830152602082019050919050565b6000612bc960218361349b565b91507f6c2765746174206465206c612044656d616e64652065737420696e646566696e60008301527f69000000000000000000000000000000000000000000000000000000000000006020830152604082019050919050565b6000612c2f601d8361349b565b91507f6c612064656d616e6465206e276573742070617320656e20636f7572730000006000830152602082019050919050565b6000612c6f601f8361349b565b91507f6d73672e76616c7565203a206e276573742070617320737566666973616e74006000830152602082019050919050565b6000612caf60158361349b565b91507f696c206661757420756e2064656c616973203e203000000000000000000000006000830152602082019050919050565b6000612cef601d8361349b565b91507f7574696c69736174657572206e276573742070617320696e73637269740000006000830152602082019050919050565b6000612d2f60248361349b565b91507f63652070726f66696c65206e652070657578207061732065747265206163636560008301527f7074c3a9000000000000000000000000000000000000000000000000000000006020830152604082019050919050565b6000612d9560378361349b565b91507f766f7573206e276574657320706173206c652063616e6469646174206163636560008301527f7074c3a920706f75722063657474652064656d616e64650000000000000000006020830152604082019050919050565b6000612dfb601f8361349b565b91507f566f7573206e27c3aa746573207061732061646d696e697374726174657572006000830152602082019050919050565b6000612e3b600c8361349b565b91507f64c3a96a612062616e6e696500000000000000000000000000000000000000006000830152602082019050919050565b6000612e7b60218361349b565b91507f536166654d6174683a206d756c7469706c69636174696f6e206f766572666c6f60008301527f77000000000000000000000000000000000000000000000000000000000000006020830152604082019050919050565b6000612ee1601c8361349b565b91507f5061796d656e742070617320656e636f7265206175746f726973c3a9000000006000830152602082019050919050565b6000612f21602a8361349b565b91507f766f7573206e276574657320706173206c6520746974756c616972652064652060008301527f6c612064656d616e6465000000000000000000000000000000000000000000006020830152604082019050919050565b6000612f8760118361349b565b91507f6e276573742070617320696e73637269740000000000000000000000000000006000830152602082019050919050565b6000612fc7601c8361349b565b91507f496c206661757420756e652072656e756d65726174696f6e203e2030000000006000830152602082019050919050565b61300381613507565b82525050565b600060208201905061301e60008301846128dc565b92915050565b600060408201905061303960008301856128cd565b6130466020830184612ffa565b9392505050565b600060208201905061306260008301846128eb565b92915050565b600060208201905061307d60008301846128fa565b92915050565b6000602082019050818103600083015261309d8184612918565b905092915050565b600060808201905081810360008301526130bf8187612951565b905081810360208301526130d38186612951565b90506130e260408301856128dc565b6130ef6060830184612ffa565b95945050505050565b600060208201905081810360008301526131118161298a565b9050919050565b60006020820190508181036000830152613131816129ca565b9050919050565b6000602082019050818103600083015261315181612a0a565b9050919050565b6000602082019050818103600083015261317181612a70565b9050919050565b6000602082019050818103600083015261319181612ad6565b9050919050565b600060208201905081810360008301526131b181612b3c565b9050919050565b600060208201905081810360008301526131d181612b7c565b9050919050565b600060208201905081810360008301526131f181612bbc565b9050919050565b6000602082019050818103600083015261321181612c22565b9050919050565b6000602082019050818103600083015261323181612c62565b9050919050565b6000602082019050818103600083015261325181612ca2565b9050919050565b6000602082019050818103600083015261327181612ce2565b9050919050565b6000602082019050818103600083015261329181612d22565b9050919050565b600060208201905081810360008301526132b181612d88565b9050919050565b600060208201905081810360008301526132d181612dee565b9050919050565b600060208201905081810360008301526132f181612e2e565b9050919050565b6000602082019050818103600083015261331181612e6e565b9050919050565b6000602082019050818103600083015261333181612ed4565b9050919050565b6000602082019050818103600083015261335181612f14565b9050919050565b6000602082019050818103600083015261337181612f7a565b9050919050565b6000602082019050818103600083015261339181612fba565b9050919050565b6000610120820190506133ae600083018c612ffa565b6133bb602083018b612ffa565b6133c8604083018a612ffa565b81810360608301526133da8189612951565b90506133e96080830188612909565b6133f660a08301876128dc565b61340360c08301866128dc565b61341060e08301856128fa565b61341e6101008301846128eb565b9a9950505050505050505050565b6000604051905081810181811067ffffffffffffffff8211171561344f57600080fd5b8060405250919050565b600067ffffffffffffffff82111561347057600080fd5b601f19601f8301169050602081019050919050565b600081519050919050565b600081519050919050565b600082825260208201905092915050565b60006134b7826134e7565b9050919050565b60008115159050919050565b6000819050919050565b60008190506134e2826135ac565b919050565b600073ffffffffffffffffffffffffffffffffffffffff82169050919050565b6000819050919050565b600061351c82613535565b9050919050565b600061352e826134d4565b9050919050565b600061354082613547565b9050919050565b6000613552826134e7565b9050919050565b82818337600083830152505050565b60005b8381101561358657808201518184015260208101905061356b565b83811115613595576000848401525b50505050565b6000601f19601f8301169050919050565b600381106135b657fe5b50565b6135c2816134ac565b81146135cd57600080fd5b50565b6135d9816134ca565b81146135e457600080fd5b50565b600381106135f457600080fd5b50565b61360081613507565b811461360b57600080fd5b5056fea365627a7a723158208922137b003f7e8c6e9042bf5a2c9bc77dbd9960bdea774fea0fc6a12acc10cb6c6578706572696d656e74616cf564736f6c63430005100040",
  "source": "pragma solidity 0.5.16;\r\n\r\npragma experimental ABIEncoderV2;\r\n\r\nimport \"./SafeMath.sol\";\r\n/// @title Dfi #2: Place de march dillustrateurs indpendants\r\n/// @author Ines Khoufi\r\n/// @notice Ce contrat assure les fonctionalits suivantes: Mcanisme de rputation, Liste de demandes, Mcanisme de contractualisation\r\n/// @dev Des fonctions basiques\r\n\r\ncontract Defi2 {\r\n    using SafeMath for uint;\r\n    address private admin;\r\n    enum etatDemande {OUVERTE, ENCOURS, FERMER}\r\n    Demande[] public demandes;\r\n    mapping (address => Utilisateur) public utilisateur;\r\n    mapping (address => bool) public bannies;\r\n\r\n    struct Utilisateur {\r\n        string nom;\r\n        string prenom;\r\n        address adr;\r\n        uint reputation;\r\n    }\r\n    struct Demande {\r\n        uint renumeration;\r\n        uint delais;\r\n        uint minReputation;\r\n        string decrireTache;\r\n        etatDemande etat;\r\n        address[] candidatsAddress;\r\n        address entrepriseAddress;\r\n        address candidatAccepte;\r\n        bytes32 linkDepot;\r\n        bool autorisePayment;\r\n        mapping(address => Utilisateur) candidats;\r\n    }\r\n    modifier estInscrit(address _address){\r\n        require(utilisateur[_address].adr != msg.sender, \"Utilisateur dja inscrit\");\r\n        _;\r\n    }\r\n    modifier estAdmin(){\r\n        require(admin == msg.sender, \"Vous n'tes pas administrateur\");\r\n        _;\r\n    }\r\n    modifier nEstPasBannie(address _address){\r\n        require(bannies[_address] == false, \"dja bannie\");\r\n        _;\r\n    }\r\n    /*\r\n     *Event ajouter demande\r\n     *address du demandeur\r\n     *valeur a payer\r\n    */\r\n    event eventAjouterDemande(address demandeur, uint val);\r\n    /*\r\n     *Event candidat pay\r\n     *address du candidat\r\n     *renumeration\r\n    */\r\n    event eventCandidatPaye(address candidat, uint val);\r\n\r\n    constructor() public {\r\n        admin = msg.sender;\r\n    }\r\n\r\n    /// @notice Cette fonction d'inscrire un utilisateur\r\n    /// @param _nom le nom de l'utilisateur\r\n    /// @param _prenom le prenom de l'utilisateur\r\n\r\n    function inscription(string memory _nom, string memory _prenom) public estInscrit(msg.sender)\r\n    nEstPasBannie(msg.sender){\r\n        Utilisateur memory user = Utilisateur(_nom, _prenom, msg.sender, 1);\r\n        utilisateur[msg.sender] = user;\r\n    }\r\n\r\n    ///@notice Cette fonction permet a l'Administrateur de Bannir un utilisateur\r\n    ///@param _address addresse de l'utilisateur qui va etre bannie\r\n\r\n    function bannie (address _address) public  nEstPasBannie(_address) estAdmin  {\r\n        require (utilisateur[_address].adr == _address, \"n'est pas inscrit\");\r\n        bannies[_address] = true;\r\n        utilisateur[_address].reputation = 0;\r\n    }\r\n\r\n    /// @notice Cette fonction permet d'ajouter une demande d'offre d'emploi\r\n    /// @param _renumeration Renumeration propose\r\n    /// @param _delais delais de la demande\r\n    /// @param _decrireTache decription de l'offre\r\n    /// @param _etat etat de la demande (Ouverte,encours,ferm)\r\n    /// @param _minReputation la reputation minimale necessaire pour postuler  l'offre\r\n\r\n    function ajouterDemande(uint _renumeration, uint _delais, string memory _decrireTache, etatDemande _etat,\r\n    uint _minReputation) public payable {\r\n      require(_renumeration > 0, \"Il faut une renumeration > 0\");\r\n      require(utilisateur[msg.sender].adr == msg.sender, \"utilisateur n'est pas inscrit\");\r\n      require(_delais > 0, \"il faut un delais > 0\");\r\n      require(msg.value >= _renumeration.add(_renumeration.mul(2).div(100)), \"msg.value : n'est pas suffisant\");\r\n      require(bytes(_decrireTache).length > 0, \"Il faut une description des taches\");\r\n      require(_etat == etatDemande.OUVERTE || _etat == etatDemande.FERMER, \"l'etat de la Demande est indefini\");\r\n      require(_minReputation > 0, \"la reputation minimale doit etre > 0\");\r\n      Demande memory dem;\r\n      dem.renumeration = _renumeration;\r\n      dem.delais = _delais;\r\n      dem.decrireTache = _decrireTache;\r\n      dem.etat = _etat;\r\n      dem.minReputation = _minReputation;\r\n      dem.entrepriseAddress = msg.sender;\r\n      demandes.push(dem);\r\n      uint val = _renumeration.add(_renumeration.mul(2).div(100));\r\n      emit eventAjouterDemande(msg.sender, val);\r\n    }\r\n\r\n    /// @notice Cette fonction permet a un utilisateur (createur de la demande) de changer l'etat de la demande\r\n    /// @param _indiceDemande indice de la demande\r\n    /// @param _etat etat de la demande (Ouverte,encours,ferm)\r\n\r\n    function changerEtatDemande(uint _indiceDemande, etatDemande _etat) public estInscrit(msg.sender) {\r\n        require(demandes[_indiceDemande].entrepriseAddress == msg.sender, \"vous n'etes pas le createur de la demande\");\r\n        demandes[_indiceDemande].etat = _etat;\r\n    }\r\n\r\n    /// @notice Cette fonction permet a un utilisateur (candidat) de postuler  une demande (offre)\r\n    /// @param _indiceDemande indice de la demande\r\n\r\n    function postuler(uint _indiceDemande) public {\r\n      require (utilisateur[msg.sender].adr == msg.sender, \"n'est pas inscrit\");\r\n      require(_indiceDemande < demandes.length, \"la demandes n'existe pas\");\r\n      require(demandes[_indiceDemande].etat == etatDemande.OUVERTE, \"la demande n'est pas ouverte\");\r\n      demandes[_indiceDemande].candidatsAddress.push(msg.sender);\r\n      demandes[_indiceDemande].candidats[msg.sender] = utilisateur[msg.sender];\r\n    }\r\n\r\n    /// @notice Cette fonction permet a un utilisateur (representant de l'entreprise) d'accepter une candidature\r\n    /// @param _indiceDemande indice de la demande\r\n    /// @param _candidatAccepte l'adresse du candidat accept\r\n\r\n    function accepterOffre(uint _indiceDemande,address _candidatAccepte) public {\r\n        require (utilisateur[msg.sender].adr == msg.sender, \"n'est pas inscrit\");\r\n        require (utilisateur[_candidatAccepte].adr == _candidatAccepte, \"n'est pas inscrit\");\r\n        require(_indiceDemande < demandes.length, \"la demandes n'existe pas\");\r\n        require(demandes[_indiceDemande].entrepriseAddress == msg.sender, \"vous n'etes pas le titulaire de la demande\");\r\n        require(demandes[_indiceDemande].etat == etatDemande.OUVERTE, \"la demande n'est pas ouverte\");\r\n        require(demandes[_indiceDemande].minReputation <= demandes[_indiceDemande].candidats[_candidatAccepte].reputation,\r\n         \"ce profile ne peux pas etre accept\");\r\n        demandes[_indiceDemande].candidatAccepte = _candidatAccepte;\r\n        demandes[_indiceDemande].etat = etatDemande.ENCOURS;\r\n    }\r\n\r\n    /// @notice Cette fonction calcule un hash avec la fonction keccak256\r\n    /// @param _link le lien du depo github\r\n    /// @return le hash du lien\r\n\r\n    function hashDepot(string memory _link) public pure returns (bytes32) {\r\n        return keccak256(bytes(_link));\r\n    }\r\n\r\n    /// @notice Cette fonction calcule un hash avec la fonction keccak256\r\n    /// @param _indiceDemande l'indice de la demande\r\n    /// @param _linkDepot le hash du lien du depo github\r\n    /// @return le hash du lien\r\n\r\n    function livraison(uint _indiceDemande, bytes32 _linkDepot) public {\r\n        require (utilisateur[msg.sender].adr == msg.sender, \"n'est pas inscrit\");\r\n        require(_indiceDemande < demandes.length, \"la demandes n'existe pas\");\r\n        require(demandes[_indiceDemande].candidatAccepte == msg.sender, \"vous n'etes pas le candidat accept pour cette demande\");\r\n        require(demandes[_indiceDemande].etat == etatDemande.ENCOURS, \"la demande n'est pas en cours\");\r\n        demandes[_indiceDemande].linkDepot = _linkDepot;\r\n        demandes[_indiceDemande].etat = etatDemande.FERMER;\r\n        demandes[_indiceDemande].autorisePayment = true;\r\n        utilisateur[msg.sender].reputation = utilisateur[msg.sender].reputation.add(1);\r\n    }\r\n\r\n    /// @notice Cette fonction permet de payer un uilisateur (candidat accept)\r\n    /// @param _indiceDemande indice de la demande\r\n\r\n    function renumeration(uint _indiceDemande) public  payable {\r\n        require (utilisateur[msg.sender].adr == msg.sender, \"n'est pas inscrit\");\r\n        require(_indiceDemande < demandes.length, \"la demandes n'existe pas\");\r\n        require(demandes[_indiceDemande].candidatAccepte == msg.sender, \"vous n'etes pas le candidat accept pour cette demande\");\r\n        require(demandes[_indiceDemande].autorisePayment == true, \"Payment pas encore autoris\");\r\n        msg.sender.transfer(demandes[_indiceDemande].renumeration);\r\n        demandes[_indiceDemande].autorisePayment = true;\r\n        emit eventCandidatPaye(msg.sender,demandes[_indiceDemande].renumeration);\r\n    }\r\n\r\n    function getAdmin() public view returns(address) {\r\n        return admin;\r\n    }\r\n\r\n   /* function getDemandes(uint _indice) public view returns(Demande memory) {\r\n        return demandes[_indice];\r\n    }\r\n\r\n    function getUtilisateur(address _address) public view returns(Utilisateur memory) {\r\n        return utilisateur[_address];\r\n    }\r\n   */\r\n    function getBannies(address _address) public view returns(bool) {\r\n        return bannies[_address];\r\n    }\r\n}",
  "sourcePath": "C:\\Users\\inesk\\Documents\\Work\\Alyra\\Git\\Defi2Dapp\\contracts\\Defi2.sol",
  "compiler": {
    "name": "solc",
    "version": "0.5.16+commit.9c3226ce.Emscripten.clang"
  },
  "schemaVersion": "3.0.23",
  "updatedAt": "2020-03-03T10:12:04.745Z",
  "devdoc": {
    "author": "Ines Khoufi",
    "details": "Des fonctions basiques",
    "methods": {
      "accepterOffre(uint256,address)": {
        "params": {
          "_candidatAccepte": "l'adresse du candidat accept",
          "_indiceDemande": "indice de la demande"
        }
      },
      "ajouterDemande(uint256,uint256,string,uint8,uint256)": {
        "params": {
          "_decrireTache": "decription de l'offre",
          "_delais": "delais de la demande",
          "_etat": "etat de la demande (Ouverte,encours,ferm)",
          "_minReputation": "la reputation minimale necessaire pour postuler  l'offre",
          "_renumeration": "Renumeration propose"
        }
      },
      "bannie(address)": {
        "params": {
          "_address": "addresse de l'utilisateur qui va etre bannie"
        }
      },
      "changerEtatDemande(uint256,uint8)": {
        "params": {
          "_etat": "etat de la demande (Ouverte,encours,ferm)",
          "_indiceDemande": "indice de la demande"
        }
      },
      "hashDepot(string)": {
        "params": {
          "_link": "le lien du depo github"
        },
        "return": "le hash du lien"
      },
      "inscription(string,string)": {
        "params": {
          "_nom": "le nom de l'utilisateur",
          "_prenom": "le prenom de l'utilisateur"
        }
      },
      "livraison(uint256,bytes32)": {
        "params": {
          "_indiceDemande": "l'indice de la demande",
          "_linkDepot": "le hash du lien du depo github"
        },
        "return": "le hash du lien"
      },
      "postuler(uint256)": {
        "params": {
          "_indiceDemande": "indice de la demande"
        }
      },
      "renumeration(uint256)": {
        "params": {
          "_indiceDemande": "indice de la demande"
        }
      }
    },
    "title": "Dfi #2: Place de march dillustrateurs indpendants"
  },
  "userdoc": {
    "methods": {
      "accepterOffre(uint256,address)": {
        "notice": "Cette fonction permet a un utilisateur (representant de l'entreprise) d'accepter une candidature"
      },
      "ajouterDemande(uint256,uint256,string,uint8,uint256)": {
        "notice": "Cette fonction permet d'ajouter une demande d'offre d'emploi"
      },
      "bannie(address)": {
        "notice": "Cette fonction permet a l'Administrateur de Bannir un utilisateur"
      },
      "changerEtatDemande(uint256,uint8)": {
        "notice": "Cette fonction permet a un utilisateur (createur de la demande) de changer l'etat de la demande"
      },
      "hashDepot(string)": {
        "notice": "Cette fonction calcule un hash avec la fonction keccak256"
      },
      "inscription(string,string)": {
        "notice": "Cette fonction d'inscrire un utilisateur"
      },
      "livraison(uint256,bytes32)": {
        "notice": "Cette fonction calcule un hash avec la fonction keccak256"
      },
      "postuler(uint256)": {
        "notice": "Cette fonction permet a un utilisateur (candidat) de postuler  une demande (offre)"
      },
      "renumeration(uint256)": {
        "notice": "Cette fonction permet de payer un uilisateur (candidat accept)"
      }
    },
    "notice": "Ce contrat assure les fonctionalits suivantes: Mcanisme de rputation, Liste de demandes, Mcanisme de contractualisation"
  }
}