{
  "contractName": "Defi2",
  "abi": [
    {
      "inputs": [],
      "payable": false,
      "stateMutability": "nonpayable",
      "type": "constructor"
    },
    {
      "anonymous": false,
      "inputs": [
        {
          "indexed": false,
          "internalType": "address",
          "name": "demandeur",
          "type": "address"
        },
        {
          "indexed": false,
          "internalType": "uint256",
          "name": "val",
          "type": "uint256"
        }
      ],
      "name": "eventAjouterDemande",
      "type": "event"
    },
    {
      "anonymous": false,
      "inputs": [
        {
          "indexed": false,
          "internalType": "address",
          "name": "candidat",
          "type": "address"
        },
        {
          "indexed": false,
          "internalType": "uint256",
          "name": "val",
          "type": "uint256"
        }
      ],
      "name": "eventCandidatPaye",
      "type": "event"
    },
    {
      "constant": true,
      "inputs": [
        {
          "internalType": "address",
          "name": "",
          "type": "address"
        }
      ],
      "name": "bannies",
      "outputs": [
        {
          "internalType": "bool",
          "name": "",
          "type": "bool"
        }
      ],
      "payable": false,
      "stateMutability": "view",
      "type": "function"
    },
    {
      "constant": true,
      "inputs": [
        {
          "internalType": "address",
          "name": "",
          "type": "address"
        }
      ],
      "name": "utilisateur",
      "outputs": [
        {
          "internalType": "string",
          "name": "nom",
          "type": "string"
        },
        {
          "internalType": "string",
          "name": "prenom",
          "type": "string"
        },
        {
          "internalType": "address",
          "name": "adr",
          "type": "address"
        },
        {
          "internalType": "uint256",
          "name": "reputation",
          "type": "uint256"
        }
      ],
      "payable": false,
      "stateMutability": "view",
      "type": "function"
    },
    {
      "constant": false,
      "inputs": [
        {
          "internalType": "string",
          "name": "_nom",
          "type": "string"
        },
        {
          "internalType": "string",
          "name": "_prenom",
          "type": "string"
        }
      ],
      "name": "inscription",
      "outputs": [],
      "payable": false,
      "stateMutability": "nonpayable",
      "type": "function"
    },
    {
      "constant": false,
      "inputs": [
        {
          "internalType": "address",
          "name": "_address",
          "type": "address"
        }
      ],
      "name": "bannie",
      "outputs": [],
      "payable": false,
      "stateMutability": "nonpayable",
      "type": "function"
    },
    {
      "constant": false,
      "inputs": [
        {
          "internalType": "uint256",
          "name": "_renumeration",
          "type": "uint256"
        },
        {
          "internalType": "uint256",
          "name": "_delais",
          "type": "uint256"
        },
        {
          "internalType": "string",
          "name": "_decrireTache",
          "type": "string"
        },
        {
          "internalType": "enum Defi2.etatDemande",
          "name": "_etat",
          "type": "uint8"
        },
        {
          "internalType": "uint256",
          "name": "_minReputation",
          "type": "uint256"
        }
      ],
      "name": "ajouterDemande",
      "outputs": [],
      "payable": true,
      "stateMutability": "payable",
      "type": "function"
    },
    {
      "constant": false,
      "inputs": [
        {
          "internalType": "uint256",
          "name": "_indiceDemande",
          "type": "uint256"
        },
        {
          "internalType": "enum Defi2.etatDemande",
          "name": "_etat",
          "type": "uint8"
        }
      ],
      "name": "changerEtatDemande",
      "outputs": [],
      "payable": false,
      "stateMutability": "nonpayable",
      "type": "function"
    },
    {
      "constant": false,
      "inputs": [
        {
          "internalType": "uint256",
          "name": "_indiceDemande",
          "type": "uint256"
        }
      ],
      "name": "postuler",
      "outputs": [],
      "payable": false,
      "stateMutability": "nonpayable",
      "type": "function"
    },
    {
      "constant": false,
      "inputs": [
        {
          "internalType": "uint256",
          "name": "_indiceDemande",
          "type": "uint256"
        },
        {
          "internalType": "address",
          "name": "_candidatAccepte",
          "type": "address"
        }
      ],
      "name": "accepterOffre",
      "outputs": [],
      "payable": false,
      "stateMutability": "nonpayable",
      "type": "function"
    },
    {
      "constant": true,
      "inputs": [
        {
          "internalType": "string",
          "name": "_link",
          "type": "string"
        }
      ],
      "name": "hashDepot",
      "outputs": [
        {
          "internalType": "bytes32",
          "name": "",
          "type": "bytes32"
        }
      ],
      "payable": false,
      "stateMutability": "pure",
      "type": "function"
    },
    {
      "constant": false,
      "inputs": [
        {
          "internalType": "uint256",
          "name": "_indiceDemande",
          "type": "uint256"
        },
        {
          "internalType": "bytes32",
          "name": "_linkDepot",
          "type": "bytes32"
        }
      ],
      "name": "livraison",
      "outputs": [],
      "payable": false,
      "stateMutability": "nonpayable",
      "type": "function"
    },
    {
      "constant": false,
      "inputs": [
        {
          "internalType": "uint256",
          "name": "_indiceDemande",
          "type": "uint256"
        }
      ],
      "name": "renumeration",
      "outputs": [],
      "payable": true,
      "stateMutability": "payable",
      "type": "function"
    },
    {
      "constant": true,
      "inputs": [],
      "name": "getAdmin",
      "outputs": [
        {
          "internalType": "address",
          "name": "",
          "type": "address"
        }
      ],
      "payable": false,
      "stateMutability": "view",
      "type": "function"
    },
    {
      "constant": true,
      "inputs": [],
      "name": "getAllDemandes",
      "outputs": [
        {
          "components": [
            {
              "internalType": "uint256",
              "name": "renumeration",
              "type": "uint256"
            },
            {
              "internalType": "uint256",
              "name": "delais",
              "type": "uint256"
            },
            {
              "internalType": "uint256",
              "name": "minReputation",
              "type": "uint256"
            },
            {
              "internalType": "string",
              "name": "decrireTache",
              "type": "string"
            },
            {
              "internalType": "enum Defi2.etatDemande",
              "name": "etat",
              "type": "uint8"
            },
            {
              "internalType": "address[]",
              "name": "candidatsAddress",
              "type": "address[]"
            },
            {
              "internalType": "address",
              "name": "entrepriseAddress",
              "type": "address"
            },
            {
              "internalType": "address",
              "name": "candidatAccepte",
              "type": "address"
            },
            {
              "internalType": "bytes32",
              "name": "linkDepot",
              "type": "bytes32"
            },
            {
              "internalType": "bool",
              "name": "autorisePayment",
              "type": "bool"
            }
          ],
          "internalType": "struct Defi2.Demande[]",
          "name": "",
          "type": "tuple[]"
        }
      ],
      "payable": false,
      "stateMutability": "view",
      "type": "function"
    },
    {
      "constant": true,
      "inputs": [
        {
          "internalType": "uint256",
          "name": "_indice",
          "type": "uint256"
        }
      ],
      "name": "getDemande",
      "outputs": [
        {
          "components": [
            {
              "internalType": "uint256",
              "name": "renumeration",
              "type": "uint256"
            },
            {
              "internalType": "uint256",
              "name": "delais",
              "type": "uint256"
            },
            {
              "internalType": "uint256",
              "name": "minReputation",
              "type": "uint256"
            },
            {
              "internalType": "string",
              "name": "decrireTache",
              "type": "string"
            },
            {
              "internalType": "enum Defi2.etatDemande",
              "name": "etat",
              "type": "uint8"
            },
            {
              "internalType": "address[]",
              "name": "candidatsAddress",
              "type": "address[]"
            },
            {
              "internalType": "address",
              "name": "entrepriseAddress",
              "type": "address"
            },
            {
              "internalType": "address",
              "name": "candidatAccepte",
              "type": "address"
            },
            {
              "internalType": "bytes32",
              "name": "linkDepot",
              "type": "bytes32"
            },
            {
              "internalType": "bool",
              "name": "autorisePayment",
              "type": "bool"
            }
          ],
          "internalType": "struct Defi2.Demande",
          "name": "",
          "type": "tuple"
        }
      ],
      "payable": false,
      "stateMutability": "view",
      "type": "function"
    },
    {
      "constant": true,
      "inputs": [
        {
          "internalType": "address",
          "name": "_address",
          "type": "address"
        }
      ],
      "name": "getUtilisateur",
      "outputs": [
        {
          "components": [
            {
              "internalType": "string",
              "name": "nom",
              "type": "string"
            },
            {
              "internalType": "string",
              "name": "prenom",
              "type": "string"
            },
            {
              "internalType": "address",
              "name": "adr",
              "type": "address"
            },
            {
              "internalType": "uint256",
              "name": "reputation",
              "type": "uint256"
            }
          ],
          "internalType": "struct Defi2.Utilisateur",
          "name": "",
          "type": "tuple"
        }
      ],
      "payable": false,
      "stateMutability": "view",
      "type": "function"
    },
    {
      "constant": true,
      "inputs": [
        {
          "internalType": "address",
          "name": "_address",
          "type": "address"
        }
      ],
      "name": "getBannies",
      "outputs": [
        {
          "internalType": "bool",
          "name": "",
          "type": "bool"
        }
      ],
      "payable": false,
      "stateMutability": "view",
      "type": "function"
    }
  ],
  "bytecode": "0x608060405234801561001057600080fd5b50336000806101000a81548173ffffffffffffffffffffffffffffffffffffffff021916908373ffffffffffffffffffffffffffffffffffffffff160217905550613d6c806100606000396000f3fe6080604052600436106100f35760003560e01c80636e9960c31161008a578063e783a5b411610059578063e783a5b414610333578063fd43e69b1461035c578063fe9603c914610399578063fff8d161146103c2576100f3565b80636e9960c31461026557806389480c4814610290578063a6edb17e146102cd578063d617a95b146102f6576100f3565b80632ce78fc0116100c65780632ce78fc0146101a357806345ea43b0146101e05780635267c7de146102095780635b31762914610249576100f3565b80630aeeb302146100f8578063108492fe146101145780631db6a3e61461013d57806321fec34d14610166575b600080fd5b610112600480360361010d9190810190612b0d565b6103ed565b005b34801561012057600080fd5b5061013b60048036036101369190810190612bae565b610717565b005b34801561014957600080fd5b50610164600480360361015f9190810190612a37565b6108d7565b005b34801561017257600080fd5b5061018d60048036036101889190810190612a37565b610b6e565b60405161019a9190613755565b60405180910390f35b3480156101af57600080fd5b506101ca60048036036101c59190810190612b0d565b610bc4565b6040516101d79190613a80565b60405180910390f35b3480156101ec57600080fd5b5061020760048036036102029190810190612b0d565b610e46565b005b34801561021557600080fd5b50610230600480360361022b9190810190612a37565b611066565b60405161024094939291906137ad565b60405180910390f35b610263600480360361025e9190810190612bea565b6111e6565b005b34801561027157600080fd5b5061027a61172b565b60405161028791906136ef565b60405180910390f35b34801561029c57600080fd5b506102b760048036036102b29190810190612a37565b611754565b6040516102c49190613aa2565b60405180910390f35b3480156102d957600080fd5b506102f460048036036102ef9190810190612b72565b611951565b005b34801561030257600080fd5b5061031d60048036036103189190810190612a37565b611cd1565b60405161032a9190613755565b60405180910390f35b34801561033f57600080fd5b5061035a60048036036103559190810190612b36565b611cf1565b005b34801561036857600080fd5b50610383600480360361037e9190810190612a60565b6120a8565b6040516103909190613770565b60405180910390f35b3480156103a557600080fd5b506103c060048036036103bb9190810190612aa1565b6120b9565b005b3480156103ce57600080fd5b506103d7612334565b6040516103e49190613733565b60405180910390f35b3373ffffffffffffffffffffffffffffffffffffffff16600260003373ffffffffffffffffffffffffffffffffffffffff1673ffffffffffffffffffffffffffffffffffffffff16815260200190815260200160002060020160009054906101000a900473ffffffffffffffffffffffffffffffffffffffff1673ffffffffffffffffffffffffffffffffffffffff16146104bd576040517f08c379a00000000000000000000000000000000000000000000000000000000081526004016104b490613a40565b60405180910390fd5b6001805490508110610504576040517f08c379a00000000000000000000000000000000000000000000000000000000081526004016104fb90613800565b60405180910390fd5b3373ffffffffffffffffffffffffffffffffffffffff166001828154811061052857fe5b90600052602060002090600a020160070160009054906101000a900473ffffffffffffffffffffffffffffffffffffffff1673ffffffffffffffffffffffffffffffffffffffff16146105b0576040517f08c379a00000000000000000000000000000000000000000000000000000000081526004016105a790613980565b60405180910390fd5b60011515600182815481106105c157fe5b90600052602060002090600a020160090160009054906101000a900460ff16151514610622576040517f08c379a000000000000000000000000000000000000000000000000000000000815260040161061990613a00565b60405180910390fd5b3373ffffffffffffffffffffffffffffffffffffffff166108fc6001838154811061064957fe5b90600052602060002090600a0201600001549081150290604051600060405180830381858888f19350505050158015610686573d6000803e3d6000fd5b50600180828154811061069557fe5b90600052602060002090600a020160090160006101000a81548160ff0219169083151502179055507f66642b3162fab70643d3e58f385200fb1245de066a59dddea017d21bea00d24233600183815481106106ec57fe5b90600052602060002090600a02016000015460405161070c92919061370a565b60405180910390a150565b3373ffffffffffffffffffffffffffffffffffffffff16600260003373ffffffffffffffffffffffffffffffffffffffff1673ffffffffffffffffffffffffffffffffffffffff16815260200190815260200160002060020160009054906101000a900473ffffffffffffffffffffffffffffffffffffffff1673ffffffffffffffffffffffffffffffffffffffff1614156107e8576040517f08c379a00000000000000000000000000000000000000000000000000000000081526004016107df90613820565b60405180910390fd5b3373ffffffffffffffffffffffffffffffffffffffff166001838154811061080c57fe5b90600052602060002090600a020160060160009054906101000a900473ffffffffffffffffffffffffffffffffffffffff1673ffffffffffffffffffffffffffffffffffffffff1614610894576040517f08c379a000000000000000000000000000000000000000000000000000000000815260040161088b90613880565b60405180910390fd5b80600183815481106108a257fe5b90600052602060002090600a020160040160006101000a81548160ff021916908360028111156108ce57fe5b02179055505050565b8060001515600360008373ffffffffffffffffffffffffffffffffffffffff1673ffffffffffffffffffffffffffffffffffffffff16815260200190815260200160002060009054906101000a900460ff1615151461096b576040517f08c379a0000000000000000000000000000000000000000000000000000000008152600401610962906139c0565b60405180910390fd5b3373ffffffffffffffffffffffffffffffffffffffff166000809054906101000a900473ffffffffffffffffffffffffffffffffffffffff1673ffffffffffffffffffffffffffffffffffffffff16146109fa576040517f08c379a00000000000000000000000000000000000000000000000000000000081526004016109f1906139a0565b60405180910390fd5b8173ffffffffffffffffffffffffffffffffffffffff16600260008473ffffffffffffffffffffffffffffffffffffffff1673ffffffffffffffffffffffffffffffffffffffff16815260200190815260200160002060020160009054906101000a900473ffffffffffffffffffffffffffffffffffffffff1673ffffffffffffffffffffffffffffffffffffffff1614610aca576040517f08c379a0000000000000000000000000000000000000000000000000000000008152600401610ac190613a40565b60405180910390fd5b6001600360008473ffffffffffffffffffffffffffffffffffffffff1673ffffffffffffffffffffffffffffffffffffffff16815260200190815260200160002060006101000a81548160ff0219169083151502179055506000600260008473ffffffffffffffffffffffffffffffffffffffff1673ffffffffffffffffffffffffffffffffffffffff168152602001908152602001600020600301819055505050565b6000600360008373ffffffffffffffffffffffffffffffffffffffff1673ffffffffffffffffffffffffffffffffffffffff16815260200190815260200160002060009054906101000a900460ff169050919050565b610bcc612750565b60018281548110610bd957fe5b90600052602060002090600a020160405180610140016040529081600082015481526020016001820154815260200160028201548152602001600382018054600181600116156101000203166002900480601f016020809104026020016040519081016040528092919081815260200182805460018160011615610100020316600290048015610caa5780601f10610c7f57610100808354040283529160200191610caa565b820191906000526020600020905b815481529060010190602001808311610c8d57829003601f168201915b505050505081526020016004820160009054906101000a900460ff166002811115610cd157fe5b6002811115610cdc57fe5b815260200160058201805480602002602001604051908101604052809291908181526020018280548015610d6557602002820191906000526020600020905b8160009054906101000a900473ffffffffffffffffffffffffffffffffffffffff1673ffffffffffffffffffffffffffffffffffffffff1681526020019060010190808311610d1b575b505050505081526020016006820160009054906101000a900473ffffffffffffffffffffffffffffffffffffffff1673ffffffffffffffffffffffffffffffffffffffff1673ffffffffffffffffffffffffffffffffffffffff1681526020016007820160009054906101000a900473ffffffffffffffffffffffffffffffffffffffff1673ffffffffffffffffffffffffffffffffffffffff1673ffffffffffffffffffffffffffffffffffffffff168152602001600882015481526020016009820160009054906101000a900460ff1615151515815250509050919050565b3373ffffffffffffffffffffffffffffffffffffffff16600260003373ffffffffffffffffffffffffffffffffffffffff1673ffffffffffffffffffffffffffffffffffffffff16815260200190815260200160002060020160009054906101000a900473ffffffffffffffffffffffffffffffffffffffff1673ffffffffffffffffffffffffffffffffffffffff1614610f16576040517f08c379a0000000000000000000000000000000000000000000000000000000008152600401610f0d90613a40565b60405180910390fd5b6001805490508110610f5d576040517f08c379a0000000000000000000000000000000000000000000000000000000008152600401610f5490613800565b60405180910390fd5b60006002811115610f6a57fe5b60018281548110610f7757fe5b90600052602060002090600a020160040160009054906101000a900460ff166002811115610fa157fe5b14610fe1576040517f08c379a0000000000000000000000000000000000000000000000000000000008152600401610fd8906138c0565b60405180910390fd5b60018181548110610fee57fe5b90600052602060002090600a02016005013390806001815401808255809150509060018203906000526020600020016000909192909190916101000a81548173ffffffffffffffffffffffffffffffffffffffff021916908373ffffffffffffffffffffffffffffffffffffffff1602179055505050565b6002602052806000526040600020600091509050806000018054600181600116156101000203166002900480601f0160208091040260200160405190810160405280929190818152602001828054600181600116156101000203166002900480156111125780601f106110e757610100808354040283529160200191611112565b820191906000526020600020905b8154815290600101906020018083116110f557829003601f168201915b505050505090806001018054600181600116156101000203166002900480601f0160208091040260200160405190810160405280929190818152602001828054600181600116156101000203166002900480156111b05780601f10611185576101008083540402835291602001916111b0565b820191906000526020600020905b81548152906001019060200180831161119357829003601f168201915b5050505050908060020160009054906101000a900473ffffffffffffffffffffffffffffffffffffffff16908060030154905084565b60008511611229576040517f08c379a000000000000000000000000000000000000000000000000000000000815260040161122090613a60565b60405180910390fd5b3373ffffffffffffffffffffffffffffffffffffffff16600260003373ffffffffffffffffffffffffffffffffffffffff1673ffffffffffffffffffffffffffffffffffffffff16815260200190815260200160002060020160009054906101000a900473ffffffffffffffffffffffffffffffffffffffff1673ffffffffffffffffffffffffffffffffffffffff16146112f9576040517f08c379a00000000000000000000000000000000000000000000000000000000081526004016112f090613960565b60405180910390fd5b6000841161133c576040517f08c379a000000000000000000000000000000000000000000000000000000000815260040161133390613940565b60405180910390fd5b61137561136660646113586002896125e090919063ffffffff16565b61265090919063ffffffff16565b8661269a90919063ffffffff16565b3410156113b7576040517f08c379a00000000000000000000000000000000000000000000000000000000081526004016113ae90613920565b60405180910390fd5b60008351116113fb576040517f08c379a00000000000000000000000000000000000000000000000000000000081526004016113f290613840565b60405180910390fd5b6000600281111561140857fe5b82600281111561141457fe5b1480611435575060028081111561142757fe5b82600281111561143357fe5b145b611474576040517f08c379a000000000000000000000000000000000000000000000000000000000815260040161146b906138e0565b60405180910390fd5b600081116114b7576040517f08c379a00000000000000000000000000000000000000000000000000000000081526004016114ae90613860565b60405180910390fd5b6114bf612750565b858160000181815250508481602001818152505083816060018190525082816080019060028111156114ed57fe5b908160028111156114fa57fe5b8152505081816040018181525050338160c0019073ffffffffffffffffffffffffffffffffffffffff16908173ffffffffffffffffffffffffffffffffffffffff16815250506001819080600181540180825580915050906001820390600052602060002090600a02016000909192909190915060008201518160000155602082015181600101556040820151816002015560608201518160030190805190602001906115a89291906127df565b5060808201518160040160006101000a81548160ff021916908360028111156115cd57fe5b021790555060a08201518160050190805190602001906115ee92919061285f565b5060c08201518160060160006101000a81548173ffffffffffffffffffffffffffffffffffffffff021916908373ffffffffffffffffffffffffffffffffffffffff16021790555060e08201518160070160006101000a81548173ffffffffffffffffffffffffffffffffffffffff021916908373ffffffffffffffffffffffffffffffffffffffff16021790555061010082015181600801556101208201518160090160006101000a81548160ff02191690831515021790555050505060006116e76116d860646116ca60028b6125e090919063ffffffff16565b61265090919063ffffffff16565b8861269a90919063ffffffff16565b90507fcb4440121070d175d800daa9555803591dee6e1bf0f37b959c81df69eae45529338260405161171a92919061370a565b60405180910390a150505050505050565b60008060009054906101000a900473ffffffffffffffffffffffffffffffffffffffff16905090565b61175c6128e9565b600260008373ffffffffffffffffffffffffffffffffffffffff1673ffffffffffffffffffffffffffffffffffffffff168152602001908152602001600020604051806080016040529081600082018054600181600116156101000203166002900480601f01602080910402602001604051908101604052809291908181526020018280546001816001161561010002031660029004801561183f5780601f106118145761010080835404028352916020019161183f565b820191906000526020600020905b81548152906001019060200180831161182257829003601f168201915b50505050508152602001600182018054600181600116156101000203166002900480601f0160208091040260200160405190810160405280929190818152602001828054600181600116156101000203166002900480156118e15780601f106118b6576101008083540402835291602001916118e1565b820191906000526020600020905b8154815290600101906020018083116118c457829003601f168201915b505050505081526020016002820160009054906101000a900473ffffffffffffffffffffffffffffffffffffffff1673ffffffffffffffffffffffffffffffffffffffff1673ffffffffffffffffffffffffffffffffffffffff1681526020016003820154815250509050919050565b3373ffffffffffffffffffffffffffffffffffffffff16600260003373ffffffffffffffffffffffffffffffffffffffff1673ffffffffffffffffffffffffffffffffffffffff16815260200190815260200160002060020160009054906101000a900473ffffffffffffffffffffffffffffffffffffffff1673ffffffffffffffffffffffffffffffffffffffff1614611a21576040517f08c379a0000000000000000000000000000000000000000000000000000000008152600401611a1890613a40565b60405180910390fd5b6001805490508210611a68576040517f08c379a0000000000000000000000000000000000000000000000000000000008152600401611a5f90613800565b60405180910390fd5b3373ffffffffffffffffffffffffffffffffffffffff1660018381548110611a8c57fe5b90600052602060002090600a020160070160009054906101000a900473ffffffffffffffffffffffffffffffffffffffff1673ffffffffffffffffffffffffffffffffffffffff1614611b14576040517f08c379a0000000000000000000000000000000000000000000000000000000008152600401611b0b90613980565b60405180910390fd5b60016002811115611b2157fe5b60018381548110611b2e57fe5b90600052602060002090600a020160040160009054906101000a900460ff166002811115611b5857fe5b14611b98576040517f08c379a0000000000000000000000000000000000000000000000000000000008152600401611b8f90613900565b60405180910390fd5b8060018381548110611ba657fe5b90600052602060002090600a020160080181905550600260018381548110611bca57fe5b90600052602060002090600a020160040160006101000a81548160ff02191690836002811115611bf657fe5b02179055506001808381548110611c0957fe5b90600052602060002090600a020160090160006101000a81548160ff021916908315150217905550611c876001600260003373ffffffffffffffffffffffffffffffffffffffff1673ffffffffffffffffffffffffffffffffffffffff1681526020019081526020016000206003015461269a90919063ffffffff16565b600260003373ffffffffffffffffffffffffffffffffffffffff1673ffffffffffffffffffffffffffffffffffffffff168152602001908152602001600020600301819055505050565b60036020528060005260406000206000915054906101000a900460ff1681565b3373ffffffffffffffffffffffffffffffffffffffff16600260003373ffffffffffffffffffffffffffffffffffffffff1673ffffffffffffffffffffffffffffffffffffffff16815260200190815260200160002060020160009054906101000a900473ffffffffffffffffffffffffffffffffffffffff1673ffffffffffffffffffffffffffffffffffffffff1614611dc1576040517f08c379a0000000000000000000000000000000000000000000000000000000008152600401611db890613a40565b60405180910390fd5b8073ffffffffffffffffffffffffffffffffffffffff16600260008373ffffffffffffffffffffffffffffffffffffffff1673ffffffffffffffffffffffffffffffffffffffff16815260200190815260200160002060020160009054906101000a900473ffffffffffffffffffffffffffffffffffffffff1673ffffffffffffffffffffffffffffffffffffffff1614611e91576040517f08c379a0000000000000000000000000000000000000000000000000000000008152600401611e8890613a40565b60405180910390fd5b6001805490508210611ed8576040517f08c379a0000000000000000000000000000000000000000000000000000000008152600401611ecf90613800565b60405180910390fd5b3373ffffffffffffffffffffffffffffffffffffffff1660018381548110611efc57fe5b90600052602060002090600a020160060160009054906101000a900473ffffffffffffffffffffffffffffffffffffffff1673ffffffffffffffffffffffffffffffffffffffff1614611f84576040517f08c379a0000000000000000000000000000000000000000000000000000000008152600401611f7b90613a20565b60405180910390fd5b60006002811115611f9157fe5b60018381548110611f9e57fe5b90600052602060002090600a020160040160009054906101000a900460ff166002811115611fc857fe5b14612008576040517f08c379a0000000000000000000000000000000000000000000000000000000008152600401611fff906138c0565b60405180910390fd5b806001838154811061201657fe5b90600052602060002090600a020160070160006101000a81548173ffffffffffffffffffffffffffffffffffffffff021916908373ffffffffffffffffffffffffffffffffffffffff160217905550600180838154811061207357fe5b90600052602060002090600a020160040160006101000a81548160ff0219169083600281111561209f57fe5b02179055505050565b600081805190602001209050919050565b3373ffffffffffffffffffffffffffffffffffffffff16600260003373ffffffffffffffffffffffffffffffffffffffff1673ffffffffffffffffffffffffffffffffffffffff16815260200190815260200160002060020160009054906101000a900473ffffffffffffffffffffffffffffffffffffffff1673ffffffffffffffffffffffffffffffffffffffff16141561218a576040517f08c379a000000000000000000000000000000000000000000000000000000000815260040161218190613820565b60405180910390fd5b3360001515600360008373ffffffffffffffffffffffffffffffffffffffff1673ffffffffffffffffffffffffffffffffffffffff16815260200190815260200160002060009054906101000a900460ff1615151461221e576040517f08c379a0000000000000000000000000000000000000000000000000000000008152600401612215906139c0565b60405180910390fd5b6122266128e9565b60405180608001604052808581526020018481526020013373ffffffffffffffffffffffffffffffffffffffff1681526020016001815250905080600260003373ffffffffffffffffffffffffffffffffffffffff1673ffffffffffffffffffffffffffffffffffffffff16815260200190815260200160002060008201518160000190805190602001906122bc9291906127df565b5060208201518160010190805190602001906122d99291906127df565b5060408201518160020160006101000a81548173ffffffffffffffffffffffffffffffffffffffff021916908373ffffffffffffffffffffffffffffffffffffffff1602179055506060820151816003015590505050505050565b60606001805480602002602001604051908101604052809291908181526020016000905b828210156125d757838290600052602060002090600a020160405180610140016040529081600082015481526020016001820154815260200160028201548152602001600382018054600181600116156101000203166002900480601f0160208091040260200160405190810160405280929190818152602001828054600181600116156101000203166002900480156124335780601f1061240857610100808354040283529160200191612433565b820191906000526020600020905b81548152906001019060200180831161241657829003601f168201915b505050505081526020016004820160009054906101000a900460ff16600281111561245a57fe5b600281111561246557fe5b8152602001600582018054806020026020016040519081016040528092919081815260200182805480156124ee57602002820191906000526020600020905b8160009054906101000a900473ffffffffffffffffffffffffffffffffffffffff1673ffffffffffffffffffffffffffffffffffffffff16815260200190600101908083116124a4575b505050505081526020016006820160009054906101000a900473ffffffffffffffffffffffffffffffffffffffff1673ffffffffffffffffffffffffffffffffffffffff1673ffffffffffffffffffffffffffffffffffffffff1681526020016007820160009054906101000a900473ffffffffffffffffffffffffffffffffffffffff1673ffffffffffffffffffffffffffffffffffffffff1673ffffffffffffffffffffffffffffffffffffffff168152602001600882015481526020016009820160009054906101000a900460ff16151515158152505081526020019060010190612358565b50505050905090565b6000808314156125f3576000905061264a565b600082840290508284828161260457fe5b0414612645576040517f08c379a000000000000000000000000000000000000000000000000000000000815260040161263c906139e0565b60405180910390fd5b809150505b92915050565b600061269283836040518060400160405280601a81526020017f536166654d6174683a206469766973696f6e206279207a65726f0000000000008152506126ef565b905092915050565b6000808284019050838110156126e5576040517f08c379a00000000000000000000000000000000000000000000000000000000081526004016126dc906138a0565b60405180910390fd5b8091505092915050565b60008083118290612736576040517f08c379a000000000000000000000000000000000000000000000000000000000815260040161272d919061378b565b60405180910390fd5b50600083858161274257fe5b049050809150509392505050565b604051806101400160405280600081526020016000815260200160008152602001606081526020016000600281111561278557fe5b815260200160608152602001600073ffffffffffffffffffffffffffffffffffffffff168152602001600073ffffffffffffffffffffffffffffffffffffffff168152602001600080191681526020016000151581525090565b828054600181600116156101000203166002900490600052602060002090601f016020900481019282601f1061282057805160ff191683800117855561284e565b8280016001018555821561284e579182015b8281111561284d578251825591602001919060010190612832565b5b50905061285b9190612927565b5090565b8280548282559060005260206000209081019282156128d8579160200282015b828111156128d75782518260006101000a81548173ffffffffffffffffffffffffffffffffffffffff021916908373ffffffffffffffffffffffffffffffffffffffff1602179055509160200191906001019061287f565b5b5090506128e5919061294c565b5090565b60405180608001604052806060815260200160608152602001600073ffffffffffffffffffffffffffffffffffffffff168152602001600081525090565b61294991905b8082111561294557600081600090555060010161292d565b5090565b90565b61298c91905b8082111561298857600081816101000a81549073ffffffffffffffffffffffffffffffffffffffff021916905550600101612952565b5090565b90565b60008135905061299e81613cd4565b92915050565b6000813590506129b381613ceb565b92915050565b6000813590506129c881613d02565b92915050565b600082601f8301126129df57600080fd5b81356129f26129ed82613af1565b613ac4565b91508082526020830160208301858383011115612a0e57600080fd5b612a19838284613c74565b50505092915050565b600081359050612a3181613d12565b92915050565b600060208284031215612a4957600080fd5b6000612a578482850161298f565b91505092915050565b600060208284031215612a7257600080fd5b600082013567ffffffffffffffff811115612a8c57600080fd5b612a98848285016129ce565b91505092915050565b60008060408385031215612ab457600080fd5b600083013567ffffffffffffffff811115612ace57600080fd5b612ada858286016129ce565b925050602083013567ffffffffffffffff811115612af757600080fd5b612b03858286016129ce565b9150509250929050565b600060208284031215612b1f57600080fd5b6000612b2d84828501612a22565b91505092915050565b60008060408385031215612b4957600080fd5b6000612b5785828601612a22565b9250506020612b688582860161298f565b9150509250929050565b60008060408385031215612b8557600080fd5b6000612b9385828601612a22565b9250506020612ba4858286016129a4565b9150509250929050565b60008060408385031215612bc157600080fd5b6000612bcf85828601612a22565b9250506020612be0858286016129b9565b9150509250929050565b600080600080600060a08688031215612c0257600080fd5b6000612c1088828901612a22565b9550506020612c2188828901612a22565b945050604086013567ffffffffffffffff811115612c3e57600080fd5b612c4a888289016129ce565b9350506060612c5b888289016129b9565b9250506080612c6c88828901612a22565b9150509295509295909350565b6000612c858383612cb4565b60208301905092915050565b6000612c9d8383613586565b905092915050565b612cae81613c2c565b82525050565b612cbd81613bc7565b82525050565b612ccc81613bc7565b82525050565b6000612cdd82613b3d565b612ce78185613b83565b9350612cf283613b1d565b8060005b83811015612d23578151612d0a8882612c79565b9750612d1583613b69565b925050600181019050612cf6565b5085935050505092915050565b6000612d3b82613b48565b612d458185613b94565b935083602082028501612d5785613b2d565b8060005b85811015612d935784840389528151612d748582612c91565b9450612d7f83613b76565b925060208a01995050600181019050612d5b565b50829750879550505050505092915050565b612dae81613bd9565b82525050565b612dbd81613bd9565b82525050565b612dcc81613be5565b82525050565b612ddb81613be5565b82525050565b612dea81613c3e565b82525050565b6000612dfb82613b5e565b612e058185613bb6565b9350612e15818560208601613c83565b612e1e81613cb6565b840191505092915050565b6000612e3482613b53565b612e3e8185613ba5565b9350612e4e818560208601613c83565b612e5781613cb6565b840191505092915050565b6000612e6d82613b53565b612e778185613bb6565b9350612e87818560208601613c83565b612e9081613cb6565b840191505092915050565b6000612ea8601883613bb6565b91507f6c612064656d616e646573206e276578697374652070617300000000000000006000830152602082019050919050565b6000612ee8601983613bb6565b91507f5574696c697361746575722064c3a96a6120696e7363726974000000000000006000830152602082019050919050565b6000612f28602283613bb6565b91507f496c206661757420756e65206465736372697074696f6e20646573207461636860008301527f65730000000000000000000000000000000000000000000000000000000000006020830152604082019050919050565b6000612f8e602483613bb6565b91507f6c612072657075746174696f6e206d696e696d616c6520646f6974206574726560008301527f203e2030000000000000000000000000000000000000000000000000000000006020830152604082019050919050565b6000612ff4602983613bb6565b91507f766f7573206e276574657320706173206c65206372656174657572206465206c60008301527f612064656d616e646500000000000000000000000000000000000000000000006020830152604082019050919050565b600061305a601b83613bb6565b91507f536166654d6174683a206164646974696f6e206f766572666c6f7700000000006000830152602082019050919050565b600061309a601c83613bb6565b91507f6c612064656d616e6465206e2765737420706173206f757665727465000000006000830152602082019050919050565b60006130da602183613bb6565b91507f6c2765746174206465206c612044656d616e64652065737420696e646566696e60008301527f69000000000000000000000000000000000000000000000000000000000000006020830152604082019050919050565b6000613140601d83613bb6565b91507f6c612064656d616e6465206e276573742070617320656e20636f7572730000006000830152602082019050919050565b6000613180601f83613bb6565b91507f6d73672e76616c7565203a206e276573742070617320737566666973616e74006000830152602082019050919050565b60006131c0601583613bb6565b91507f696c206661757420756e2064656c616973203e203000000000000000000000006000830152602082019050919050565b6000613200601d83613bb6565b91507f7574696c69736174657572206e276573742070617320696e73637269740000006000830152602082019050919050565b6000613240603783613bb6565b91507f766f7573206e276574657320706173206c652063616e6469646174206163636560008301527f7074c3a920706f75722063657474652064656d616e64650000000000000000006020830152604082019050919050565b60006132a6601f83613bb6565b91507f566f7573206e27c3aa746573207061732061646d696e697374726174657572006000830152602082019050919050565b60006132e6600c83613bb6565b91507f64c3a96a612062616e6e696500000000000000000000000000000000000000006000830152602082019050919050565b6000613326602183613bb6565b91507f536166654d6174683a206d756c7469706c69636174696f6e206f766572666c6f60008301527f77000000000000000000000000000000000000000000000000000000000000006020830152604082019050919050565b600061338c601c83613bb6565b91507f5061796d656e742070617320656e636f7265206175746f726973c3a9000000006000830152602082019050919050565b60006133cc602a83613bb6565b91507f766f7573206e276574657320706173206c6520746974756c616972652064652060008301527f6c612064656d616e6465000000000000000000000000000000000000000000006020830152604082019050919050565b6000613432601183613bb6565b91507f6e276573742070617320696e73637269740000000000000000000000000000006000830152602082019050919050565b6000613472601c83613bb6565b91507f496c206661757420756e652072656e756d65726174696f6e203e2030000000006000830152602082019050919050565b6000610140830160008301516134be60008601826136d1565b5060208301516134d160208601826136d1565b5060408301516134e460408601826136d1565b50606083015184820360608601526134fc8282612e29565b91505060808301516135116080860182612de1565b5060a083015184820360a08601526135298282612cd2565b91505060c083015161353e60c0860182612cb4565b5060e083015161355160e0860182612cb4565b50610100830151613566610100860182612dc3565b5061012083015161357b610120860182612da5565b508091505092915050565b60006101408301600083015161359f60008601826136d1565b5060208301516135b260208601826136d1565b5060408301516135c560408601826136d1565b50606083015184820360608601526135dd8282612e29565b91505060808301516135f26080860182612de1565b5060a083015184820360a086015261360a8282612cd2565b91505060c083015161361f60c0860182612cb4565b5060e083015161363260e0860182612cb4565b50610100830151613647610100860182612dc3565b5061012083015161365c610120860182612da5565b508091505092915050565b600060808301600083015184820360008601526136848282612e29565b9150506020830151848203602086015261369e8282612e29565b91505060408301516136b36040860182612cb4565b5060608301516136c660608601826136d1565b508091505092915050565b6136da81613c22565b82525050565b6136e981613c22565b82525050565b60006020820190506137046000830184612cc3565b92915050565b600060408201905061371f6000830185612ca5565b61372c60208301846136e0565b9392505050565b6000602082019050818103600083015261374d8184612d30565b905092915050565b600060208201905061376a6000830184612db4565b92915050565b60006020820190506137856000830184612dd2565b92915050565b600060208201905081810360008301526137a58184612df0565b905092915050565b600060808201905081810360008301526137c78187612e62565b905081810360208301526137db8186612e62565b90506137ea6040830185612cc3565b6137f760608301846136e0565b95945050505050565b6000602082019050818103600083015261381981612e9b565b9050919050565b6000602082019050818103600083015261383981612edb565b9050919050565b6000602082019050818103600083015261385981612f1b565b9050919050565b6000602082019050818103600083015261387981612f81565b9050919050565b6000602082019050818103600083015261389981612fe7565b9050919050565b600060208201905081810360008301526138b98161304d565b9050919050565b600060208201905081810360008301526138d98161308d565b9050919050565b600060208201905081810360008301526138f9816130cd565b9050919050565b6000602082019050818103600083015261391981613133565b9050919050565b6000602082019050818103600083015261393981613173565b9050919050565b60006020820190508181036000830152613959816131b3565b9050919050565b60006020820190508181036000830152613979816131f3565b9050919050565b6000602082019050818103600083015261399981613233565b9050919050565b600060208201905081810360008301526139b981613299565b9050919050565b600060208201905081810360008301526139d9816132d9565b9050919050565b600060208201905081810360008301526139f981613319565b9050919050565b60006020820190508181036000830152613a198161337f565b9050919050565b60006020820190508181036000830152613a39816133bf565b9050919050565b60006020820190508181036000830152613a5981613425565b9050919050565b60006020820190508181036000830152613a7981613465565b9050919050565b60006020820190508181036000830152613a9a81846134a5565b905092915050565b60006020820190508181036000830152613abc8184613667565b905092915050565b6000604051905081810181811067ffffffffffffffff82111715613ae757600080fd5b8060405250919050565b600067ffffffffffffffff821115613b0857600080fd5b601f19601f8301169050602081019050919050565b6000819050602082019050919050565b6000819050602082019050919050565b600081519050919050565b600081519050919050565b600081519050919050565b600081519050919050565b6000602082019050919050565b6000602082019050919050565b600082825260208201905092915050565b600082825260208201905092915050565b600082825260208201905092915050565b600082825260208201905092915050565b6000613bd282613c02565b9050919050565b60008115159050919050565b6000819050919050565b6000819050613bfd82613cc7565b919050565b600073ffffffffffffffffffffffffffffffffffffffff82169050919050565b6000819050919050565b6000613c3782613c50565b9050919050565b6000613c4982613bef565b9050919050565b6000613c5b82613c62565b9050919050565b6000613c6d82613c02565b9050919050565b82818337600083830152505050565b60005b83811015613ca1578082015181840152602081019050613c86565b83811115613cb0576000848401525b50505050565b6000601f19601f8301169050919050565b60038110613cd157fe5b50565b613cdd81613bc7565b8114613ce857600080fd5b50565b613cf481613be5565b8114613cff57600080fd5b50565b60038110613d0f57600080fd5b50565b613d1b81613c22565b8114613d2657600080fd5b5056fea365627a7a723158207bf4714e52f0e8553a3bbe6408ed7b73f7bdaa909e68d84b0cc7acfa0b3b58816c6578706572696d656e74616cf564736f6c63430005100040",
  "source": "pragma solidity 0.5.16;\r\n\r\npragma experimental ABIEncoderV2;\r\n\r\nimport \"./SafeMath.sol\";\r\n/// @title Dfi #2: Place de march dillustrateurs indpendants\r\n/// @author Ines Khoufi\r\n/// @notice Ce contrat assure les fonctionalits suivantes: Mcanisme de rputation, Liste de demandes, Mcanisme de contractualisation\r\n/// @dev Des fonctions basiques\r\n\r\ncontract Defi2 {\r\n    using SafeMath for uint;\r\n    address private admin;\r\n    enum etatDemande {OUVERTE, ENCOURS, FERMER}\r\n    Demande[] private demandes;\r\n    mapping (address => Utilisateur) public utilisateur;\r\n    mapping (address => bool) public bannies;\r\n\r\n    struct Utilisateur {\r\n        string nom;\r\n        string prenom;\r\n        address adr;\r\n        uint reputation;\r\n    }\r\n    struct Demande {\r\n        uint renumeration;\r\n        uint delais;\r\n        uint minReputation;\r\n        string decrireTache;\r\n        etatDemande etat;\r\n        address[] candidatsAddress;\r\n        address entrepriseAddress;\r\n        address candidatAccepte;\r\n        bytes32 linkDepot;\r\n        bool autorisePayment;\r\n        //mapping(address => Utilisateur) candidats;\r\n    }\r\n    modifier nestInscrit(){\r\n        require(utilisateur[msg.sender].adr != msg.sender, \"Utilisateur dja inscrit\");\r\n        _;\r\n    }\r\n    modifier estAdmin(){\r\n        require(admin == msg.sender, \"Vous n'tes pas administrateur\");\r\n        _;\r\n    }\r\n    modifier nEstPasBannie(address _address){\r\n        require(bannies[_address] == false, \"dja bannie\");\r\n        _;\r\n    }\r\n    /*\r\n     *Event ajouter demande\r\n     *address du demandeur\r\n     *valeur a payer\r\n    */\r\n    event eventAjouterDemande(address demandeur, uint val);\r\n    /*\r\n     *Event candidat pay\r\n     *address du candidat\r\n     *renumeration\r\n    */\r\n    event eventCandidatPaye(address candidat, uint val);\r\n\r\n    constructor() public {\r\n        admin = msg.sender;\r\n    }\r\n\r\n    /// @notice Cette fonction d'inscrire un utilisateur\r\n    /// @param _nom le nom de l'utilisateur\r\n    /// @param _prenom le prenom de l'utilisateur\r\n\r\n    function inscription(string memory _nom, string memory _prenom) public nestInscrit()\r\n    nEstPasBannie(msg.sender){\r\n        Utilisateur memory user = Utilisateur(_nom, _prenom, msg.sender, 1);\r\n        utilisateur[msg.sender] = user;\r\n    }\r\n\r\n    ///@notice Cette fonction permet a l'Administrateur de Bannir un utilisateur\r\n    ///@param _address addresse de l'utilisateur qui va etre bannie\r\n\r\n    function bannie (address _address) public  nEstPasBannie(_address) estAdmin  {\r\n        require (utilisateur[_address].adr == _address, \"n'est pas inscrit\");\r\n        bannies[_address] = true;\r\n        utilisateur[_address].reputation = 0;\r\n    }\r\n\r\n    /// @notice Cette fonction permet d'ajouter une demande d'offre d'emploi\r\n    /// @param _renumeration Renumeration propose\r\n    /// @param _delais delais de la demande\r\n    /// @param _decrireTache decription de l'offre\r\n    /// @param _etat etat de la demande (Ouverte,encours,ferm)\r\n    /// @param _minReputation la reputation minimale necessaire pour postuler  l'offre\r\n\r\n    function ajouterDemande(uint _renumeration, uint _delais, string memory _decrireTache, etatDemande _etat,\r\n    uint _minReputation) public payable {\r\n      require(_renumeration > 0, \"Il faut une renumeration > 0\");\r\n      require(utilisateur[msg.sender].adr == msg.sender, \"utilisateur n'est pas inscrit\");\r\n      require(_delais > 0, \"il faut un delais > 0\");\r\n      require(msg.value >= _renumeration.add(_renumeration.mul(2).div(100)), \"msg.value : n'est pas suffisant\");\r\n      require(bytes(_decrireTache).length > 0, \"Il faut une description des taches\");\r\n      require(_etat == etatDemande.OUVERTE || _etat == etatDemande.FERMER, \"l'etat de la Demande est indefini\");\r\n      require(_minReputation > 0, \"la reputation minimale doit etre > 0\");\r\n      Demande memory dem;\r\n      dem.renumeration = _renumeration;\r\n      dem.delais = _delais;\r\n      dem.decrireTache = _decrireTache;\r\n      dem.etat = _etat;\r\n      dem.minReputation = _minReputation;\r\n      dem.entrepriseAddress = msg.sender;\r\n      demandes.push(dem);\r\n      uint val = _renumeration.add(_renumeration.mul(2).div(100));\r\n      emit eventAjouterDemande(msg.sender, val);\r\n    }\r\n\r\n    /// @notice Cette fonction permet a un utilisateur (createur de la demande) de changer l'etat de la demande\r\n    /// @param _indiceDemande indice de la demande\r\n    /// @param _etat etat de la demande (Ouverte,encours,ferm)\r\n\r\n    function changerEtatDemande(uint _indiceDemande, etatDemande _etat) public nestInscrit() {\r\n        require(demandes[_indiceDemande].entrepriseAddress == msg.sender, \"vous n'etes pas le createur de la demande\");\r\n        demandes[_indiceDemande].etat = _etat;\r\n    }\r\n\r\n    /// @notice Cette fonction permet a un utilisateur (candidat) de postuler  une demande (offre)\r\n    /// @param _indiceDemande indice de la demande\r\n\r\n    function postuler(uint _indiceDemande) public {\r\n      require (utilisateur[msg.sender].adr == msg.sender, \"n'est pas inscrit\");\r\n      require(_indiceDemande < demandes.length, \"la demandes n'existe pas\");\r\n      require(demandes[_indiceDemande].etat == etatDemande.OUVERTE, \"la demande n'est pas ouverte\");\r\n      demandes[_indiceDemande].candidatsAddress.push(msg.sender);\r\n     // demandes[_indiceDemande].candidats[msg.sender] = utilisateur[msg.sender];\r\n    }\r\n\r\n    /// @notice Cette fonction permet a un utilisateur (representant de l'entreprise) d'accepter une candidature\r\n    /// @param _indiceDemande indice de la demande\r\n    /// @param _candidatAccepte l'adresse du candidat accept\r\n\r\n    function accepterOffre(uint _indiceDemande,address _candidatAccepte) public {\r\n        require (utilisateur[msg.sender].adr == msg.sender, \"n'est pas inscrit\");\r\n        require (utilisateur[_candidatAccepte].adr == _candidatAccepte, \"n'est pas inscrit\");\r\n        require(_indiceDemande < demandes.length, \"la demandes n'existe pas\");\r\n        require(demandes[_indiceDemande].entrepriseAddress == msg.sender, \"vous n'etes pas le titulaire de la demande\");\r\n        require(demandes[_indiceDemande].etat == etatDemande.OUVERTE, \"la demande n'est pas ouverte\");\r\n        //require(demandes[_indiceDemande].minReputation <= demandes[_indiceDemande].candidats[_candidatAccepte].reputation,\r\n       //  \"ce profile ne peux pas etre accept\");\r\n        demandes[_indiceDemande].candidatAccepte = _candidatAccepte;\r\n        demandes[_indiceDemande].etat = etatDemande.ENCOURS;\r\n    }\r\n\r\n    /// @notice Cette fonction calcule un hash avec la fonction keccak256\r\n    /// @param _link le lien du depo github\r\n    /// @return le hash du lien\r\n    function hashDepot(string memory _link) public pure returns (bytes32) {\r\n        return keccak256(bytes(_link));\r\n    }\r\n\r\n    /// @notice Cette fonction calcule un hash avec la fonction keccak256\r\n    /// @param _indiceDemande l'indice de la demande\r\n    /// @param _linkDepot le hash du lien du depo github\r\n \r\n\r\n    function livraison(uint _indiceDemande, bytes32 _linkDepot) public {\r\n        require (utilisateur[msg.sender].adr == msg.sender, \"n'est pas inscrit\");\r\n        require(_indiceDemande < demandes.length, \"la demandes n'existe pas\");\r\n        require(demandes[_indiceDemande].candidatAccepte == msg.sender, \"vous n'etes pas le candidat accept pour cette demande\");\r\n        require(demandes[_indiceDemande].etat == etatDemande.ENCOURS, \"la demande n'est pas en cours\");\r\n        demandes[_indiceDemande].linkDepot = _linkDepot;\r\n        demandes[_indiceDemande].etat = etatDemande.FERMER;\r\n        demandes[_indiceDemande].autorisePayment = true;\r\n        utilisateur[msg.sender].reputation = utilisateur[msg.sender].reputation.add(1);\r\n    }\r\n\r\n    /// @notice Cette fonction permet de payer un uilisateur (candidat accept)\r\n    /// @param _indiceDemande indice de la demande\r\n\r\n    function renumeration(uint _indiceDemande) public  payable {\r\n        require (utilisateur[msg.sender].adr == msg.sender, \"n'est pas inscrit\");\r\n        require(_indiceDemande < demandes.length, \"la demandes n'existe pas\");\r\n        require(demandes[_indiceDemande].candidatAccepte == msg.sender, \"vous n'etes pas le candidat accept pour cette demande\");\r\n        require(demandes[_indiceDemande].autorisePayment == true, \"Payment pas encore autoris\");\r\n        msg.sender.transfer(demandes[_indiceDemande].renumeration);\r\n        demandes[_indiceDemande].autorisePayment = true;\r\n        emit eventCandidatPaye(msg.sender,demandes[_indiceDemande].renumeration);\r\n    }\r\n\r\n    function getAdmin() public view returns(address) {\r\n        return admin;\r\n    }\r\n\r\n    function getAllDemandes() public view returns(Demande[] memory) {\r\n        return demandes;\r\n    }\r\n\r\n    function getDemande(uint _indice) public view returns(Demande memory) {\r\n        return demandes[_indice];\r\n    }\r\n    function getUtilisateur(address _address) public view returns(Utilisateur memory) {\r\n        return utilisateur[_address];\r\n    }\r\n   \r\n    function getBannies(address _address) public view returns(bool) {\r\n        return bannies[_address];\r\n    }\r\n}",
  "sourcePath": "C:\\Users\\inesk\\Documents\\Work\\Alyra\\Git\\Defi2Dapp\\contracts\\Defi2.sol",
  "compiler": {
    "name": "solc",
    "version": "0.5.16+commit.9c3226ce.Emscripten.clang"
  },
  "schemaVersion": "3.0.23",
  "updatedAt": "2020-03-04T21:51:02.446Z",
  "devdoc": {
    "author": "Ines Khoufi",
    "details": "Des fonctions basiques",
    "methods": {
      "accepterOffre(uint256,address)": {
        "params": {
          "_candidatAccepte": "l'adresse du candidat accept",
          "_indiceDemande": "indice de la demande"
        }
      },
      "ajouterDemande(uint256,uint256,string,uint8,uint256)": {
        "params": {
          "_decrireTache": "decription de l'offre",
          "_delais": "delais de la demande",
          "_etat": "etat de la demande (Ouverte,encours,ferm)",
          "_minReputation": "la reputation minimale necessaire pour postuler  l'offre",
          "_renumeration": "Renumeration propose"
        }
      },
      "bannie(address)": {
        "params": {
          "_address": "addresse de l'utilisateur qui va etre bannie"
        }
      },
      "changerEtatDemande(uint256,uint8)": {
        "params": {
          "_etat": "etat de la demande (Ouverte,encours,ferm)",
          "_indiceDemande": "indice de la demande"
        }
      },
      "hashDepot(string)": {
        "params": {
          "_link": "le lien du depo github"
        },
        "return": "le hash du lien"
      },
      "inscription(string,string)": {
        "params": {
          "_nom": "le nom de l'utilisateur",
          "_prenom": "le prenom de l'utilisateur"
        }
      },
      "livraison(uint256,bytes32)": {
        "params": {
          "_indiceDemande": "l'indice de la demande",
          "_linkDepot": "le hash du lien du depo github"
        }
      },
      "postuler(uint256)": {
        "params": {
          "_indiceDemande": "indice de la demande"
        }
      },
      "renumeration(uint256)": {
        "params": {
          "_indiceDemande": "indice de la demande"
        }
      }
    },
    "title": "Dfi #2: Place de march dillustrateurs indpendants"
  },
  "userdoc": {
    "methods": {
      "accepterOffre(uint256,address)": {
        "notice": "Cette fonction permet a un utilisateur (representant de l'entreprise) d'accepter une candidature"
      },
      "ajouterDemande(uint256,uint256,string,uint8,uint256)": {
        "notice": "Cette fonction permet d'ajouter une demande d'offre d'emploi"
      },
      "bannie(address)": {
        "notice": "Cette fonction permet a l'Administrateur de Bannir un utilisateur"
      },
      "changerEtatDemande(uint256,uint8)": {
        "notice": "Cette fonction permet a un utilisateur (createur de la demande) de changer l'etat de la demande"
      },
      "hashDepot(string)": {
        "notice": "Cette fonction calcule un hash avec la fonction keccak256"
      },
      "inscription(string,string)": {
        "notice": "Cette fonction d'inscrire un utilisateur"
      },
      "livraison(uint256,bytes32)": {
        "notice": "Cette fonction calcule un hash avec la fonction keccak256"
      },
      "postuler(uint256)": {
        "notice": "Cette fonction permet a un utilisateur (candidat) de postuler  une demande (offre)"
      },
      "renumeration(uint256)": {
        "notice": "Cette fonction permet de payer un uilisateur (candidat accept)"
      }
    },
    "notice": "Ce contrat assure les fonctionalits suivantes: Mcanisme de rputation, Liste de demandes, Mcanisme de contractualisation"
  }
}