{
  "contractName": "Defi2",
  "abi": [
    {
      "inputs": [],
      "payable": false,
      "stateMutability": "nonpayable",
      "type": "constructor"
    },
    {
      "anonymous": false,
      "inputs": [
        {
          "indexed": true,
          "internalType": "bytes32",
          "name": "link",
          "type": "bytes32"
        }
      ],
      "name": "NewLink",
      "type": "event"
    },
    {
      "anonymous": false,
      "inputs": [
        {
          "indexed": false,
          "internalType": "address",
          "name": "demandeur",
          "type": "address"
        },
        {
          "indexed": false,
          "internalType": "uint256",
          "name": "val",
          "type": "uint256"
        }
      ],
      "name": "eventAjouterDemande",
      "type": "event"
    },
    {
      "anonymous": false,
      "inputs": [
        {
          "indexed": false,
          "internalType": "address",
          "name": "candidat",
          "type": "address"
        },
        {
          "indexed": false,
          "internalType": "uint256",
          "name": "val",
          "type": "uint256"
        }
      ],
      "name": "eventCandidatPaye",
      "type": "event"
    },
    {
      "constant": true,
      "inputs": [
        {
          "internalType": "address",
          "name": "",
          "type": "address"
        }
      ],
      "name": "bannies",
      "outputs": [
        {
          "internalType": "bool",
          "name": "",
          "type": "bool"
        }
      ],
      "payable": false,
      "stateMutability": "view",
      "type": "function"
    },
    {
      "constant": true,
      "inputs": [
        {
          "internalType": "address",
          "name": "",
          "type": "address"
        }
      ],
      "name": "utilisateur",
      "outputs": [
        {
          "internalType": "string",
          "name": "nom",
          "type": "string"
        },
        {
          "internalType": "string",
          "name": "prenom",
          "type": "string"
        },
        {
          "internalType": "address",
          "name": "adr",
          "type": "address"
        },
        {
          "internalType": "uint256",
          "name": "reputation",
          "type": "uint256"
        }
      ],
      "payable": false,
      "stateMutability": "view",
      "type": "function"
    },
    {
      "constant": false,
      "inputs": [
        {
          "internalType": "string",
          "name": "_nom",
          "type": "string"
        },
        {
          "internalType": "string",
          "name": "_prenom",
          "type": "string"
        }
      ],
      "name": "inscription",
      "outputs": [],
      "payable": false,
      "stateMutability": "nonpayable",
      "type": "function"
    },
    {
      "constant": false,
      "inputs": [
        {
          "internalType": "address",
          "name": "_address",
          "type": "address"
        }
      ],
      "name": "bannie",
      "outputs": [],
      "payable": false,
      "stateMutability": "nonpayable",
      "type": "function"
    },
    {
      "constant": false,
      "inputs": [
        {
          "internalType": "uint256",
          "name": "_renumeration",
          "type": "uint256"
        },
        {
          "internalType": "uint256",
          "name": "_delais",
          "type": "uint256"
        },
        {
          "internalType": "string",
          "name": "_decrireTache",
          "type": "string"
        },
        {
          "internalType": "enum Defi2.etatDemande",
          "name": "_etat",
          "type": "uint8"
        },
        {
          "internalType": "uint256",
          "name": "_minReputation",
          "type": "uint256"
        }
      ],
      "name": "ajouterDemande",
      "outputs": [],
      "payable": true,
      "stateMutability": "payable",
      "type": "function"
    },
    {
      "constant": false,
      "inputs": [
        {
          "internalType": "uint256",
          "name": "_indiceDemande",
          "type": "uint256"
        },
        {
          "internalType": "enum Defi2.etatDemande",
          "name": "_etat",
          "type": "uint8"
        }
      ],
      "name": "changerEtatDemande",
      "outputs": [],
      "payable": false,
      "stateMutability": "nonpayable",
      "type": "function"
    },
    {
      "constant": false,
      "inputs": [
        {
          "internalType": "uint256",
          "name": "_indiceDemande",
          "type": "uint256"
        }
      ],
      "name": "postuler",
      "outputs": [],
      "payable": false,
      "stateMutability": "nonpayable",
      "type": "function"
    },
    {
      "constant": false,
      "inputs": [
        {
          "internalType": "uint256",
          "name": "_indiceDemande",
          "type": "uint256"
        },
        {
          "internalType": "address",
          "name": "_candidatAccepte",
          "type": "address"
        }
      ],
      "name": "accepterOffre",
      "outputs": [],
      "payable": false,
      "stateMutability": "nonpayable",
      "type": "function"
    },
    {
      "constant": false,
      "inputs": [
        {
          "internalType": "string",
          "name": "_link",
          "type": "string"
        }
      ],
      "name": "hashDepot",
      "outputs": [],
      "payable": false,
      "stateMutability": "nonpayable",
      "type": "function"
    },
    {
      "constant": false,
      "inputs": [
        {
          "internalType": "uint256",
          "name": "_indiceDemande",
          "type": "uint256"
        },
        {
          "internalType": "bytes32",
          "name": "_linkDepot",
          "type": "bytes32"
        }
      ],
      "name": "livraison",
      "outputs": [],
      "payable": false,
      "stateMutability": "nonpayable",
      "type": "function"
    },
    {
      "constant": false,
      "inputs": [
        {
          "internalType": "uint256",
          "name": "_indiceDemande",
          "type": "uint256"
        }
      ],
      "name": "renumeration",
      "outputs": [],
      "payable": true,
      "stateMutability": "payable",
      "type": "function"
    },
    {
      "constant": true,
      "inputs": [],
      "name": "isAdmin",
      "outputs": [
        {
          "internalType": "bool",
          "name": "",
          "type": "bool"
        }
      ],
      "payable": false,
      "stateMutability": "view",
      "type": "function"
    },
    {
      "constant": true,
      "inputs": [],
      "name": "getAllDemandes",
      "outputs": [
        {
          "components": [
            {
              "internalType": "uint256",
              "name": "renumeration",
              "type": "uint256"
            },
            {
              "internalType": "uint256",
              "name": "delais",
              "type": "uint256"
            },
            {
              "internalType": "uint256",
              "name": "minReputation",
              "type": "uint256"
            },
            {
              "internalType": "string",
              "name": "decrireTache",
              "type": "string"
            },
            {
              "internalType": "enum Defi2.etatDemande",
              "name": "etat",
              "type": "uint8"
            },
            {
              "internalType": "address[]",
              "name": "candidatsAddress",
              "type": "address[]"
            },
            {
              "internalType": "address",
              "name": "entrepriseAddress",
              "type": "address"
            },
            {
              "internalType": "address",
              "name": "candidatAccepte",
              "type": "address"
            },
            {
              "internalType": "bytes32",
              "name": "linkDepot",
              "type": "bytes32"
            },
            {
              "internalType": "bool",
              "name": "autorisePayment",
              "type": "bool"
            }
          ],
          "internalType": "struct Defi2.Demande[]",
          "name": "",
          "type": "tuple[]"
        }
      ],
      "payable": false,
      "stateMutability": "view",
      "type": "function"
    },
    {
      "constant": true,
      "inputs": [
        {
          "internalType": "uint256",
          "name": "_indice",
          "type": "uint256"
        }
      ],
      "name": "getDemande",
      "outputs": [
        {
          "components": [
            {
              "internalType": "uint256",
              "name": "renumeration",
              "type": "uint256"
            },
            {
              "internalType": "uint256",
              "name": "delais",
              "type": "uint256"
            },
            {
              "internalType": "uint256",
              "name": "minReputation",
              "type": "uint256"
            },
            {
              "internalType": "string",
              "name": "decrireTache",
              "type": "string"
            },
            {
              "internalType": "enum Defi2.etatDemande",
              "name": "etat",
              "type": "uint8"
            },
            {
              "internalType": "address[]",
              "name": "candidatsAddress",
              "type": "address[]"
            },
            {
              "internalType": "address",
              "name": "entrepriseAddress",
              "type": "address"
            },
            {
              "internalType": "address",
              "name": "candidatAccepte",
              "type": "address"
            },
            {
              "internalType": "bytes32",
              "name": "linkDepot",
              "type": "bytes32"
            },
            {
              "internalType": "bool",
              "name": "autorisePayment",
              "type": "bool"
            }
          ],
          "internalType": "struct Defi2.Demande",
          "name": "",
          "type": "tuple"
        }
      ],
      "payable": false,
      "stateMutability": "view",
      "type": "function"
    },
    {
      "constant": true,
      "inputs": [
        {
          "internalType": "address",
          "name": "_address",
          "type": "address"
        }
      ],
      "name": "getUtilisateur",
      "outputs": [
        {
          "components": [
            {
              "internalType": "string",
              "name": "nom",
              "type": "string"
            },
            {
              "internalType": "string",
              "name": "prenom",
              "type": "string"
            },
            {
              "internalType": "address",
              "name": "adr",
              "type": "address"
            },
            {
              "internalType": "uint256",
              "name": "reputation",
              "type": "uint256"
            }
          ],
          "internalType": "struct Defi2.Utilisateur",
          "name": "",
          "type": "tuple"
        }
      ],
      "payable": false,
      "stateMutability": "view",
      "type": "function"
    },
    {
      "constant": true,
      "inputs": [
        {
          "internalType": "address",
          "name": "_address",
          "type": "address"
        }
      ],
      "name": "getBannies",
      "outputs": [
        {
          "internalType": "bool",
          "name": "",
          "type": "bool"
        }
      ],
      "payable": false,
      "stateMutability": "view",
      "type": "function"
    },
    {
      "constant": true,
      "inputs": [
        {
          "internalType": "address",
          "name": "_address",
          "type": "address"
        }
      ],
      "name": "getDemandesOf",
      "outputs": [
        {
          "components": [
            {
              "internalType": "uint256",
              "name": "renumeration",
              "type": "uint256"
            },
            {
              "internalType": "uint256",
              "name": "delais",
              "type": "uint256"
            },
            {
              "internalType": "uint256",
              "name": "minReputation",
              "type": "uint256"
            },
            {
              "internalType": "string",
              "name": "decrireTache",
              "type": "string"
            },
            {
              "internalType": "enum Defi2.etatDemande",
              "name": "etat",
              "type": "uint8"
            },
            {
              "internalType": "address[]",
              "name": "candidatsAddress",
              "type": "address[]"
            },
            {
              "internalType": "address",
              "name": "entrepriseAddress",
              "type": "address"
            },
            {
              "internalType": "address",
              "name": "candidatAccepte",
              "type": "address"
            },
            {
              "internalType": "bytes32",
              "name": "linkDepot",
              "type": "bytes32"
            },
            {
              "internalType": "bool",
              "name": "autorisePayment",
              "type": "bool"
            }
          ],
          "internalType": "struct Defi2.Demande[]",
          "name": "",
          "type": "tuple[]"
        }
      ],
      "payable": false,
      "stateMutability": "view",
      "type": "function"
    },
    {
      "constant": true,
      "inputs": [
        {
          "internalType": "address",
          "name": "_address",
          "type": "address"
        }
      ],
      "name": "getDemandesPostulerOf",
      "outputs": [
        {
          "components": [
            {
              "internalType": "uint256",
              "name": "renumeration",
              "type": "uint256"
            },
            {
              "internalType": "uint256",
              "name": "delais",
              "type": "uint256"
            },
            {
              "internalType": "uint256",
              "name": "minReputation",
              "type": "uint256"
            },
            {
              "internalType": "string",
              "name": "decrireTache",
              "type": "string"
            },
            {
              "internalType": "enum Defi2.etatDemande",
              "name": "etat",
              "type": "uint8"
            },
            {
              "internalType": "address[]",
              "name": "candidatsAddress",
              "type": "address[]"
            },
            {
              "internalType": "address",
              "name": "entrepriseAddress",
              "type": "address"
            },
            {
              "internalType": "address",
              "name": "candidatAccepte",
              "type": "address"
            },
            {
              "internalType": "bytes32",
              "name": "linkDepot",
              "type": "bytes32"
            },
            {
              "internalType": "bool",
              "name": "autorisePayment",
              "type": "bool"
            }
          ],
          "internalType": "struct Defi2.Demande[]",
          "name": "",
          "type": "tuple[]"
        }
      ],
      "payable": false,
      "stateMutability": "view",
      "type": "function"
    },
    {
      "constant": true,
      "inputs": [
        {
          "internalType": "address",
          "name": "_address",
          "type": "address"
        }
      ],
      "name": "getDemandesAccepterOf",
      "outputs": [
        {
          "components": [
            {
              "internalType": "uint256",
              "name": "renumeration",
              "type": "uint256"
            },
            {
              "internalType": "uint256",
              "name": "delais",
              "type": "uint256"
            },
            {
              "internalType": "uint256",
              "name": "minReputation",
              "type": "uint256"
            },
            {
              "internalType": "string",
              "name": "decrireTache",
              "type": "string"
            },
            {
              "internalType": "enum Defi2.etatDemande",
              "name": "etat",
              "type": "uint8"
            },
            {
              "internalType": "address[]",
              "name": "candidatsAddress",
              "type": "address[]"
            },
            {
              "internalType": "address",
              "name": "entrepriseAddress",
              "type": "address"
            },
            {
              "internalType": "address",
              "name": "candidatAccepte",
              "type": "address"
            },
            {
              "internalType": "bytes32",
              "name": "linkDepot",
              "type": "bytes32"
            },
            {
              "internalType": "bool",
              "name": "autorisePayment",
              "type": "bool"
            }
          ],
          "internalType": "struct Defi2.Demande[]",
          "name": "",
          "type": "tuple[]"
        }
      ],
      "payable": false,
      "stateMutability": "view",
      "type": "function"
    }
  ],
  "bytecode": "0x608060405234801561001057600080fd5b50336000806101000a81548173ffffffffffffffffffffffffffffffffffffffff021916908373ffffffffffffffffffffffffffffffffffffffff160217905550614899806100606000396000f3fe6080604052600436106101145760003560e01c80635fcebd5c116100a0578063d617a95b11610064578063d617a95b146103ce578063e783a5b41461040b578063fd43e69b14610434578063fe9603c91461045d578063fff8d1611461048657610114565b80635fcebd5c146102c357806389480c48146103005780639fedcb991461033d578063a6edb17e1461037a578063b6db75a0146103a357610114565b806321fec34d116100e757806321fec34d146101c45780632ce78fc01461020157806345ea43b01461023e5780635267c7de146102675780635b317629146102a757610114565b80630aeeb30214610119578063108492fe146101355780631db6a3e61461015e5780631e9e455214610187575b600080fd5b610133600480360361012e919081019061362c565b6104b1565b005b34801561014157600080fd5b5061015c600480360361015791908101906136cd565b6107dc565b005b34801561016a57600080fd5b5061018560048036036101809190810190613556565b61099c565b005b34801561019357600080fd5b506101ae60048036036101a99190810190613556565b610c33565b6040516101bb9190614270565b60405180910390f35b3480156101d057600080fd5b506101eb60048036036101e69190810190613556565b610fc4565b6040516101f89190614292565b60405180910390f35b34801561020d57600080fd5b506102286004803603610223919081019061362c565b61101a565b60405161023591906145a2565b60405180910390f35b34801561024a57600080fd5b506102656004803603610260919081019061362c565b61129c565b005b34801561027357600080fd5b5061028e60048036036102899190810190613556565b6114bc565b60405161029e94939291906142cf565b60405180910390f35b6102c160048036036102bc9190810190613709565b61163c565b005b3480156102cf57600080fd5b506102ea60048036036102e59190810190613556565b611b81565b6040516102f79190614270565b60405180910390f35b34801561030c57600080fd5b5061032760048036036103229190810190613556565b611eac565b60405161033491906145c4565b60405180910390f35b34801561034957600080fd5b50610364600480360361035f9190810190613556565b6120a9565b6040516103719190614270565b60405180910390f35b34801561038657600080fd5b506103a1600480360361039c9190810190613691565b6123d4565b005b3480156103af57600080fd5b506103b8612754565b6040516103c59190614292565b60405180910390f35b3480156103da57600080fd5b506103f560048036036103f09190810190613556565b6127ab565b6040516104029190614292565b60405180910390f35b34801561041757600080fd5b50610432600480360361042d9190810190613655565b6127cb565b005b34801561044057600080fd5b5061045b6004803603610456919081019061357f565b612b82565b005b34801561046957600080fd5b50610484600480360361047f91908101906135c0565b612bd8565b005b34801561049257600080fd5b5061049b612e53565b6040516104a89190614270565b60405180910390f35b3373ffffffffffffffffffffffffffffffffffffffff16600260003373ffffffffffffffffffffffffffffffffffffffff1673ffffffffffffffffffffffffffffffffffffffff16815260200190815260200160002060020160009054906101000a900473ffffffffffffffffffffffffffffffffffffffff1673ffffffffffffffffffffffffffffffffffffffff1614610581576040517f08c379a000000000000000000000000000000000000000000000000000000000815260040161057890614562565b60405180910390fd5b60018054905081106105c8576040517f08c379a00000000000000000000000000000000000000000000000000000000081526004016105bf90614322565b60405180910390fd5b3373ffffffffffffffffffffffffffffffffffffffff16600182815481106105ec57fe5b90600052602060002090600a020160070160009054906101000a900473ffffffffffffffffffffffffffffffffffffffff1673ffffffffffffffffffffffffffffffffffffffff1614610674576040517f08c379a000000000000000000000000000000000000000000000000000000000815260040161066b906144a2565b60405180910390fd5b600115156001828154811061068557fe5b90600052602060002090600a020160090160009054906101000a900460ff161515146106e6576040517f08c379a00000000000000000000000000000000000000000000000000000000081526004016106dd90614522565b60405180910390fd5b3373ffffffffffffffffffffffffffffffffffffffff166108fc6001838154811061070d57fe5b90600052602060002090600a0201600001549081150290604051600060405180830381858888f1935050505015801561074a573d6000803e3d6000fd5b5060006001828154811061075a57fe5b90600052602060002090600a020160090160006101000a81548160ff0219169083151502179055507f66642b3162fab70643d3e58f385200fb1245de066a59dddea017d21bea00d24233600183815481106107b157fe5b90600052602060002090600a0201600001546040516107d1929190614247565b60405180910390a150565b3373ffffffffffffffffffffffffffffffffffffffff16600260003373ffffffffffffffffffffffffffffffffffffffff1673ffffffffffffffffffffffffffffffffffffffff16815260200190815260200160002060020160009054906101000a900473ffffffffffffffffffffffffffffffffffffffff1673ffffffffffffffffffffffffffffffffffffffff1614156108ad576040517f08c379a00000000000000000000000000000000000000000000000000000000081526004016108a490614342565b60405180910390fd5b3373ffffffffffffffffffffffffffffffffffffffff16600183815481106108d157fe5b90600052602060002090600a020160060160009054906101000a900473ffffffffffffffffffffffffffffffffffffffff1673ffffffffffffffffffffffffffffffffffffffff1614610959576040517f08c379a0000000000000000000000000000000000000000000000000000000008152600401610950906143a2565b60405180910390fd5b806001838154811061096757fe5b90600052602060002090600a020160040160006101000a81548160ff0219169083600281111561099357fe5b02179055505050565b8060001515600360008373ffffffffffffffffffffffffffffffffffffffff1673ffffffffffffffffffffffffffffffffffffffff16815260200190815260200160002060009054906101000a900460ff16151514610a30576040517f08c379a0000000000000000000000000000000000000000000000000000000008152600401610a27906144e2565b60405180910390fd5b3373ffffffffffffffffffffffffffffffffffffffff166000809054906101000a900473ffffffffffffffffffffffffffffffffffffffff1673ffffffffffffffffffffffffffffffffffffffff1614610abf576040517f08c379a0000000000000000000000000000000000000000000000000000000008152600401610ab6906144c2565b60405180910390fd5b8173ffffffffffffffffffffffffffffffffffffffff16600260008473ffffffffffffffffffffffffffffffffffffffff1673ffffffffffffffffffffffffffffffffffffffff16815260200190815260200160002060020160009054906101000a900473ffffffffffffffffffffffffffffffffffffffff1673ffffffffffffffffffffffffffffffffffffffff1614610b8f576040517f08c379a0000000000000000000000000000000000000000000000000000000008152600401610b8690614562565b60405180910390fd5b6001600360008473ffffffffffffffffffffffffffffffffffffffff1673ffffffffffffffffffffffffffffffffffffffff16815260200190815260200160002060006101000a81548160ff0219169083151502179055506000600260008473ffffffffffffffffffffffffffffffffffffffff1673ffffffffffffffffffffffffffffffffffffffff168152602001908152602001600020600301819055505050565b60608060008090505b600180549050811015610fba57600080905060008090505b60018381548110610c6157fe5b90600052602060002090600a02016005018054905082108015610c82575080155b15610fab578573ffffffffffffffffffffffffffffffffffffffff1660018481548110610cab57fe5b90600052602060002090600a02016005018381548110610cc757fe5b9060005260206000200160009054906101000a900473ffffffffffffffffffffffffffffffffffffffff1673ffffffffffffffffffffffffffffffffffffffff161415610f9e5760018381548110610d1b57fe5b90600052602060002090600a020160405180610140016040529081600082015481526020016001820154815260200160028201548152602001600382018054600181600116156101000203166002900480601f016020809104026020016040519081016040528092919081815260200182805460018160011615610100020316600290048015610dec5780601f10610dc157610100808354040283529160200191610dec565b820191906000526020600020905b815481529060010190602001808311610dcf57829003601f168201915b505050505081526020016004820160009054906101000a900460ff166002811115610e1357fe5b6002811115610e1e57fe5b815260200160058201805480602002602001604051908101604052809291908181526020018280548015610ea757602002820191906000526020600020905b8160009054906101000a900473ffffffffffffffffffffffffffffffffffffffff1673ffffffffffffffffffffffffffffffffffffffff1681526020019060010190808311610e5d575b505050505081526020016006820160009054906101000a900473ffffffffffffffffffffffffffffffffffffffff1673ffffffffffffffffffffffffffffffffffffffff1673ffffffffffffffffffffffffffffffffffffffff1681526020016007820160009054906101000a900473ffffffffffffffffffffffffffffffffffffffff1673ffffffffffffffffffffffffffffffffffffffff1673ffffffffffffffffffffffffffffffffffffffff168152602001600882015481526020016009820160009054906101000a900460ff16151515158152505084855181518110610f8e57fe5b6020026020010181905250600190505b8180600101925050610c54565b50508080600101915050610c3c565b5080915050919050565b6000600360008373ffffffffffffffffffffffffffffffffffffffff1673ffffffffffffffffffffffffffffffffffffffff16815260200190815260200160002060009054906101000a900460ff169050919050565b61102261326f565b6001828154811061102f57fe5b90600052602060002090600a020160405180610140016040529081600082015481526020016001820154815260200160028201548152602001600382018054600181600116156101000203166002900480601f0160208091040260200160405190810160405280929190818152602001828054600181600116156101000203166002900480156111005780601f106110d557610100808354040283529160200191611100565b820191906000526020600020905b8154815290600101906020018083116110e357829003601f168201915b505050505081526020016004820160009054906101000a900460ff16600281111561112757fe5b600281111561113257fe5b8152602001600582018054806020026020016040519081016040528092919081815260200182805480156111bb57602002820191906000526020600020905b8160009054906101000a900473ffffffffffffffffffffffffffffffffffffffff1673ffffffffffffffffffffffffffffffffffffffff1681526020019060010190808311611171575b505050505081526020016006820160009054906101000a900473ffffffffffffffffffffffffffffffffffffffff1673ffffffffffffffffffffffffffffffffffffffff1673ffffffffffffffffffffffffffffffffffffffff1681526020016007820160009054906101000a900473ffffffffffffffffffffffffffffffffffffffff1673ffffffffffffffffffffffffffffffffffffffff1673ffffffffffffffffffffffffffffffffffffffff168152602001600882015481526020016009820160009054906101000a900460ff1615151515815250509050919050565b3373ffffffffffffffffffffffffffffffffffffffff16600260003373ffffffffffffffffffffffffffffffffffffffff1673ffffffffffffffffffffffffffffffffffffffff16815260200190815260200160002060020160009054906101000a900473ffffffffffffffffffffffffffffffffffffffff1673ffffffffffffffffffffffffffffffffffffffff161461136c576040517f08c379a000000000000000000000000000000000000000000000000000000000815260040161136390614562565b60405180910390fd5b60018054905081106113b3576040517f08c379a00000000000000000000000000000000000000000000000000000000081526004016113aa90614322565b60405180910390fd5b600060028111156113c057fe5b600182815481106113cd57fe5b90600052602060002090600a020160040160009054906101000a900460ff1660028111156113f757fe5b14611437576040517f08c379a000000000000000000000000000000000000000000000000000000000815260040161142e906143e2565b60405180910390fd5b6001818154811061144457fe5b90600052602060002090600a02016005013390806001815401808255809150509060018203906000526020600020016000909192909190916101000a81548173ffffffffffffffffffffffffffffffffffffffff021916908373ffffffffffffffffffffffffffffffffffffffff1602179055505050565b6002602052806000526040600020600091509050806000018054600181600116156101000203166002900480601f0160208091040260200160405190810160405280929190818152602001828054600181600116156101000203166002900480156115685780601f1061153d57610100808354040283529160200191611568565b820191906000526020600020905b81548152906001019060200180831161154b57829003601f168201915b505050505090806001018054600181600116156101000203166002900480601f0160208091040260200160405190810160405280929190818152602001828054600181600116156101000203166002900480156116065780601f106115db57610100808354040283529160200191611606565b820191906000526020600020905b8154815290600101906020018083116115e957829003601f168201915b5050505050908060020160009054906101000a900473ffffffffffffffffffffffffffffffffffffffff16908060030154905084565b6000851161167f576040517f08c379a000000000000000000000000000000000000000000000000000000000815260040161167690614582565b60405180910390fd5b3373ffffffffffffffffffffffffffffffffffffffff16600260003373ffffffffffffffffffffffffffffffffffffffff1673ffffffffffffffffffffffffffffffffffffffff16815260200190815260200160002060020160009054906101000a900473ffffffffffffffffffffffffffffffffffffffff1673ffffffffffffffffffffffffffffffffffffffff161461174f576040517f08c379a000000000000000000000000000000000000000000000000000000000815260040161174690614482565b60405180910390fd5b60008411611792576040517f08c379a000000000000000000000000000000000000000000000000000000000815260040161178990614462565b60405180910390fd5b6117cb6117bc60646117ae6002896130ff90919063ffffffff16565b61316f90919063ffffffff16565b866131b990919063ffffffff16565b34101561180d576040517f08c379a000000000000000000000000000000000000000000000000000000000815260040161180490614442565b60405180910390fd5b6000835111611851576040517f08c379a000000000000000000000000000000000000000000000000000000000815260040161184890614362565b60405180910390fd5b6000600281111561185e57fe5b82600281111561186a57fe5b148061188b575060028081111561187d57fe5b82600281111561188957fe5b145b6118ca576040517f08c379a00000000000000000000000000000000000000000000000000000000081526004016118c190614402565b60405180910390fd5b6000811161190d576040517f08c379a000000000000000000000000000000000000000000000000000000000815260040161190490614382565b60405180910390fd5b61191561326f565b8581600001818152505084816020018181525050838160600181905250828160800190600281111561194357fe5b9081600281111561195057fe5b8152505081816040018181525050338160c0019073ffffffffffffffffffffffffffffffffffffffff16908173ffffffffffffffffffffffffffffffffffffffff16815250506001819080600181540180825580915050906001820390600052602060002090600a02016000909192909190915060008201518160000155602082015181600101556040820151816002015560608201518160030190805190602001906119fe9291906132fe565b5060808201518160040160006101000a81548160ff02191690836002811115611a2357fe5b021790555060a0820151816005019080519060200190611a4492919061337e565b5060c08201518160060160006101000a81548173ffffffffffffffffffffffffffffffffffffffff021916908373ffffffffffffffffffffffffffffffffffffffff16021790555060e08201518160070160006101000a81548173ffffffffffffffffffffffffffffffffffffffff021916908373ffffffffffffffffffffffffffffffffffffffff16021790555061010082015181600801556101208201518160090160006101000a81548160ff0219169083151502179055505050506000611b3d611b2e6064611b2060028b6130ff90919063ffffffff16565b61316f90919063ffffffff16565b886131b990919063ffffffff16565b90507fcb4440121070d175d800daa9555803591dee6e1bf0f37b959c81df69eae455293382604051611b70929190614247565b60405180910390a150505050505050565b60608060008090505b600180549050811015611ea2578373ffffffffffffffffffffffffffffffffffffffff1660018281548110611bbb57fe5b90600052602060002090600a020160060160009054906101000a900473ffffffffffffffffffffffffffffffffffffffff1673ffffffffffffffffffffffffffffffffffffffff161415611e955760018181548110611c1657fe5b90600052602060002090600a020160405180610140016040529081600082015481526020016001820154815260200160028201548152602001600382018054600181600116156101000203166002900480601f016020809104026020016040519081016040528092919081815260200182805460018160011615610100020316600290048015611ce75780601f10611cbc57610100808354040283529160200191611ce7565b820191906000526020600020905b815481529060010190602001808311611cca57829003601f168201915b505050505081526020016004820160009054906101000a900460ff166002811115611d0e57fe5b6002811115611d1957fe5b815260200160058201805480602002602001604051908101604052809291908181526020018280548015611da257602002820191906000526020600020905b8160009054906101000a900473ffffffffffffffffffffffffffffffffffffffff1673ffffffffffffffffffffffffffffffffffffffff1681526020019060010190808311611d58575b505050505081526020016006820160009054906101000a900473ffffffffffffffffffffffffffffffffffffffff1673ffffffffffffffffffffffffffffffffffffffff1673ffffffffffffffffffffffffffffffffffffffff1681526020016007820160009054906101000a900473ffffffffffffffffffffffffffffffffffffffff1673ffffffffffffffffffffffffffffffffffffffff1673ffffffffffffffffffffffffffffffffffffffff168152602001600882015481526020016009820160009054906101000a900460ff16151515158152505082835181518110611e8957fe5b60200260200101819052505b8080600101915050611b8a565b5080915050919050565b611eb4613408565b600260008373ffffffffffffffffffffffffffffffffffffffff1673ffffffffffffffffffffffffffffffffffffffff168152602001908152602001600020604051806080016040529081600082018054600181600116156101000203166002900480601f016020809104026020016040519081016040528092919081815260200182805460018160011615610100020316600290048015611f975780601f10611f6c57610100808354040283529160200191611f97565b820191906000526020600020905b815481529060010190602001808311611f7a57829003601f168201915b50505050508152602001600182018054600181600116156101000203166002900480601f0160208091040260200160405190810160405280929190818152602001828054600181600116156101000203166002900480156120395780601f1061200e57610100808354040283529160200191612039565b820191906000526020600020905b81548152906001019060200180831161201c57829003601f168201915b505050505081526020016002820160009054906101000a900473ffffffffffffffffffffffffffffffffffffffff1673ffffffffffffffffffffffffffffffffffffffff1673ffffffffffffffffffffffffffffffffffffffff1681526020016003820154815250509050919050565b60608060008090505b6001805490508110156123ca578373ffffffffffffffffffffffffffffffffffffffff16600182815481106120e357fe5b90600052602060002090600a020160070160009054906101000a900473ffffffffffffffffffffffffffffffffffffffff1673ffffffffffffffffffffffffffffffffffffffff1614156123bd576001818154811061213e57fe5b90600052602060002090600a020160405180610140016040529081600082015481526020016001820154815260200160028201548152602001600382018054600181600116156101000203166002900480601f01602080910402602001604051908101604052809291908181526020018280546001816001161561010002031660029004801561220f5780601f106121e45761010080835404028352916020019161220f565b820191906000526020600020905b8154815290600101906020018083116121f257829003601f168201915b505050505081526020016004820160009054906101000a900460ff16600281111561223657fe5b600281111561224157fe5b8152602001600582018054806020026020016040519081016040528092919081815260200182805480156122ca57602002820191906000526020600020905b8160009054906101000a900473ffffffffffffffffffffffffffffffffffffffff1673ffffffffffffffffffffffffffffffffffffffff1681526020019060010190808311612280575b505050505081526020016006820160009054906101000a900473ffffffffffffffffffffffffffffffffffffffff1673ffffffffffffffffffffffffffffffffffffffff1673ffffffffffffffffffffffffffffffffffffffff1681526020016007820160009054906101000a900473ffffffffffffffffffffffffffffffffffffffff1673ffffffffffffffffffffffffffffffffffffffff1673ffffffffffffffffffffffffffffffffffffffff168152602001600882015481526020016009820160009054906101000a900460ff161515151581525050828351815181106123b157fe5b60200260200101819052505b80806001019150506120b2565b5080915050919050565b3373ffffffffffffffffffffffffffffffffffffffff16600260003373ffffffffffffffffffffffffffffffffffffffff1673ffffffffffffffffffffffffffffffffffffffff16815260200190815260200160002060020160009054906101000a900473ffffffffffffffffffffffffffffffffffffffff1673ffffffffffffffffffffffffffffffffffffffff16146124a4576040517f08c379a000000000000000000000000000000000000000000000000000000000815260040161249b90614562565b60405180910390fd5b60018054905082106124eb576040517f08c379a00000000000000000000000000000000000000000000000000000000081526004016124e290614322565b60405180910390fd5b3373ffffffffffffffffffffffffffffffffffffffff166001838154811061250f57fe5b90600052602060002090600a020160070160009054906101000a900473ffffffffffffffffffffffffffffffffffffffff1673ffffffffffffffffffffffffffffffffffffffff1614612597576040517f08c379a000000000000000000000000000000000000000000000000000000000815260040161258e906144a2565b60405180910390fd5b600160028111156125a457fe5b600183815481106125b157fe5b90600052602060002090600a020160040160009054906101000a900460ff1660028111156125db57fe5b1461261b576040517f08c379a000000000000000000000000000000000000000000000000000000000815260040161261290614422565b60405180910390fd5b806001838154811061262957fe5b90600052602060002090600a02016008018190555060026001838154811061264d57fe5b90600052602060002090600a020160040160006101000a81548160ff0219169083600281111561267957fe5b0217905550600180838154811061268c57fe5b90600052602060002090600a020160090160006101000a81548160ff02191690831515021790555061270a6001600260003373ffffffffffffffffffffffffffffffffffffffff1673ffffffffffffffffffffffffffffffffffffffff168152602001908152602001600020600301546131b990919063ffffffff16565b600260003373ffffffffffffffffffffffffffffffffffffffff1673ffffffffffffffffffffffffffffffffffffffff168152602001908152602001600020600301819055505050565b60003373ffffffffffffffffffffffffffffffffffffffff166000809054906101000a900473ffffffffffffffffffffffffffffffffffffffff1673ffffffffffffffffffffffffffffffffffffffff1614905090565b60036020528060005260406000206000915054906101000a900460ff1681565b3373ffffffffffffffffffffffffffffffffffffffff16600260003373ffffffffffffffffffffffffffffffffffffffff1673ffffffffffffffffffffffffffffffffffffffff16815260200190815260200160002060020160009054906101000a900473ffffffffffffffffffffffffffffffffffffffff1673ffffffffffffffffffffffffffffffffffffffff161461289b576040517f08c379a000000000000000000000000000000000000000000000000000000000815260040161289290614562565b60405180910390fd5b8073ffffffffffffffffffffffffffffffffffffffff16600260008373ffffffffffffffffffffffffffffffffffffffff1673ffffffffffffffffffffffffffffffffffffffff16815260200190815260200160002060020160009054906101000a900473ffffffffffffffffffffffffffffffffffffffff1673ffffffffffffffffffffffffffffffffffffffff161461296b576040517f08c379a000000000000000000000000000000000000000000000000000000000815260040161296290614562565b60405180910390fd5b60018054905082106129b2576040517f08c379a00000000000000000000000000000000000000000000000000000000081526004016129a990614322565b60405180910390fd5b3373ffffffffffffffffffffffffffffffffffffffff16600183815481106129d657fe5b90600052602060002090600a020160060160009054906101000a900473ffffffffffffffffffffffffffffffffffffffff1673ffffffffffffffffffffffffffffffffffffffff1614612a5e576040517f08c379a0000000000000000000000000000000000000000000000000000000008152600401612a5590614542565b60405180910390fd5b60006002811115612a6b57fe5b60018381548110612a7857fe5b90600052602060002090600a020160040160009054906101000a900460ff166002811115612aa257fe5b14612ae2576040517f08c379a0000000000000000000000000000000000000000000000000000000008152600401612ad9906143e2565b60405180910390fd5b8060018381548110612af057fe5b90600052602060002090600a020160070160006101000a81548173ffffffffffffffffffffffffffffffffffffffff021916908373ffffffffffffffffffffffffffffffffffffffff1602179055506001808381548110612b4d57fe5b90600052602060002090600a020160040160006101000a81548160ff02191690836002811115612b7957fe5b02179055505050565b80604051602001612b939190614230565b604051602081830303815290604052805190602001207fc22213af1d5f1c73b7fae9af1818049eda2746b05eb47138dfa46500a6f99ec760405160405180910390a250565b3373ffffffffffffffffffffffffffffffffffffffff16600260003373ffffffffffffffffffffffffffffffffffffffff1673ffffffffffffffffffffffffffffffffffffffff16815260200190815260200160002060020160009054906101000a900473ffffffffffffffffffffffffffffffffffffffff1673ffffffffffffffffffffffffffffffffffffffff161415612ca9576040517f08c379a0000000000000000000000000000000000000000000000000000000008152600401612ca090614342565b60405180910390fd5b3360001515600360008373ffffffffffffffffffffffffffffffffffffffff1673ffffffffffffffffffffffffffffffffffffffff16815260200190815260200160002060009054906101000a900460ff16151514612d3d576040517f08c379a0000000000000000000000000000000000000000000000000000000008152600401612d34906144e2565b60405180910390fd5b612d45613408565b60405180608001604052808581526020018481526020013373ffffffffffffffffffffffffffffffffffffffff1681526020016001815250905080600260003373ffffffffffffffffffffffffffffffffffffffff1673ffffffffffffffffffffffffffffffffffffffff1681526020019081526020016000206000820151816000019080519060200190612ddb9291906132fe565b506020820151816001019080519060200190612df89291906132fe565b5060408201518160020160006101000a81548173ffffffffffffffffffffffffffffffffffffffff021916908373ffffffffffffffffffffffffffffffffffffffff1602179055506060820151816003015590505050505050565b60606001805480602002602001604051908101604052809291908181526020016000905b828210156130f657838290600052602060002090600a020160405180610140016040529081600082015481526020016001820154815260200160028201548152602001600382018054600181600116156101000203166002900480601f016020809104026020016040519081016040528092919081815260200182805460018160011615610100020316600290048015612f525780601f10612f2757610100808354040283529160200191612f52565b820191906000526020600020905b815481529060010190602001808311612f3557829003601f168201915b505050505081526020016004820160009054906101000a900460ff166002811115612f7957fe5b6002811115612f8457fe5b81526020016005820180548060200260200160405190810160405280929190818152602001828054801561300d57602002820191906000526020600020905b8160009054906101000a900473ffffffffffffffffffffffffffffffffffffffff1673ffffffffffffffffffffffffffffffffffffffff1681526020019060010190808311612fc3575b505050505081526020016006820160009054906101000a900473ffffffffffffffffffffffffffffffffffffffff1673ffffffffffffffffffffffffffffffffffffffff1673ffffffffffffffffffffffffffffffffffffffff1681526020016007820160009054906101000a900473ffffffffffffffffffffffffffffffffffffffff1673ffffffffffffffffffffffffffffffffffffffff1673ffffffffffffffffffffffffffffffffffffffff168152602001600882015481526020016009820160009054906101000a900460ff16151515158152505081526020019060010190612e77565b50505050905090565b6000808314156131125760009050613169565b600082840290508284828161312357fe5b0414613164576040517f08c379a000000000000000000000000000000000000000000000000000000000815260040161315b90614502565b60405180910390fd5b809150505b92915050565b60006131b183836040518060400160405280601a81526020017f536166654d6174683a206469766973696f6e206279207a65726f00000000000081525061320e565b905092915050565b600080828401905083811015613204576040517f08c379a00000000000000000000000000000000000000000000000000000000081526004016131fb906143c2565b60405180910390fd5b8091505092915050565b60008083118290613255576040517f08c379a000000000000000000000000000000000000000000000000000000000815260040161324c91906142ad565b60405180910390fd5b50600083858161326157fe5b049050809150509392505050565b60405180610140016040528060008152602001600081526020016000815260200160608152602001600060028111156132a457fe5b815260200160608152602001600073ffffffffffffffffffffffffffffffffffffffff168152602001600073ffffffffffffffffffffffffffffffffffffffff168152602001600080191681526020016000151581525090565b828054600181600116156101000203166002900490600052602060002090601f016020900481019282601f1061333f57805160ff191683800117855561336d565b8280016001018555821561336d579182015b8281111561336c578251825591602001919060010190613351565b5b50905061337a9190613446565b5090565b8280548282559060005260206000209081019282156133f7579160200282015b828111156133f65782518260006101000a81548173ffffffffffffffffffffffffffffffffffffffff021916908373ffffffffffffffffffffffffffffffffffffffff1602179055509160200191906001019061339e565b5b509050613404919061346b565b5090565b60405180608001604052806060815260200160608152602001600073ffffffffffffffffffffffffffffffffffffffff168152602001600081525090565b61346891905b8082111561346457600081600090555060010161344c565b5090565b90565b6134ab91905b808211156134a757600081816101000a81549073ffffffffffffffffffffffffffffffffffffffff021916905550600101613471565b5090565b90565b6000813590506134bd81614801565b92915050565b6000813590506134d281614818565b92915050565b6000813590506134e78161482f565b92915050565b600082601f8301126134fe57600080fd5b813561351161350c82614613565b6145e6565b9150808252602083016020830185838301111561352d57600080fd5b6135388382846147a1565b50505092915050565b6000813590506135508161483f565b92915050565b60006020828403121561356857600080fd5b6000613576848285016134ae565b91505092915050565b60006020828403121561359157600080fd5b600082013567ffffffffffffffff8111156135ab57600080fd5b6135b7848285016134ed565b91505092915050565b600080604083850312156135d357600080fd5b600083013567ffffffffffffffff8111156135ed57600080fd5b6135f9858286016134ed565b925050602083013567ffffffffffffffff81111561361657600080fd5b613622858286016134ed565b9150509250929050565b60006020828403121561363e57600080fd5b600061364c84828501613541565b91505092915050565b6000806040838503121561366857600080fd5b600061367685828601613541565b9250506020613687858286016134ae565b9150509250929050565b600080604083850312156136a457600080fd5b60006136b285828601613541565b92505060206136c3858286016134c3565b9150509250929050565b600080604083850312156136e057600080fd5b60006136ee85828601613541565b92505060206136ff858286016134d8565b9150509250929050565b600080600080600060a0868803121561372157600080fd5b600061372f88828901613541565b955050602061374088828901613541565b945050604086013567ffffffffffffffff81111561375d57600080fd5b613769888289016134ed565b935050606061377a888289016134d8565b925050608061378b88828901613541565b9150509295509295909350565b60006137a483836137d3565b60208301905092915050565b60006137bc83836140c7565b905092915050565b6137cd81614759565b82525050565b6137dc816146f4565b82525050565b6137eb816146f4565b82525050565b60006137fc8261465f565b61380681856146a5565b93506138118361463f565b8060005b838110156138425781516138298882613798565b97506138348361468b565b925050600181019050613815565b5085935050505092915050565b600061385a8261466a565b61386481856146b6565b9350836020820285016138768561464f565b8060005b858110156138b2578484038952815161389385826137b0565b945061389e83614698565b925060208a0199505060018101905061387a565b50829750879550505050505092915050565b6138cd81614706565b82525050565b6138dc81614706565b82525050565b6138eb81614712565b82525050565b6138fa8161476b565b82525050565b600061390b82614680565b61391581856146d8565b93506139258185602086016147b0565b61392e816147e3565b840191505092915050565b600061394482614680565b61394e81856146e9565b935061395e8185602086016147b0565b80840191505092915050565b600061397582614675565b61397f81856146c7565b935061398f8185602086016147b0565b613998816147e3565b840191505092915050565b60006139ae82614675565b6139b881856146d8565b93506139c88185602086016147b0565b6139d1816147e3565b840191505092915050565b60006139e96018836146d8565b91507f6c612064656d616e646573206e276578697374652070617300000000000000006000830152602082019050919050565b6000613a296019836146d8565b91507f5574696c697361746575722064c3a96a6120696e7363726974000000000000006000830152602082019050919050565b6000613a696022836146d8565b91507f496c206661757420756e65206465736372697074696f6e20646573207461636860008301527f65730000000000000000000000000000000000000000000000000000000000006020830152604082019050919050565b6000613acf6024836146d8565b91507f6c612072657075746174696f6e206d696e696d616c6520646f6974206574726560008301527f203e2030000000000000000000000000000000000000000000000000000000006020830152604082019050919050565b6000613b356029836146d8565b91507f766f7573206e276574657320706173206c65206372656174657572206465206c60008301527f612064656d616e646500000000000000000000000000000000000000000000006020830152604082019050919050565b6000613b9b601b836146d8565b91507f536166654d6174683a206164646974696f6e206f766572666c6f7700000000006000830152602082019050919050565b6000613bdb601c836146d8565b91507f6c612064656d616e6465206e2765737420706173206f757665727465000000006000830152602082019050919050565b6000613c1b6021836146d8565b91507f6c2765746174206465206c612044656d616e64652065737420696e646566696e60008301527f69000000000000000000000000000000000000000000000000000000000000006020830152604082019050919050565b6000613c81601d836146d8565b91507f6c612064656d616e6465206e276573742070617320656e20636f7572730000006000830152602082019050919050565b6000613cc1601f836146d8565b91507f6d73672e76616c7565203a206e276573742070617320737566666973616e74006000830152602082019050919050565b6000613d016015836146d8565b91507f696c206661757420756e2064656c616973203e203000000000000000000000006000830152602082019050919050565b6000613d41601d836146d8565b91507f7574696c69736174657572206e276573742070617320696e73637269740000006000830152602082019050919050565b6000613d816037836146d8565b91507f766f7573206e276574657320706173206c652063616e6469646174206163636560008301527f7074c3a920706f75722063657474652064656d616e64650000000000000000006020830152604082019050919050565b6000613de7601f836146d8565b91507f566f7573206e27c3aa746573207061732061646d696e697374726174657572006000830152602082019050919050565b6000613e27600c836146d8565b91507f64c3a96a612062616e6e696500000000000000000000000000000000000000006000830152602082019050919050565b6000613e676021836146d8565b91507f536166654d6174683a206d756c7469706c69636174696f6e206f766572666c6f60008301527f77000000000000000000000000000000000000000000000000000000000000006020830152604082019050919050565b6000613ecd601c836146d8565b91507f5061796d656e742070617320656e636f7265206175746f726973c3a9000000006000830152602082019050919050565b6000613f0d602a836146d8565b91507f766f7573206e276574657320706173206c6520746974756c616972652064652060008301527f6c612064656d616e6465000000000000000000000000000000000000000000006020830152604082019050919050565b6000613f736011836146d8565b91507f6e276573742070617320696e73637269740000000000000000000000000000006000830152602082019050919050565b6000613fb3601c836146d8565b91507f496c206661757420756e652072656e756d65726174696f6e203e2030000000006000830152602082019050919050565b600061014083016000830151613fff6000860182614212565b5060208301516140126020860182614212565b5060408301516140256040860182614212565b506060830151848203606086015261403d828261396a565b915050608083015161405260808601826138f1565b5060a083015184820360a086015261406a82826137f1565b91505060c083015161407f60c08601826137d3565b5060e083015161409260e08601826137d3565b506101008301516140a76101008601826138e2565b506101208301516140bc6101208601826138c4565b508091505092915050565b6000610140830160008301516140e06000860182614212565b5060208301516140f36020860182614212565b5060408301516141066040860182614212565b506060830151848203606086015261411e828261396a565b915050608083015161413360808601826138f1565b5060a083015184820360a086015261414b82826137f1565b91505060c083015161416060c08601826137d3565b5060e083015161417360e08601826137d3565b506101008301516141886101008601826138e2565b5061012083015161419d6101208601826138c4565b508091505092915050565b600060808301600083015184820360008601526141c5828261396a565b915050602083015184820360208601526141df828261396a565b91505060408301516141f460408601826137d3565b5060608301516142076060860182614212565b508091505092915050565b61421b8161474f565b82525050565b61422a8161474f565b82525050565b600061423c8284613939565b915081905092915050565b600060408201905061425c60008301856137c4565b6142696020830184614221565b9392505050565b6000602082019050818103600083015261428a818461384f565b905092915050565b60006020820190506142a760008301846138d3565b92915050565b600060208201905081810360008301526142c78184613900565b905092915050565b600060808201905081810360008301526142e981876139a3565b905081810360208301526142fd81866139a3565b905061430c60408301856137e2565b6143196060830184614221565b95945050505050565b6000602082019050818103600083015261433b816139dc565b9050919050565b6000602082019050818103600083015261435b81613a1c565b9050919050565b6000602082019050818103600083015261437b81613a5c565b9050919050565b6000602082019050818103600083015261439b81613ac2565b9050919050565b600060208201905081810360008301526143bb81613b28565b9050919050565b600060208201905081810360008301526143db81613b8e565b9050919050565b600060208201905081810360008301526143fb81613bce565b9050919050565b6000602082019050818103600083015261441b81613c0e565b9050919050565b6000602082019050818103600083015261443b81613c74565b9050919050565b6000602082019050818103600083015261445b81613cb4565b9050919050565b6000602082019050818103600083015261447b81613cf4565b9050919050565b6000602082019050818103600083015261449b81613d34565b9050919050565b600060208201905081810360008301526144bb81613d74565b9050919050565b600060208201905081810360008301526144db81613dda565b9050919050565b600060208201905081810360008301526144fb81613e1a565b9050919050565b6000602082019050818103600083015261451b81613e5a565b9050919050565b6000602082019050818103600083015261453b81613ec0565b9050919050565b6000602082019050818103600083015261455b81613f00565b9050919050565b6000602082019050818103600083015261457b81613f66565b9050919050565b6000602082019050818103600083015261459b81613fa6565b9050919050565b600060208201905081810360008301526145bc8184613fe6565b905092915050565b600060208201905081810360008301526145de81846141a8565b905092915050565b6000604051905081810181811067ffffffffffffffff8211171561460957600080fd5b8060405250919050565b600067ffffffffffffffff82111561462a57600080fd5b601f19601f8301169050602081019050919050565b6000819050602082019050919050565b6000819050602082019050919050565b600081519050919050565b600081519050919050565b600081519050919050565b600081519050919050565b6000602082019050919050565b6000602082019050919050565b600082825260208201905092915050565b600082825260208201905092915050565b600082825260208201905092915050565b600082825260208201905092915050565b600081905092915050565b60006146ff8261472f565b9050919050565b60008115159050919050565b6000819050919050565b600081905061472a826147f4565b919050565b600073ffffffffffffffffffffffffffffffffffffffff82169050919050565b6000819050919050565b60006147648261477d565b9050919050565b60006147768261471c565b9050919050565b60006147888261478f565b9050919050565b600061479a8261472f565b9050919050565b82818337600083830152505050565b60005b838110156147ce5780820151818401526020810190506147b3565b838111156147dd576000848401525b50505050565b6000601f19601f8301169050919050565b600381106147fe57fe5b50565b61480a816146f4565b811461481557600080fd5b50565b61482181614712565b811461482c57600080fd5b50565b6003811061483c57600080fd5b50565b6148488161474f565b811461485357600080fd5b5056fea365627a7a723158203c4aa6287fe015d923b90b8ed99160d84521f3b69821795e75cd44b66ea81d1e6c6578706572696d656e74616cf564736f6c63430005100040",
  "source": "pragma solidity ^0.5.16;\r\n\r\npragma experimental ABIEncoderV2;\r\n\r\nimport \"./SafeMath.sol\";\r\n/// @title Dfi #2: Place de march dillustrateurs indpendants\r\n/// @author Ines Khoufi\r\n/// @notice Ce contrat assure les fonctionalits suivantes: Mcanisme de rputation, Liste de demandes, Mcanisme de contractualisation\r\n/// @dev Des fonctions basiques\r\n\r\ncontract Defi2 {\r\n    using SafeMath for uint;\r\n    address private admin;\r\n    enum etatDemande {OUVERTE, ENCOURS, FERMER}\r\n    Demande[] private demandes;\r\n    mapping (address => Utilisateur) public utilisateur;\r\n    mapping (address => bool) public bannies;\r\n\r\n    struct Utilisateur {\r\n        string nom;\r\n        string prenom;\r\n        address adr;\r\n        uint reputation;\r\n    }\r\n    struct Demande {\r\n        uint renumeration;\r\n        uint delais;\r\n        uint minReputation;\r\n        string decrireTache;\r\n        etatDemande etat;\r\n        address[] candidatsAddress;\r\n        address entrepriseAddress;\r\n        address candidatAccepte;\r\n        bytes32 linkDepot;\r\n        bool autorisePayment;\r\n        //mapping(address => Utilisateur) candidats;\r\n    }\r\n    modifier nestInscrit(){\r\n        require(utilisateur[msg.sender].adr != msg.sender, \"Utilisateur dja inscrit\");\r\n        _;\r\n    }\r\n    modifier estAdmin(){\r\n        require(admin == msg.sender, \"Vous n'tes pas administrateur\");\r\n        _;\r\n    }\r\n    modifier nEstPasBannie(address _address){\r\n        require(bannies[_address] == false, \"dja bannie\");\r\n        _;\r\n    }\r\n    /*\r\n     *Event ajouter demande\r\n     *address du demandeur\r\n     *valeur a payer\r\n    */\r\n    event eventAjouterDemande(address demandeur, uint val);\r\n    /*\r\n     *Event candidat pay\r\n     *address du candidat\r\n     *renumeration\r\n    */\r\n    event eventCandidatPaye(address candidat, uint val);\r\n\r\n    event NewLink(bytes32 indexed link);\r\n\r\n    constructor() public {\r\n        admin = msg.sender;\r\n    }\r\n\r\n    /// @notice Cette fonction d'inscrire un utilisateur\r\n    /// @param _nom le nom de l'utilisateur\r\n    /// @param _prenom le prenom de l'utilisateur\r\n\r\n    function inscription(string memory _nom, string memory _prenom) public nestInscrit()\r\n    nEstPasBannie(msg.sender){\r\n        Utilisateur memory user = Utilisateur(_nom, _prenom, msg.sender, 1);\r\n        utilisateur[msg.sender] = user;\r\n    }\r\n\r\n    ///@notice Cette fonction permet a l'Administrateur de Bannir un utilisateur\r\n    ///@param _address addresse de l'utilisateur qui va etre bannie\r\n\r\n    function bannie (address _address) public  nEstPasBannie(_address) estAdmin  {\r\n        require (utilisateur[_address].adr == _address, \"n'est pas inscrit\");\r\n        bannies[_address] = true;\r\n        utilisateur[_address].reputation = 0;\r\n    }\r\n\r\n    /// @notice Cette fonction permet d'ajouter une demande d'offre d'emploi\r\n    /// @param _renumeration Renumeration propose\r\n    /// @param _delais delais de la demande\r\n    /// @param _decrireTache decription de l'offre\r\n    /// @param _etat etat de la demande (Ouverte,encours,ferm)\r\n    /// @param _minReputation la reputation minimale necessaire pour postuler  l'offre\r\n\r\n    function ajouterDemande(uint _renumeration, uint _delais, string memory _decrireTache, etatDemande _etat,\r\n    uint _minReputation) public payable {\r\n      require(_renumeration > 0, \"Il faut une renumeration > 0\");\r\n      require(utilisateur[msg.sender].adr == msg.sender, \"utilisateur n'est pas inscrit\");\r\n      require(_delais > 0, \"il faut un delais > 0\");\r\n      require(msg.value >= _renumeration.add(_renumeration.mul(2).div(100)), \"msg.value : n'est pas suffisant\");\r\n      require(bytes(_decrireTache).length > 0, \"Il faut une description des taches\");\r\n      require(_etat == etatDemande.OUVERTE || _etat == etatDemande.FERMER, \"l'etat de la Demande est indefini\");\r\n      require(_minReputation > 0, \"la reputation minimale doit etre > 0\");\r\n      Demande memory dem;\r\n      dem.renumeration = _renumeration;\r\n      dem.delais = _delais;\r\n      dem.decrireTache = _decrireTache;\r\n      dem.etat = _etat;\r\n      dem.minReputation = _minReputation;\r\n      dem.entrepriseAddress = msg.sender;\r\n      demandes.push(dem);\r\n      uint val = _renumeration.add(_renumeration.mul(2).div(100));\r\n      emit eventAjouterDemande(msg.sender, val);\r\n    }\r\n\r\n    /// @notice Cette fonction permet a un utilisateur (createur de la demande) de changer l'etat de la demande\r\n    /// @param _indiceDemande indice de la demande\r\n    /// @param _etat etat de la demande (Ouverte,encours,ferm)\r\n\r\n    function changerEtatDemande(uint _indiceDemande, etatDemande _etat) public nestInscrit() {\r\n        require(demandes[_indiceDemande].entrepriseAddress == msg.sender, \"vous n'etes pas le createur de la demande\");\r\n        demandes[_indiceDemande].etat = _etat;\r\n    }\r\n\r\n    /// @notice Cette fonction permet a un utilisateur (candidat) de postuler  une demande (offre)\r\n    /// @param _indiceDemande indice de la demande\r\n\r\n    function postuler(uint _indiceDemande) public {\r\n      require (utilisateur[msg.sender].adr == msg.sender, \"n'est pas inscrit\");\r\n      require(_indiceDemande < demandes.length, \"la demandes n'existe pas\");\r\n      require(demandes[_indiceDemande].etat == etatDemande.OUVERTE, \"la demande n'est pas ouverte\");\r\n      demandes[_indiceDemande].candidatsAddress.push(msg.sender);\r\n     // demandes[_indiceDemande].candidats[msg.sender] = utilisateur[msg.sender];\r\n    }\r\n\r\n    /// @notice Cette fonction permet a un utilisateur (representant de l'entreprise) d'accepter une candidature\r\n    /// @param _indiceDemande indice de la demande\r\n    /// @param _candidatAccepte l'adresse du candidat accept\r\n\r\n    function accepterOffre(uint _indiceDemande,address _candidatAccepte) public {\r\n        require (utilisateur[msg.sender].adr == msg.sender, \"n'est pas inscrit\");\r\n        require (utilisateur[_candidatAccepte].adr == _candidatAccepte, \"n'est pas inscrit\");\r\n        require(_indiceDemande < demandes.length, \"la demandes n'existe pas\");\r\n        require(demandes[_indiceDemande].entrepriseAddress == msg.sender, \"vous n'etes pas le titulaire de la demande\");\r\n        require(demandes[_indiceDemande].etat == etatDemande.OUVERTE, \"la demande n'est pas ouverte\");\r\n        //require(demandes[_indiceDemande].minReputation <= demandes[_indiceDemande].candidats[_candidatAccepte].reputation,\r\n       //  \"ce profile ne peux pas etre accept\");\r\n        demandes[_indiceDemande].candidatAccepte = _candidatAccepte;\r\n        demandes[_indiceDemande].etat = etatDemande.ENCOURS;\r\n    }\r\n\r\n    /// @notice Cette fonction calcule un hash avec la fonction keccak256\r\n    /// @param _link le lien du depo github\r\n    /// @return le hash du lien\r\n    function hashDepot(string memory _link) public {\r\n        emit NewLink(keccak256(abi.encodePacked(_link)));\r\n    }\r\n\r\n    /// @notice Cette fonction calcule un hash avec la fonction keccak256\r\n    /// @param _indiceDemande l'indice de la demande\r\n    /// @param _linkDepot le hash du lien du depo github\r\n \r\n\r\n    function livraison(uint _indiceDemande, bytes32 _linkDepot) public {\r\n        require (utilisateur[msg.sender].adr == msg.sender, \"n'est pas inscrit\");\r\n        require(_indiceDemande < demandes.length, \"la demandes n'existe pas\");\r\n        require(demandes[_indiceDemande].candidatAccepte == msg.sender, \"vous n'etes pas le candidat accept pour cette demande\");\r\n        require(demandes[_indiceDemande].etat == etatDemande.ENCOURS, \"la demande n'est pas en cours\");\r\n        demandes[_indiceDemande].linkDepot = _linkDepot;\r\n        demandes[_indiceDemande].etat = etatDemande.FERMER;\r\n        demandes[_indiceDemande].autorisePayment = true;\r\n        utilisateur[msg.sender].reputation = utilisateur[msg.sender].reputation.add(1);\r\n    }\r\n\r\n    /// @notice Cette fonction permet de payer un uilisateur (candidat accept)\r\n    /// @param _indiceDemande indice de la demande\r\n\r\n    function renumeration(uint _indiceDemande) public  payable {\r\n        require (utilisateur[msg.sender].adr == msg.sender, \"n'est pas inscrit\");\r\n        require(_indiceDemande < demandes.length, \"la demandes n'existe pas\");\r\n        require(demandes[_indiceDemande].candidatAccepte == msg.sender, \"vous n'etes pas le candidat accept pour cette demande\");\r\n        require(demandes[_indiceDemande].autorisePayment == true, \"Payment pas encore autoris\");\r\n        msg.sender.transfer(demandes[_indiceDemande].renumeration);\r\n        demandes[_indiceDemande].autorisePayment = false;\r\n        emit eventCandidatPaye(msg.sender,demandes[_indiceDemande].renumeration);\r\n    }\r\n\r\n    function isAdmin() public view returns(bool) {\r\n        return (admin == msg.sender);\r\n    }\r\n\r\n    function getAllDemandes() public view returns(Demande[] memory) {\r\n        return demandes;\r\n    }\r\n\r\n    function getDemande(uint _indice) public view returns(Demande memory) {\r\n        return demandes[_indice];\r\n    }\r\n    function getUtilisateur(address _address) public view returns(Utilisateur memory) {\r\n        return utilisateur[_address];\r\n    }\r\n   \r\n    function getBannies(address _address) public view returns(bool) {\r\n        return bannies[_address];\r\n    }\r\n    \r\n    function getDemandesOf(address _address) public view returns (Demande[] memory)\r\n    {\r\n        Demande[] memory dems;\r\n        for(uint i=0;i<demandes.length;i++) {\r\n            if (demandes[i].entrepriseAddress == _address){\r\n                dems[dems.length] = demandes[i];\r\n            }\r\n        }\r\n        return dems;\r\n    }\r\n    \r\n    function getDemandesPostulerOf(address _address) public view returns (Demande[] memory)\r\n    {\r\n        Demande[] memory dems;\r\n        for(uint i=0;i<demandes.length;i++) {\r\n            uint j=0;\r\n            bool candidat = false; \r\n            while (j <demandes[i].candidatsAddress.length && !candidat) {\r\n                if (demandes[i].candidatsAddress[j] == _address){\r\n                    dems[dems.length] = demandes[i];\r\n                    candidat = true;\r\n                }\r\n                j++;\r\n            }\r\n        }\r\n        return dems;\r\n    }\r\n    \r\n    function getDemandesAccepterOf(address _address) public view returns (Demande[] memory)\r\n    {\r\n        Demande[] memory dems;\r\n        for(uint i=0;i<demandes.length;i++) {\r\n            if (demandes[i].candidatAccepte == _address){\r\n                dems[dems.length] = demandes[i];\r\n            }\r\n     \r\n        }\r\n        return dems;\r\n    }\r\n    \r\n    /*function fallback () payable external {\r\n    require(msg.data.length == 0,\"transfer fail\");\r\n    bool success = msg.sender.send(msg.value);  \r\n    require(success,\"transfer fail\" );\r\n    }*/\r\n}",
  "sourcePath": "C:\\Users\\inesk\\Documents\\Work\\Alyra\\Git\\Defi2Dapp\\contracts\\Defi2.sol",
  "compiler": {
    "name": "solc",
    "version": "0.5.16+commit.9c3226ce.Emscripten.clang"
  },
  "schemaVersion": "3.0.23",
  "updatedAt": "2020-03-10T11:59:51.224Z",
  "networkType": "ethereum",
  "devdoc": {
    "author": "Ines Khoufi",
    "details": "Des fonctions basiques",
    "methods": {
      "accepterOffre(uint256,address)": {
        "params": {
          "_candidatAccepte": "l'adresse du candidat accept",
          "_indiceDemande": "indice de la demande"
        }
      },
      "ajouterDemande(uint256,uint256,string,uint8,uint256)": {
        "params": {
          "_decrireTache": "decription de l'offre",
          "_delais": "delais de la demande",
          "_etat": "etat de la demande (Ouverte,encours,ferm)",
          "_minReputation": "la reputation minimale necessaire pour postuler  l'offre",
          "_renumeration": "Renumeration propose"
        }
      },
      "bannie(address)": {
        "params": {
          "_address": "addresse de l'utilisateur qui va etre bannie"
        }
      },
      "changerEtatDemande(uint256,uint8)": {
        "params": {
          "_etat": "etat de la demande (Ouverte,encours,ferm)",
          "_indiceDemande": "indice de la demande"
        }
      },
      "hashDepot(string)": {
        "params": {
          "_link": "le lien du depo github"
        },
        "return": "le hash du lien"
      },
      "inscription(string,string)": {
        "params": {
          "_nom": "le nom de l'utilisateur",
          "_prenom": "le prenom de l'utilisateur"
        }
      },
      "livraison(uint256,bytes32)": {
        "params": {
          "_indiceDemande": "l'indice de la demande",
          "_linkDepot": "le hash du lien du depo github"
        }
      },
      "postuler(uint256)": {
        "params": {
          "_indiceDemande": "indice de la demande"
        }
      },
      "renumeration(uint256)": {
        "params": {
          "_indiceDemande": "indice de la demande"
        }
      }
    },
    "title": "Dfi #2: Place de march dillustrateurs indpendants"
  },
  "userdoc": {
    "methods": {
      "accepterOffre(uint256,address)": {
        "notice": "Cette fonction permet a un utilisateur (representant de l'entreprise) d'accepter une candidature"
      },
      "ajouterDemande(uint256,uint256,string,uint8,uint256)": {
        "notice": "Cette fonction permet d'ajouter une demande d'offre d'emploi"
      },
      "bannie(address)": {
        "notice": "Cette fonction permet a l'Administrateur de Bannir un utilisateur"
      },
      "changerEtatDemande(uint256,uint8)": {
        "notice": "Cette fonction permet a un utilisateur (createur de la demande) de changer l'etat de la demande"
      },
      "hashDepot(string)": {
        "notice": "Cette fonction calcule un hash avec la fonction keccak256"
      },
      "inscription(string,string)": {
        "notice": "Cette fonction d'inscrire un utilisateur"
      },
      "livraison(uint256,bytes32)": {
        "notice": "Cette fonction calcule un hash avec la fonction keccak256"
      },
      "postuler(uint256)": {
        "notice": "Cette fonction permet a un utilisateur (candidat) de postuler  une demande (offre)"
      },
      "renumeration(uint256)": {
        "notice": "Cette fonction permet de payer un uilisateur (candidat accept)"
      }
    },
    "notice": "Ce contrat assure les fonctionalits suivantes: Mcanisme de rputation, Liste de demandes, Mcanisme de contractualisation"
  }
}