{
  "contractName": "Defi2",
  "abi": [
    {
      "inputs": [],
      "payable": false,
      "stateMutability": "nonpayable",
      "type": "constructor"
    },
    {
      "anonymous": false,
      "inputs": [
        {
          "indexed": false,
          "internalType": "address",
          "name": "demandeur",
          "type": "address"
        },
        {
          "indexed": false,
          "internalType": "uint256",
          "name": "val",
          "type": "uint256"
        }
      ],
      "name": "eventAjouterDemande",
      "type": "event"
    },
    {
      "anonymous": false,
      "inputs": [
        {
          "indexed": false,
          "internalType": "address",
          "name": "candidat",
          "type": "address"
        },
        {
          "indexed": false,
          "internalType": "uint256",
          "name": "val",
          "type": "uint256"
        }
      ],
      "name": "eventCandidatPaye",
      "type": "event"
    },
    {
      "constant": true,
      "inputs": [
        {
          "internalType": "address",
          "name": "",
          "type": "address"
        }
      ],
      "name": "bannies",
      "outputs": [
        {
          "internalType": "bool",
          "name": "",
          "type": "bool"
        }
      ],
      "payable": false,
      "stateMutability": "view",
      "type": "function"
    },
    {
      "constant": true,
      "inputs": [
        {
          "internalType": "address",
          "name": "",
          "type": "address"
        }
      ],
      "name": "utilisateur",
      "outputs": [
        {
          "internalType": "string",
          "name": "nom",
          "type": "string"
        },
        {
          "internalType": "string",
          "name": "prenom",
          "type": "string"
        },
        {
          "internalType": "address",
          "name": "adr",
          "type": "address"
        },
        {
          "internalType": "uint256",
          "name": "reputation",
          "type": "uint256"
        }
      ],
      "payable": false,
      "stateMutability": "view",
      "type": "function"
    },
    {
      "constant": false,
      "inputs": [
        {
          "internalType": "string",
          "name": "_nom",
          "type": "string"
        },
        {
          "internalType": "string",
          "name": "_prenom",
          "type": "string"
        }
      ],
      "name": "inscription",
      "outputs": [],
      "payable": false,
      "stateMutability": "nonpayable",
      "type": "function"
    },
    {
      "constant": false,
      "inputs": [
        {
          "internalType": "address",
          "name": "_address",
          "type": "address"
        }
      ],
      "name": "bannie",
      "outputs": [],
      "payable": false,
      "stateMutability": "nonpayable",
      "type": "function"
    },
    {
      "constant": false,
      "inputs": [
        {
          "internalType": "uint256",
          "name": "_renumeration",
          "type": "uint256"
        },
        {
          "internalType": "uint256",
          "name": "_delais",
          "type": "uint256"
        },
        {
          "internalType": "string",
          "name": "_decrireTache",
          "type": "string"
        },
        {
          "internalType": "enum Defi2.etatDemande",
          "name": "_etat",
          "type": "uint8"
        },
        {
          "internalType": "uint256",
          "name": "_minReputation",
          "type": "uint256"
        }
      ],
      "name": "ajouterDemande",
      "outputs": [],
      "payable": true,
      "stateMutability": "payable",
      "type": "function"
    },
    {
      "constant": false,
      "inputs": [
        {
          "internalType": "uint256",
          "name": "_indiceDemande",
          "type": "uint256"
        },
        {
          "internalType": "enum Defi2.etatDemande",
          "name": "_etat",
          "type": "uint8"
        }
      ],
      "name": "changerEtatDemande",
      "outputs": [],
      "payable": false,
      "stateMutability": "nonpayable",
      "type": "function"
    },
    {
      "constant": false,
      "inputs": [
        {
          "internalType": "uint256",
          "name": "_indiceDemande",
          "type": "uint256"
        }
      ],
      "name": "postuler",
      "outputs": [],
      "payable": false,
      "stateMutability": "nonpayable",
      "type": "function"
    },
    {
      "constant": false,
      "inputs": [
        {
          "internalType": "uint256",
          "name": "_indiceDemande",
          "type": "uint256"
        },
        {
          "internalType": "address",
          "name": "_candidatAccepte",
          "type": "address"
        }
      ],
      "name": "accepterOffre",
      "outputs": [],
      "payable": false,
      "stateMutability": "nonpayable",
      "type": "function"
    },
    {
      "constant": true,
      "inputs": [
        {
          "internalType": "string",
          "name": "_link",
          "type": "string"
        }
      ],
      "name": "hashDepot",
      "outputs": [
        {
          "internalType": "bytes32",
          "name": "",
          "type": "bytes32"
        }
      ],
      "payable": false,
      "stateMutability": "pure",
      "type": "function"
    },
    {
      "constant": false,
      "inputs": [
        {
          "internalType": "uint256",
          "name": "_indiceDemande",
          "type": "uint256"
        },
        {
          "internalType": "bytes32",
          "name": "_linkDepot",
          "type": "bytes32"
        }
      ],
      "name": "livraison",
      "outputs": [],
      "payable": false,
      "stateMutability": "nonpayable",
      "type": "function"
    },
    {
      "constant": false,
      "inputs": [
        {
          "internalType": "uint256",
          "name": "_indiceDemande",
          "type": "uint256"
        }
      ],
      "name": "renumeration",
      "outputs": [],
      "payable": true,
      "stateMutability": "payable",
      "type": "function"
    },
    {
      "constant": true,
      "inputs": [],
      "name": "getAdmin",
      "outputs": [
        {
          "internalType": "address",
          "name": "",
          "type": "address"
        }
      ],
      "payable": false,
      "stateMutability": "view",
      "type": "function"
    },
    {
      "constant": true,
      "inputs": [],
      "name": "getAllDemandes",
      "outputs": [
        {
          "components": [
            {
              "internalType": "uint256",
              "name": "renumeration",
              "type": "uint256"
            },
            {
              "internalType": "uint256",
              "name": "delais",
              "type": "uint256"
            },
            {
              "internalType": "uint256",
              "name": "minReputation",
              "type": "uint256"
            },
            {
              "internalType": "string",
              "name": "decrireTache",
              "type": "string"
            },
            {
              "internalType": "enum Defi2.etatDemande",
              "name": "etat",
              "type": "uint8"
            },
            {
              "internalType": "address[]",
              "name": "candidatsAddress",
              "type": "address[]"
            },
            {
              "internalType": "address",
              "name": "entrepriseAddress",
              "type": "address"
            },
            {
              "internalType": "address",
              "name": "candidatAccepte",
              "type": "address"
            },
            {
              "internalType": "bytes32",
              "name": "linkDepot",
              "type": "bytes32"
            },
            {
              "internalType": "bool",
              "name": "autorisePayment",
              "type": "bool"
            }
          ],
          "internalType": "struct Defi2.Demande[]",
          "name": "",
          "type": "tuple[]"
        }
      ],
      "payable": false,
      "stateMutability": "view",
      "type": "function"
    },
    {
      "constant": true,
      "inputs": [],
      "name": "getAllUtilisateur",
      "outputs": [
        {
          "components": [
            {
              "internalType": "string",
              "name": "nom",
              "type": "string"
            },
            {
              "internalType": "string",
              "name": "prenom",
              "type": "string"
            },
            {
              "internalType": "address",
              "name": "adr",
              "type": "address"
            },
            {
              "internalType": "uint256",
              "name": "reputation",
              "type": "uint256"
            }
          ],
          "internalType": "struct Defi2.Utilisateur[]",
          "name": "",
          "type": "tuple[]"
        }
      ],
      "payable": false,
      "stateMutability": "view",
      "type": "function"
    },
    {
      "constant": true,
      "inputs": [
        {
          "internalType": "uint256",
          "name": "_indice",
          "type": "uint256"
        }
      ],
      "name": "getDemande",
      "outputs": [
        {
          "components": [
            {
              "internalType": "uint256",
              "name": "renumeration",
              "type": "uint256"
            },
            {
              "internalType": "uint256",
              "name": "delais",
              "type": "uint256"
            },
            {
              "internalType": "uint256",
              "name": "minReputation",
              "type": "uint256"
            },
            {
              "internalType": "string",
              "name": "decrireTache",
              "type": "string"
            },
            {
              "internalType": "enum Defi2.etatDemande",
              "name": "etat",
              "type": "uint8"
            },
            {
              "internalType": "address[]",
              "name": "candidatsAddress",
              "type": "address[]"
            },
            {
              "internalType": "address",
              "name": "entrepriseAddress",
              "type": "address"
            },
            {
              "internalType": "address",
              "name": "candidatAccepte",
              "type": "address"
            },
            {
              "internalType": "bytes32",
              "name": "linkDepot",
              "type": "bytes32"
            },
            {
              "internalType": "bool",
              "name": "autorisePayment",
              "type": "bool"
            }
          ],
          "internalType": "struct Defi2.Demande",
          "name": "",
          "type": "tuple"
        }
      ],
      "payable": false,
      "stateMutability": "view",
      "type": "function"
    },
    {
      "constant": true,
      "inputs": [
        {
          "internalType": "address",
          "name": "_address",
          "type": "address"
        }
      ],
      "name": "getUtilisateur",
      "outputs": [
        {
          "components": [
            {
              "internalType": "string",
              "name": "nom",
              "type": "string"
            },
            {
              "internalType": "string",
              "name": "prenom",
              "type": "string"
            },
            {
              "internalType": "address",
              "name": "adr",
              "type": "address"
            },
            {
              "internalType": "uint256",
              "name": "reputation",
              "type": "uint256"
            }
          ],
          "internalType": "struct Defi2.Utilisateur",
          "name": "",
          "type": "tuple"
        }
      ],
      "payable": false,
      "stateMutability": "view",
      "type": "function"
    },
    {
      "constant": true,
      "inputs": [
        {
          "internalType": "address",
          "name": "_address",
          "type": "address"
        }
      ],
      "name": "getBannies",
      "outputs": [
        {
          "internalType": "bool",
          "name": "",
          "type": "bool"
        }
      ],
      "payable": false,
      "stateMutability": "view",
      "type": "function"
    }
  ],
  "bytecode": "0x608060405234801561001057600080fd5b50336000806101000a81548173ffffffffffffffffffffffffffffffffffffffff021916908373ffffffffffffffffffffffffffffffffffffffff1602179055506141af806100606000396000f3fe6080604052600436106100fe5760003560e01c80635b31762911610095578063d617a95b11610064578063d617a95b1461032c578063e783a5b414610369578063fd43e69b14610392578063fe9603c9146103cf578063fff8d161146103f8576100fe565b80635b3176291461027f5780636e9960c31461029b57806389480c48146102c6578063a6edb17e14610303576100fe565b806321fec34d116100d157806321fec34d1461019c5780632ce78fc0146101d957806345ea43b0146102165780635267c7de1461023f576100fe565b80630565fb83146101035780630aeeb3021461012e578063108492fe1461014a5780631db6a3e614610173575b600080fd5b34801561010f57600080fd5b50610118610423565b6040516101259190613b3d565b60405180910390f35b61014860048036036101439190810190612e02565b610626565b005b34801561015657600080fd5b50610171600480360361016c9190810190612ea3565b610950565b005b34801561017f57600080fd5b5061019a60048036036101959190810190612d2c565b610b10565b005b3480156101a857600080fd5b506101c360048036036101be9190810190612d2c565b610da7565b6040516101d09190613b5f565b60405180910390f35b3480156101e557600080fd5b5061020060048036036101fb9190810190612e02565b610dfd565b60405161020d9190613e8a565b60405180910390f35b34801561022257600080fd5b5061023d60048036036102389190810190612e02565b61107f565b005b34801561024b57600080fd5b5061026660048036036102619190810190612d2c565b61129f565b6040516102769493929190613bb7565b60405180910390f35b61029960048036036102949190810190612edf565b61141f565b005b3480156102a757600080fd5b506102b0611964565b6040516102bd9190613ad7565b60405180910390f35b3480156102d257600080fd5b506102ed60048036036102e89190810190612d2c565b61198d565b6040516102fa9190613eac565b60405180910390f35b34801561030f57600080fd5b5061032a60048036036103259190810190612e67565b611b8a565b005b34801561033857600080fd5b50610353600480360361034e9190810190612d2c565b611f0a565b6040516103609190613b5f565b60405180910390f35b34801561037557600080fd5b50610390600480360361038b9190810190612e2b565b611f2a565b005b34801561039e57600080fd5b506103b960048036036103b49190810190612d55565b6122e1565b6040516103c69190613b7a565b60405180910390f35b3480156103db57600080fd5b506103f660048036036103f19190810190612d96565b6122f2565b005b34801561040457600080fd5b5061040d612629565b60405161041a9190613b1b565b60405180910390f35b60606002805480602002602001604051908101604052809291908181526020016000905b8282101561061d5783829060005260206000209060040201604051806080016040529081600082018054600181600116156101000203166002900480601f0160208091040260200160405190810160405280929190818152602001828054600181600116156101000203166002900480156105035780601f106104d857610100808354040283529160200191610503565b820191906000526020600020905b8154815290600101906020018083116104e657829003601f168201915b50505050508152602001600182018054600181600116156101000203166002900480601f0160208091040260200160405190810160405280929190818152602001828054600181600116156101000203166002900480156105a55780601f1061057a576101008083540402835291602001916105a5565b820191906000526020600020905b81548152906001019060200180831161058857829003601f168201915b505050505081526020016002820160009054906101000a900473ffffffffffffffffffffffffffffffffffffffff1673ffffffffffffffffffffffffffffffffffffffff1673ffffffffffffffffffffffffffffffffffffffff16815260200160038201548152505081526020019060010190610447565b50505050905090565b3373ffffffffffffffffffffffffffffffffffffffff16600360003373ffffffffffffffffffffffffffffffffffffffff1673ffffffffffffffffffffffffffffffffffffffff16815260200190815260200160002060020160009054906101000a900473ffffffffffffffffffffffffffffffffffffffff1673ffffffffffffffffffffffffffffffffffffffff16146106f6576040517f08c379a00000000000000000000000000000000000000000000000000000000081526004016106ed90613e4a565b60405180910390fd5b600180549050811061073d576040517f08c379a000000000000000000000000000000000000000000000000000000000815260040161073490613c0a565b60405180910390fd5b3373ffffffffffffffffffffffffffffffffffffffff166001828154811061076157fe5b90600052602060002090600a020160070160009054906101000a900473ffffffffffffffffffffffffffffffffffffffff1673ffffffffffffffffffffffffffffffffffffffff16146107e9576040517f08c379a00000000000000000000000000000000000000000000000000000000081526004016107e090613d8a565b60405180910390fd5b60011515600182815481106107fa57fe5b90600052602060002090600a020160090160009054906101000a900460ff1615151461085b576040517f08c379a000000000000000000000000000000000000000000000000000000000815260040161085290613e0a565b60405180910390fd5b3373ffffffffffffffffffffffffffffffffffffffff166108fc6001838154811061088257fe5b90600052602060002090600a0201600001549081150290604051600060405180830381858888f193505050501580156108bf573d6000803e3d6000fd5b5060018082815481106108ce57fe5b90600052602060002090600a020160090160006101000a81548160ff0219169083151502179055507f66642b3162fab70643d3e58f385200fb1245de066a59dddea017d21bea00d242336001838154811061092557fe5b90600052602060002090600a020160000154604051610945929190613af2565b60405180910390a150565b3373ffffffffffffffffffffffffffffffffffffffff16600360003373ffffffffffffffffffffffffffffffffffffffff1673ffffffffffffffffffffffffffffffffffffffff16815260200190815260200160002060020160009054906101000a900473ffffffffffffffffffffffffffffffffffffffff1673ffffffffffffffffffffffffffffffffffffffff161415610a21576040517f08c379a0000000000000000000000000000000000000000000000000000000008152600401610a1890613c2a565b60405180910390fd5b3373ffffffffffffffffffffffffffffffffffffffff1660018381548110610a4557fe5b90600052602060002090600a020160060160009054906101000a900473ffffffffffffffffffffffffffffffffffffffff1673ffffffffffffffffffffffffffffffffffffffff1614610acd576040517f08c379a0000000000000000000000000000000000000000000000000000000008152600401610ac490613c8a565b60405180910390fd5b8060018381548110610adb57fe5b90600052602060002090600a020160040160006101000a81548160ff02191690836002811115610b0757fe5b02179055505050565b8060001515600460008373ffffffffffffffffffffffffffffffffffffffff1673ffffffffffffffffffffffffffffffffffffffff16815260200190815260200160002060009054906101000a900460ff16151514610ba4576040517f08c379a0000000000000000000000000000000000000000000000000000000008152600401610b9b90613dca565b60405180910390fd5b3373ffffffffffffffffffffffffffffffffffffffff166000809054906101000a900473ffffffffffffffffffffffffffffffffffffffff1673ffffffffffffffffffffffffffffffffffffffff1614610c33576040517f08c379a0000000000000000000000000000000000000000000000000000000008152600401610c2a90613daa565b60405180910390fd5b8173ffffffffffffffffffffffffffffffffffffffff16600360008473ffffffffffffffffffffffffffffffffffffffff1673ffffffffffffffffffffffffffffffffffffffff16815260200190815260200160002060020160009054906101000a900473ffffffffffffffffffffffffffffffffffffffff1673ffffffffffffffffffffffffffffffffffffffff1614610d03576040517f08c379a0000000000000000000000000000000000000000000000000000000008152600401610cfa90613e4a565b60405180910390fd5b6001600460008473ffffffffffffffffffffffffffffffffffffffff1673ffffffffffffffffffffffffffffffffffffffff16815260200190815260200160002060006101000a81548160ff0219169083151502179055506000600360008473ffffffffffffffffffffffffffffffffffffffff1673ffffffffffffffffffffffffffffffffffffffff168152602001908152602001600020600301819055505050565b6000600460008373ffffffffffffffffffffffffffffffffffffffff1673ffffffffffffffffffffffffffffffffffffffff16815260200190815260200160002060009054906101000a900460ff169050919050565b610e05612a45565b60018281548110610e1257fe5b90600052602060002090600a020160405180610140016040529081600082015481526020016001820154815260200160028201548152602001600382018054600181600116156101000203166002900480601f016020809104026020016040519081016040528092919081815260200182805460018160011615610100020316600290048015610ee35780601f10610eb857610100808354040283529160200191610ee3565b820191906000526020600020905b815481529060010190602001808311610ec657829003601f168201915b505050505081526020016004820160009054906101000a900460ff166002811115610f0a57fe5b6002811115610f1557fe5b815260200160058201805480602002602001604051908101604052809291908181526020018280548015610f9e57602002820191906000526020600020905b8160009054906101000a900473ffffffffffffffffffffffffffffffffffffffff1673ffffffffffffffffffffffffffffffffffffffff1681526020019060010190808311610f54575b505050505081526020016006820160009054906101000a900473ffffffffffffffffffffffffffffffffffffffff1673ffffffffffffffffffffffffffffffffffffffff1673ffffffffffffffffffffffffffffffffffffffff1681526020016007820160009054906101000a900473ffffffffffffffffffffffffffffffffffffffff1673ffffffffffffffffffffffffffffffffffffffff1673ffffffffffffffffffffffffffffffffffffffff168152602001600882015481526020016009820160009054906101000a900460ff1615151515815250509050919050565b3373ffffffffffffffffffffffffffffffffffffffff16600360003373ffffffffffffffffffffffffffffffffffffffff1673ffffffffffffffffffffffffffffffffffffffff16815260200190815260200160002060020160009054906101000a900473ffffffffffffffffffffffffffffffffffffffff1673ffffffffffffffffffffffffffffffffffffffff161461114f576040517f08c379a000000000000000000000000000000000000000000000000000000000815260040161114690613e4a565b60405180910390fd5b6001805490508110611196576040517f08c379a000000000000000000000000000000000000000000000000000000000815260040161118d90613c0a565b60405180910390fd5b600060028111156111a357fe5b600182815481106111b057fe5b90600052602060002090600a020160040160009054906101000a900460ff1660028111156111da57fe5b1461121a576040517f08c379a000000000000000000000000000000000000000000000000000000000815260040161121190613cca565b60405180910390fd5b6001818154811061122757fe5b90600052602060002090600a02016005013390806001815401808255809150509060018203906000526020600020016000909192909190916101000a81548173ffffffffffffffffffffffffffffffffffffffff021916908373ffffffffffffffffffffffffffffffffffffffff1602179055505050565b6003602052806000526040600020600091509050806000018054600181600116156101000203166002900480601f01602080910402602001604051908101604052809291908181526020018280546001816001161561010002031660029004801561134b5780601f106113205761010080835404028352916020019161134b565b820191906000526020600020905b81548152906001019060200180831161132e57829003601f168201915b505050505090806001018054600181600116156101000203166002900480601f0160208091040260200160405190810160405280929190818152602001828054600181600116156101000203166002900480156113e95780601f106113be576101008083540402835291602001916113e9565b820191906000526020600020905b8154815290600101906020018083116113cc57829003601f168201915b5050505050908060020160009054906101000a900473ffffffffffffffffffffffffffffffffffffffff16908060030154905084565b60008511611462576040517f08c379a000000000000000000000000000000000000000000000000000000000815260040161145990613e6a565b60405180910390fd5b3373ffffffffffffffffffffffffffffffffffffffff16600360003373ffffffffffffffffffffffffffffffffffffffff1673ffffffffffffffffffffffffffffffffffffffff16815260200190815260200160002060020160009054906101000a900473ffffffffffffffffffffffffffffffffffffffff1673ffffffffffffffffffffffffffffffffffffffff1614611532576040517f08c379a000000000000000000000000000000000000000000000000000000000815260040161152990613d6a565b60405180910390fd5b60008411611575576040517f08c379a000000000000000000000000000000000000000000000000000000000815260040161156c90613d4a565b60405180910390fd5b6115ae61159f60646115916002896128d590919063ffffffff16565b61294590919063ffffffff16565b8661298f90919063ffffffff16565b3410156115f0576040517f08c379a00000000000000000000000000000000000000000000000000000000081526004016115e790613d2a565b60405180910390fd5b6000835111611634576040517f08c379a000000000000000000000000000000000000000000000000000000000815260040161162b90613c4a565b60405180910390fd5b6000600281111561164157fe5b82600281111561164d57fe5b148061166e575060028081111561166057fe5b82600281111561166c57fe5b145b6116ad576040517f08c379a00000000000000000000000000000000000000000000000000000000081526004016116a490613cea565b60405180910390fd5b600081116116f0576040517f08c379a00000000000000000000000000000000000000000000000000000000081526004016116e790613c6a565b60405180910390fd5b6116f8612a45565b8581600001818152505084816020018181525050838160600181905250828160800190600281111561172657fe5b9081600281111561173357fe5b8152505081816040018181525050338160c0019073ffffffffffffffffffffffffffffffffffffffff16908173ffffffffffffffffffffffffffffffffffffffff16815250506001819080600181540180825580915050906001820390600052602060002090600a02016000909192909190915060008201518160000155602082015181600101556040820151816002015560608201518160030190805190602001906117e1929190612ad4565b5060808201518160040160006101000a81548160ff0219169083600281111561180657fe5b021790555060a0820151816005019080519060200190611827929190612b54565b5060c08201518160060160006101000a81548173ffffffffffffffffffffffffffffffffffffffff021916908373ffffffffffffffffffffffffffffffffffffffff16021790555060e08201518160070160006101000a81548173ffffffffffffffffffffffffffffffffffffffff021916908373ffffffffffffffffffffffffffffffffffffffff16021790555061010082015181600801556101208201518160090160006101000a81548160ff0219169083151502179055505050506000611920611911606461190360028b6128d590919063ffffffff16565b61294590919063ffffffff16565b8861298f90919063ffffffff16565b90507fcb4440121070d175d800daa9555803591dee6e1bf0f37b959c81df69eae455293382604051611953929190613af2565b60405180910390a150505050505050565b60008060009054906101000a900473ffffffffffffffffffffffffffffffffffffffff16905090565b611995612bde565b600360008373ffffffffffffffffffffffffffffffffffffffff1673ffffffffffffffffffffffffffffffffffffffff168152602001908152602001600020604051806080016040529081600082018054600181600116156101000203166002900480601f016020809104026020016040519081016040528092919081815260200182805460018160011615610100020316600290048015611a785780601f10611a4d57610100808354040283529160200191611a78565b820191906000526020600020905b815481529060010190602001808311611a5b57829003601f168201915b50505050508152602001600182018054600181600116156101000203166002900480601f016020809104026020016040519081016040528092919081815260200182805460018160011615610100020316600290048015611b1a5780601f10611aef57610100808354040283529160200191611b1a565b820191906000526020600020905b815481529060010190602001808311611afd57829003601f168201915b505050505081526020016002820160009054906101000a900473ffffffffffffffffffffffffffffffffffffffff1673ffffffffffffffffffffffffffffffffffffffff1673ffffffffffffffffffffffffffffffffffffffff1681526020016003820154815250509050919050565b3373ffffffffffffffffffffffffffffffffffffffff16600360003373ffffffffffffffffffffffffffffffffffffffff1673ffffffffffffffffffffffffffffffffffffffff16815260200190815260200160002060020160009054906101000a900473ffffffffffffffffffffffffffffffffffffffff1673ffffffffffffffffffffffffffffffffffffffff1614611c5a576040517f08c379a0000000000000000000000000000000000000000000000000000000008152600401611c5190613e4a565b60405180910390fd5b6001805490508210611ca1576040517f08c379a0000000000000000000000000000000000000000000000000000000008152600401611c9890613c0a565b60405180910390fd5b3373ffffffffffffffffffffffffffffffffffffffff1660018381548110611cc557fe5b90600052602060002090600a020160070160009054906101000a900473ffffffffffffffffffffffffffffffffffffffff1673ffffffffffffffffffffffffffffffffffffffff1614611d4d576040517f08c379a0000000000000000000000000000000000000000000000000000000008152600401611d4490613d8a565b60405180910390fd5b60016002811115611d5a57fe5b60018381548110611d6757fe5b90600052602060002090600a020160040160009054906101000a900460ff166002811115611d9157fe5b14611dd1576040517f08c379a0000000000000000000000000000000000000000000000000000000008152600401611dc890613d0a565b60405180910390fd5b8060018381548110611ddf57fe5b90600052602060002090600a020160080181905550600260018381548110611e0357fe5b90600052602060002090600a020160040160006101000a81548160ff02191690836002811115611e2f57fe5b02179055506001808381548110611e4257fe5b90600052602060002090600a020160090160006101000a81548160ff021916908315150217905550611ec06001600360003373ffffffffffffffffffffffffffffffffffffffff1673ffffffffffffffffffffffffffffffffffffffff1681526020019081526020016000206003015461298f90919063ffffffff16565b600360003373ffffffffffffffffffffffffffffffffffffffff1673ffffffffffffffffffffffffffffffffffffffff168152602001908152602001600020600301819055505050565b60046020528060005260406000206000915054906101000a900460ff1681565b3373ffffffffffffffffffffffffffffffffffffffff16600360003373ffffffffffffffffffffffffffffffffffffffff1673ffffffffffffffffffffffffffffffffffffffff16815260200190815260200160002060020160009054906101000a900473ffffffffffffffffffffffffffffffffffffffff1673ffffffffffffffffffffffffffffffffffffffff1614611ffa576040517f08c379a0000000000000000000000000000000000000000000000000000000008152600401611ff190613e4a565b60405180910390fd5b8073ffffffffffffffffffffffffffffffffffffffff16600360008373ffffffffffffffffffffffffffffffffffffffff1673ffffffffffffffffffffffffffffffffffffffff16815260200190815260200160002060020160009054906101000a900473ffffffffffffffffffffffffffffffffffffffff1673ffffffffffffffffffffffffffffffffffffffff16146120ca576040517f08c379a00000000000000000000000000000000000000000000000000000000081526004016120c190613e4a565b60405180910390fd5b6001805490508210612111576040517f08c379a000000000000000000000000000000000000000000000000000000000815260040161210890613c0a565b60405180910390fd5b3373ffffffffffffffffffffffffffffffffffffffff166001838154811061213557fe5b90600052602060002090600a020160060160009054906101000a900473ffffffffffffffffffffffffffffffffffffffff1673ffffffffffffffffffffffffffffffffffffffff16146121bd576040517f08c379a00000000000000000000000000000000000000000000000000000000081526004016121b490613e2a565b60405180910390fd5b600060028111156121ca57fe5b600183815481106121d757fe5b90600052602060002090600a020160040160009054906101000a900460ff16600281111561220157fe5b14612241576040517f08c379a000000000000000000000000000000000000000000000000000000000815260040161223890613cca565b60405180910390fd5b806001838154811061224f57fe5b90600052602060002090600a020160070160006101000a81548173ffffffffffffffffffffffffffffffffffffffff021916908373ffffffffffffffffffffffffffffffffffffffff16021790555060018083815481106122ac57fe5b90600052602060002090600a020160040160006101000a81548160ff021916908360028111156122d857fe5b02179055505050565b600081805190602001209050919050565b3373ffffffffffffffffffffffffffffffffffffffff16600360003373ffffffffffffffffffffffffffffffffffffffff1673ffffffffffffffffffffffffffffffffffffffff16815260200190815260200160002060020160009054906101000a900473ffffffffffffffffffffffffffffffffffffffff1673ffffffffffffffffffffffffffffffffffffffff1614156123c3576040517f08c379a00000000000000000000000000000000000000000000000000000000081526004016123ba90613c2a565b60405180910390fd5b3360001515600460008373ffffffffffffffffffffffffffffffffffffffff1673ffffffffffffffffffffffffffffffffffffffff16815260200190815260200160002060009054906101000a900460ff16151514612457576040517f08c379a000000000000000000000000000000000000000000000000000000000815260040161244e90613dca565b60405180910390fd5b61245f612bde565b60405180608001604052808581526020018481526020013373ffffffffffffffffffffffffffffffffffffffff1681526020016001815250905080600360003373ffffffffffffffffffffffffffffffffffffffff1673ffffffffffffffffffffffffffffffffffffffff16815260200190815260200160002060008201518160000190805190602001906124f5929190612ad4565b506020820151816001019080519060200190612512929190612ad4565b5060408201518160020160006101000a81548173ffffffffffffffffffffffffffffffffffffffff021916908373ffffffffffffffffffffffffffffffffffffffff160217905550606082015181600301559050506002819080600181540180825580915050906001820390600052602060002090600402016000909192909190915060008201518160000190805190602001906125b1929190612ad4565b5060208201518160010190805190602001906125ce929190612ad4565b5060408201518160020160006101000a81548173ffffffffffffffffffffffffffffffffffffffff021916908373ffffffffffffffffffffffffffffffffffffffff1602179055506060820151816003015550505050505050565b60606001805480602002602001604051908101604052809291908181526020016000905b828210156128cc57838290600052602060002090600a020160405180610140016040529081600082015481526020016001820154815260200160028201548152602001600382018054600181600116156101000203166002900480601f0160208091040260200160405190810160405280929190818152602001828054600181600116156101000203166002900480156127285780601f106126fd57610100808354040283529160200191612728565b820191906000526020600020905b81548152906001019060200180831161270b57829003601f168201915b505050505081526020016004820160009054906101000a900460ff16600281111561274f57fe5b600281111561275a57fe5b8152602001600582018054806020026020016040519081016040528092919081815260200182805480156127e357602002820191906000526020600020905b8160009054906101000a900473ffffffffffffffffffffffffffffffffffffffff1673ffffffffffffffffffffffffffffffffffffffff1681526020019060010190808311612799575b505050505081526020016006820160009054906101000a900473ffffffffffffffffffffffffffffffffffffffff1673ffffffffffffffffffffffffffffffffffffffff1673ffffffffffffffffffffffffffffffffffffffff1681526020016007820160009054906101000a900473ffffffffffffffffffffffffffffffffffffffff1673ffffffffffffffffffffffffffffffffffffffff1673ffffffffffffffffffffffffffffffffffffffff168152602001600882015481526020016009820160009054906101000a900460ff1615151515815250508152602001906001019061264d565b50505050905090565b6000808314156128e8576000905061293f565b60008284029050828482816128f957fe5b041461293a576040517f08c379a000000000000000000000000000000000000000000000000000000000815260040161293190613dea565b60405180910390fd5b809150505b92915050565b600061298783836040518060400160405280601a81526020017f536166654d6174683a206469766973696f6e206279207a65726f0000000000008152506129e4565b905092915050565b6000808284019050838110156129da576040517f08c379a00000000000000000000000000000000000000000000000000000000081526004016129d190613caa565b60405180910390fd5b8091505092915050565b60008083118290612a2b576040517f08c379a0000000000000000000000000000000000000000000000000000000008152600401612a229190613b95565b60405180910390fd5b506000838581612a3757fe5b049050809150509392505050565b6040518061014001604052806000815260200160008152602001600081526020016060815260200160006002811115612a7a57fe5b815260200160608152602001600073ffffffffffffffffffffffffffffffffffffffff168152602001600073ffffffffffffffffffffffffffffffffffffffff168152602001600080191681526020016000151581525090565b828054600181600116156101000203166002900490600052602060002090601f016020900481019282601f10612b1557805160ff1916838001178555612b43565b82800160010185558215612b43579182015b82811115612b42578251825591602001919060010190612b27565b5b509050612b509190612c1c565b5090565b828054828255906000526020600020908101928215612bcd579160200282015b82811115612bcc5782518260006101000a81548173ffffffffffffffffffffffffffffffffffffffff021916908373ffffffffffffffffffffffffffffffffffffffff16021790555091602001919060010190612b74565b5b509050612bda9190612c41565b5090565b60405180608001604052806060815260200160608152602001600073ffffffffffffffffffffffffffffffffffffffff168152602001600081525090565b612c3e91905b80821115612c3a576000816000905550600101612c22565b5090565b90565b612c8191905b80821115612c7d57600081816101000a81549073ffffffffffffffffffffffffffffffffffffffff021916905550600101612c47565b5090565b90565b600081359050612c9381614117565b92915050565b600081359050612ca88161412e565b92915050565b600081359050612cbd81614145565b92915050565b600082601f830112612cd457600080fd5b8135612ce7612ce282613efb565b613ece565b91508082526020830160208301858383011115612d0357600080fd5b612d0e8382846140b7565b50505092915050565b600081359050612d2681614155565b92915050565b600060208284031215612d3e57600080fd5b6000612d4c84828501612c84565b91505092915050565b600060208284031215612d6757600080fd5b600082013567ffffffffffffffff811115612d8157600080fd5b612d8d84828501612cc3565b91505092915050565b60008060408385031215612da957600080fd5b600083013567ffffffffffffffff811115612dc357600080fd5b612dcf85828601612cc3565b925050602083013567ffffffffffffffff811115612dec57600080fd5b612df885828601612cc3565b9150509250929050565b600060208284031215612e1457600080fd5b6000612e2284828501612d17565b91505092915050565b60008060408385031215612e3e57600080fd5b6000612e4c85828601612d17565b9250506020612e5d85828601612c84565b9150509250929050565b60008060408385031215612e7a57600080fd5b6000612e8885828601612d17565b9250506020612e9985828601612c99565b9150509250929050565b60008060408385031215612eb657600080fd5b6000612ec485828601612d17565b9250506020612ed585828601612cae565b9150509250929050565b600080600080600060a08688031215612ef757600080fd5b6000612f0588828901612d17565b9550506020612f1688828901612d17565b945050604086013567ffffffffffffffff811115612f3357600080fd5b612f3f88828901612cc3565b9350506060612f5088828901612cae565b9250506080612f6188828901612d17565b9150509295509295909350565b6000612f7a8383612fbd565b60208301905092915050565b6000612f928383613904565b905092915050565b6000612fa68383613a4f565b905092915050565b612fb78161406f565b82525050565b612fc68161400a565b82525050565b612fd58161400a565b82525050565b6000612fe682613f57565b612ff08185613fb5565b9350612ffb83613f27565b8060005b8381101561302c5781516130138882612f6e565b975061301e83613f8e565b925050600181019050612fff565b5085935050505092915050565b600061304482613f62565b61304e8185613fc6565b93508360208202850161306085613f37565b8060005b8581101561309c578484038952815161307d8582612f86565b945061308883613f9b565b925060208a01995050600181019050613064565b50829750879550505050505092915050565b60006130b982613f6d565b6130c38185613fd7565b9350836020820285016130d585613f47565b8060005b8581101561311157848403895281516130f28582612f9a565b94506130fd83613fa8565b925060208a019950506001810190506130d9565b50829750879550505050505092915050565b61312c8161401c565b82525050565b61313b8161401c565b82525050565b61314a81614028565b82525050565b61315981614028565b82525050565b61316881614081565b82525050565b600061317982613f83565b6131838185613ff9565b93506131938185602086016140c6565b61319c816140f9565b840191505092915050565b60006131b282613f78565b6131bc8185613fe8565b93506131cc8185602086016140c6565b6131d5816140f9565b840191505092915050565b60006131eb82613f78565b6131f58185613ff9565b93506132058185602086016140c6565b61320e816140f9565b840191505092915050565b6000613226601883613ff9565b91507f6c612064656d616e646573206e276578697374652070617300000000000000006000830152602082019050919050565b6000613266601983613ff9565b91507f5574696c697361746575722064c3a96a6120696e7363726974000000000000006000830152602082019050919050565b60006132a6602283613ff9565b91507f496c206661757420756e65206465736372697074696f6e20646573207461636860008301527f65730000000000000000000000000000000000000000000000000000000000006020830152604082019050919050565b600061330c602483613ff9565b91507f6c612072657075746174696f6e206d696e696d616c6520646f6974206574726560008301527f203e2030000000000000000000000000000000000000000000000000000000006020830152604082019050919050565b6000613372602983613ff9565b91507f766f7573206e276574657320706173206c65206372656174657572206465206c60008301527f612064656d616e646500000000000000000000000000000000000000000000006020830152604082019050919050565b60006133d8601b83613ff9565b91507f536166654d6174683a206164646974696f6e206f766572666c6f7700000000006000830152602082019050919050565b6000613418601c83613ff9565b91507f6c612064656d616e6465206e2765737420706173206f757665727465000000006000830152602082019050919050565b6000613458602183613ff9565b91507f6c2765746174206465206c612044656d616e64652065737420696e646566696e60008301527f69000000000000000000000000000000000000000000000000000000000000006020830152604082019050919050565b60006134be601d83613ff9565b91507f6c612064656d616e6465206e276573742070617320656e20636f7572730000006000830152602082019050919050565b60006134fe601f83613ff9565b91507f6d73672e76616c7565203a206e276573742070617320737566666973616e74006000830152602082019050919050565b600061353e601583613ff9565b91507f696c206661757420756e2064656c616973203e203000000000000000000000006000830152602082019050919050565b600061357e601d83613ff9565b91507f7574696c69736174657572206e276573742070617320696e73637269740000006000830152602082019050919050565b60006135be603783613ff9565b91507f766f7573206e276574657320706173206c652063616e6469646174206163636560008301527f7074c3a920706f75722063657474652064656d616e64650000000000000000006020830152604082019050919050565b6000613624601f83613ff9565b91507f566f7573206e27c3aa746573207061732061646d696e697374726174657572006000830152602082019050919050565b6000613664600c83613ff9565b91507f64c3a96a612062616e6e696500000000000000000000000000000000000000006000830152602082019050919050565b60006136a4602183613ff9565b91507f536166654d6174683a206d756c7469706c69636174696f6e206f766572666c6f60008301527f77000000000000000000000000000000000000000000000000000000000000006020830152604082019050919050565b600061370a601c83613ff9565b91507f5061796d656e742070617320656e636f7265206175746f726973c3a9000000006000830152602082019050919050565b600061374a602a83613ff9565b91507f766f7573206e276574657320706173206c6520746974756c616972652064652060008301527f6c612064656d616e6465000000000000000000000000000000000000000000006020830152604082019050919050565b60006137b0601183613ff9565b91507f6e276573742070617320696e73637269740000000000000000000000000000006000830152602082019050919050565b60006137f0601c83613ff9565b91507f496c206661757420756e652072656e756d65726174696f6e203e2030000000006000830152602082019050919050565b60006101408301600083015161383c6000860182613ab9565b50602083015161384f6020860182613ab9565b5060408301516138626040860182613ab9565b506060830151848203606086015261387a82826131a7565b915050608083015161388f608086018261315f565b5060a083015184820360a08601526138a78282612fdb565b91505060c08301516138bc60c0860182612fbd565b5060e08301516138cf60e0860182612fbd565b506101008301516138e4610100860182613141565b506101208301516138f9610120860182613123565b508091505092915050565b60006101408301600083015161391d6000860182613ab9565b5060208301516139306020860182613ab9565b5060408301516139436040860182613ab9565b506060830151848203606086015261395b82826131a7565b9150506080830151613970608086018261315f565b5060a083015184820360a08601526139888282612fdb565b91505060c083015161399d60c0860182612fbd565b5060e08301516139b060e0860182612fbd565b506101008301516139c5610100860182613141565b506101208301516139da610120860182613123565b508091505092915050565b60006080830160008301518482036000860152613a0282826131a7565b91505060208301518482036020860152613a1c82826131a7565b9150506040830151613a316040860182612fbd565b506060830151613a446060860182613ab9565b508091505092915050565b60006080830160008301518482036000860152613a6c82826131a7565b91505060208301518482036020860152613a8682826131a7565b9150506040830151613a9b6040860182612fbd565b506060830151613aae6060860182613ab9565b508091505092915050565b613ac281614065565b82525050565b613ad181614065565b82525050565b6000602082019050613aec6000830184612fcc565b92915050565b6000604082019050613b076000830185612fae565b613b146020830184613ac8565b9392505050565b60006020820190508181036000830152613b358184613039565b905092915050565b60006020820190508181036000830152613b5781846130ae565b905092915050565b6000602082019050613b746000830184613132565b92915050565b6000602082019050613b8f6000830184613150565b92915050565b60006020820190508181036000830152613baf818461316e565b905092915050565b60006080820190508181036000830152613bd181876131e0565b90508181036020830152613be581866131e0565b9050613bf46040830185612fcc565b613c016060830184613ac8565b95945050505050565b60006020820190508181036000830152613c2381613219565b9050919050565b60006020820190508181036000830152613c4381613259565b9050919050565b60006020820190508181036000830152613c6381613299565b9050919050565b60006020820190508181036000830152613c83816132ff565b9050919050565b60006020820190508181036000830152613ca381613365565b9050919050565b60006020820190508181036000830152613cc3816133cb565b9050919050565b60006020820190508181036000830152613ce38161340b565b9050919050565b60006020820190508181036000830152613d038161344b565b9050919050565b60006020820190508181036000830152613d23816134b1565b9050919050565b60006020820190508181036000830152613d43816134f1565b9050919050565b60006020820190508181036000830152613d6381613531565b9050919050565b60006020820190508181036000830152613d8381613571565b9050919050565b60006020820190508181036000830152613da3816135b1565b9050919050565b60006020820190508181036000830152613dc381613617565b9050919050565b60006020820190508181036000830152613de381613657565b9050919050565b60006020820190508181036000830152613e0381613697565b9050919050565b60006020820190508181036000830152613e23816136fd565b9050919050565b60006020820190508181036000830152613e438161373d565b9050919050565b60006020820190508181036000830152613e63816137a3565b9050919050565b60006020820190508181036000830152613e83816137e3565b9050919050565b60006020820190508181036000830152613ea48184613823565b905092915050565b60006020820190508181036000830152613ec681846139e5565b905092915050565b6000604051905081810181811067ffffffffffffffff82111715613ef157600080fd5b8060405250919050565b600067ffffffffffffffff821115613f1257600080fd5b601f19601f8301169050602081019050919050565b6000819050602082019050919050565b6000819050602082019050919050565b6000819050602082019050919050565b600081519050919050565b600081519050919050565b600081519050919050565b600081519050919050565b600081519050919050565b6000602082019050919050565b6000602082019050919050565b6000602082019050919050565b600082825260208201905092915050565b600082825260208201905092915050565b600082825260208201905092915050565b600082825260208201905092915050565b600082825260208201905092915050565b600061401582614045565b9050919050565b60008115159050919050565b6000819050919050565b60008190506140408261410a565b919050565b600073ffffffffffffffffffffffffffffffffffffffff82169050919050565b6000819050919050565b600061407a82614093565b9050919050565b600061408c82614032565b9050919050565b600061409e826140a5565b9050919050565b60006140b082614045565b9050919050565b82818337600083830152505050565b60005b838110156140e45780820151818401526020810190506140c9565b838111156140f3576000848401525b50505050565b6000601f19601f8301169050919050565b6003811061411457fe5b50565b6141208161400a565b811461412b57600080fd5b50565b61413781614028565b811461414257600080fd5b50565b6003811061415257600080fd5b50565b61415e81614065565b811461416957600080fd5b5056fea365627a7a7231582027b86133a82f3e217e8b1393d9487650c3e836354b0731b1088ebed74a5b023a6c6578706572696d656e74616cf564736f6c63430005100040",
  "source": "pragma solidity 0.5.16;\r\n\r\npragma experimental ABIEncoderV2;\r\n\r\nimport \"./SafeMath.sol\";\r\n/// @title Dfi #2: Place de march dillustrateurs indpendants\r\n/// @author Ines Khoufi\r\n/// @notice Ce contrat assure les fonctionalits suivantes: Mcanisme de rputation, Liste de demandes, Mcanisme de contractualisation\r\n/// @dev Des fonctions basiques\r\n\r\ncontract Defi2 {\r\n    using SafeMath for uint;\r\n    address private admin;\r\n    enum etatDemande {OUVERTE, ENCOURS, FERMER}\r\n    Demande[] private demandes;\r\n    Utilisateur[] ListUtilisateurs;\r\n    mapping (address => Utilisateur) public utilisateur;\r\n    mapping (address => bool) public bannies;\r\n\r\n    struct Utilisateur {\r\n        string nom;\r\n        string prenom;\r\n        address adr;\r\n        uint reputation;\r\n    }\r\n    struct Demande {\r\n        uint renumeration;\r\n        uint delais;\r\n        uint minReputation;\r\n        string decrireTache;\r\n        etatDemande etat;\r\n        address[] candidatsAddress;\r\n        address entrepriseAddress;\r\n        address candidatAccepte;\r\n        bytes32 linkDepot;\r\n        bool autorisePayment;\r\n        //mapping(address => Utilisateur) candidats;\r\n    }\r\n    modifier nestInscrit(){\r\n        require(utilisateur[msg.sender].adr != msg.sender, \"Utilisateur dja inscrit\");\r\n        _;\r\n    }\r\n    modifier estAdmin(){\r\n        require(admin == msg.sender, \"Vous n'tes pas administrateur\");\r\n        _;\r\n    }\r\n    modifier nEstPasBannie(address _address){\r\n        require(bannies[_address] == false, \"dja bannie\");\r\n        _;\r\n    }\r\n    /*\r\n     *Event ajouter demande\r\n     *address du demandeur\r\n     *valeur a payer\r\n    */\r\n    event eventAjouterDemande(address demandeur, uint val);\r\n    /*\r\n     *Event candidat pay\r\n     *address du candidat\r\n     *renumeration\r\n    */\r\n    event eventCandidatPaye(address candidat, uint val);\r\n\r\n    constructor() public {\r\n        admin = msg.sender;\r\n    }\r\n\r\n    /// @notice Cette fonction d'inscrire un utilisateur\r\n    /// @param _nom le nom de l'utilisateur\r\n    /// @param _prenom le prenom de l'utilisateur\r\n\r\n    function inscription(string memory _nom, string memory _prenom) public nestInscrit()\r\n    nEstPasBannie(msg.sender){\r\n        Utilisateur memory user = Utilisateur(_nom, _prenom, msg.sender, 1);\r\n        utilisateur[msg.sender] = user;\r\n        ListUtilisateurs.push(user);\r\n    }\r\n\r\n    ///@notice Cette fonction permet a l'Administrateur de Bannir un utilisateur\r\n    ///@param _address addresse de l'utilisateur qui va etre bannie\r\n\r\n    function bannie (address _address) public  nEstPasBannie(_address) estAdmin  {\r\n        require (utilisateur[_address].adr == _address, \"n'est pas inscrit\");\r\n        bannies[_address] = true;\r\n        utilisateur[_address].reputation = 0;\r\n    }\r\n\r\n    /// @notice Cette fonction permet d'ajouter une demande d'offre d'emploi\r\n    /// @param _renumeration Renumeration propose\r\n    /// @param _delais delais de la demande\r\n    /// @param _decrireTache decription de l'offre\r\n    /// @param _etat etat de la demande (Ouverte,encours,ferm)\r\n    /// @param _minReputation la reputation minimale necessaire pour postuler  l'offre\r\n\r\n    function ajouterDemande(uint _renumeration, uint _delais, string memory _decrireTache, etatDemande _etat,\r\n    uint _minReputation) public payable {\r\n      require(_renumeration > 0, \"Il faut une renumeration > 0\");\r\n      require(utilisateur[msg.sender].adr == msg.sender, \"utilisateur n'est pas inscrit\");\r\n      require(_delais > 0, \"il faut un delais > 0\");\r\n      require(msg.value >= _renumeration.add(_renumeration.mul(2).div(100)), \"msg.value : n'est pas suffisant\");\r\n      require(bytes(_decrireTache).length > 0, \"Il faut une description des taches\");\r\n      require(_etat == etatDemande.OUVERTE || _etat == etatDemande.FERMER, \"l'etat de la Demande est indefini\");\r\n      require(_minReputation > 0, \"la reputation minimale doit etre > 0\");\r\n      Demande memory dem;\r\n      dem.renumeration = _renumeration;\r\n      dem.delais = _delais;\r\n      dem.decrireTache = _decrireTache;\r\n      dem.etat = _etat;\r\n      dem.minReputation = _minReputation;\r\n      dem.entrepriseAddress = msg.sender;\r\n      demandes.push(dem);\r\n      uint val = _renumeration.add(_renumeration.mul(2).div(100));\r\n      emit eventAjouterDemande(msg.sender, val);\r\n    }\r\n\r\n    /// @notice Cette fonction permet a un utilisateur (createur de la demande) de changer l'etat de la demande\r\n    /// @param _indiceDemande indice de la demande\r\n    /// @param _etat etat de la demande (Ouverte,encours,ferm)\r\n\r\n    function changerEtatDemande(uint _indiceDemande, etatDemande _etat) public nestInscrit() {\r\n        require(demandes[_indiceDemande].entrepriseAddress == msg.sender, \"vous n'etes pas le createur de la demande\");\r\n        demandes[_indiceDemande].etat = _etat;\r\n    }\r\n\r\n    /// @notice Cette fonction permet a un utilisateur (candidat) de postuler  une demande (offre)\r\n    /// @param _indiceDemande indice de la demande\r\n\r\n    function postuler(uint _indiceDemande) public {\r\n      require (utilisateur[msg.sender].adr == msg.sender, \"n'est pas inscrit\");\r\n      require(_indiceDemande < demandes.length, \"la demandes n'existe pas\");\r\n      require(demandes[_indiceDemande].etat == etatDemande.OUVERTE, \"la demande n'est pas ouverte\");\r\n      demandes[_indiceDemande].candidatsAddress.push(msg.sender);\r\n     // demandes[_indiceDemande].candidats[msg.sender] = utilisateur[msg.sender];\r\n    }\r\n\r\n    /// @notice Cette fonction permet a un utilisateur (representant de l'entreprise) d'accepter une candidature\r\n    /// @param _indiceDemande indice de la demande\r\n    /// @param _candidatAccepte l'adresse du candidat accept\r\n\r\n    function accepterOffre(uint _indiceDemande,address _candidatAccepte) public {\r\n        require (utilisateur[msg.sender].adr == msg.sender, \"n'est pas inscrit\");\r\n        require (utilisateur[_candidatAccepte].adr == _candidatAccepte, \"n'est pas inscrit\");\r\n        require(_indiceDemande < demandes.length, \"la demandes n'existe pas\");\r\n        require(demandes[_indiceDemande].entrepriseAddress == msg.sender, \"vous n'etes pas le titulaire de la demande\");\r\n        require(demandes[_indiceDemande].etat == etatDemande.OUVERTE, \"la demande n'est pas ouverte\");\r\n        //require(demandes[_indiceDemande].minReputation <= demandes[_indiceDemande].candidats[_candidatAccepte].reputation,\r\n       //  \"ce profile ne peux pas etre accept\");\r\n        demandes[_indiceDemande].candidatAccepte = _candidatAccepte;\r\n        demandes[_indiceDemande].etat = etatDemande.ENCOURS;\r\n    }\r\n\r\n    /// @notice Cette fonction calcule un hash avec la fonction keccak256\r\n    /// @param _link le lien du depo github\r\n    /// @return le hash du lien\r\n    function hashDepot(string memory _link) public pure returns (bytes32) {\r\n        return keccak256(bytes(_link));\r\n    }\r\n\r\n    /// @notice Cette fonction calcule un hash avec la fonction keccak256\r\n    /// @param _indiceDemande l'indice de la demande\r\n    /// @param _linkDepot le hash du lien du depo github\r\n \r\n\r\n    function livraison(uint _indiceDemande, bytes32 _linkDepot) public {\r\n        require (utilisateur[msg.sender].adr == msg.sender, \"n'est pas inscrit\");\r\n        require(_indiceDemande < demandes.length, \"la demandes n'existe pas\");\r\n        require(demandes[_indiceDemande].candidatAccepte == msg.sender, \"vous n'etes pas le candidat accept pour cette demande\");\r\n        require(demandes[_indiceDemande].etat == etatDemande.ENCOURS, \"la demande n'est pas en cours\");\r\n        demandes[_indiceDemande].linkDepot = _linkDepot;\r\n        demandes[_indiceDemande].etat = etatDemande.FERMER;\r\n        demandes[_indiceDemande].autorisePayment = true;\r\n        utilisateur[msg.sender].reputation = utilisateur[msg.sender].reputation.add(1);\r\n    }\r\n\r\n    /// @notice Cette fonction permet de payer un uilisateur (candidat accept)\r\n    /// @param _indiceDemande indice de la demande\r\n\r\n    function renumeration(uint _indiceDemande) public  payable {\r\n        require (utilisateur[msg.sender].adr == msg.sender, \"n'est pas inscrit\");\r\n        require(_indiceDemande < demandes.length, \"la demandes n'existe pas\");\r\n        require(demandes[_indiceDemande].candidatAccepte == msg.sender, \"vous n'etes pas le candidat accept pour cette demande\");\r\n        require(demandes[_indiceDemande].autorisePayment == true, \"Payment pas encore autoris\");\r\n        msg.sender.transfer(demandes[_indiceDemande].renumeration);\r\n        demandes[_indiceDemande].autorisePayment = true;\r\n        emit eventCandidatPaye(msg.sender,demandes[_indiceDemande].renumeration);\r\n    }\r\n\r\n    function getAdmin() public view returns(address) {\r\n        return admin;\r\n    }\r\n\r\n    function getAllDemandes() public view returns(Demande[] memory) {\r\n        return demandes;\r\n    }\r\n    function getAllUtilisateur() public view returns(Utilisateur[] memory) {\r\n        return ListUtilisateurs;\r\n    }\r\n\r\n    function getDemande(uint _indice) public view returns(Demande memory) {\r\n        return demandes[_indice];\r\n    }\r\n    function getUtilisateur(address _address) public view returns(Utilisateur memory) {\r\n        return utilisateur[_address];\r\n    }\r\n   \r\n    function getBannies(address _address) public view returns(bool) {\r\n        return bannies[_address];\r\n    }\r\n    \r\n}",
  "sourcePath": "C:\\Users\\inesk\\Documents\\Work\\Alyra\\Git\\Defi2Dapp\\contracts\\Defi2.sol",
  "compiler": {
    "name": "solc",
    "version": "0.5.16+commit.9c3226ce.Emscripten.clang"
  },
  "schemaVersion": "3.0.23",
  "updatedAt": "2020-03-05T23:49:03.693Z",
  "devdoc": {
    "author": "Ines Khoufi",
    "details": "Des fonctions basiques",
    "methods": {
      "accepterOffre(uint256,address)": {
        "params": {
          "_candidatAccepte": "l'adresse du candidat accept",
          "_indiceDemande": "indice de la demande"
        }
      },
      "ajouterDemande(uint256,uint256,string,uint8,uint256)": {
        "params": {
          "_decrireTache": "decription de l'offre",
          "_delais": "delais de la demande",
          "_etat": "etat de la demande (Ouverte,encours,ferm)",
          "_minReputation": "la reputation minimale necessaire pour postuler  l'offre",
          "_renumeration": "Renumeration propose"
        }
      },
      "bannie(address)": {
        "params": {
          "_address": "addresse de l'utilisateur qui va etre bannie"
        }
      },
      "changerEtatDemande(uint256,uint8)": {
        "params": {
          "_etat": "etat de la demande (Ouverte,encours,ferm)",
          "_indiceDemande": "indice de la demande"
        }
      },
      "hashDepot(string)": {
        "params": {
          "_link": "le lien du depo github"
        },
        "return": "le hash du lien"
      },
      "inscription(string,string)": {
        "params": {
          "_nom": "le nom de l'utilisateur",
          "_prenom": "le prenom de l'utilisateur"
        }
      },
      "livraison(uint256,bytes32)": {
        "params": {
          "_indiceDemande": "l'indice de la demande",
          "_linkDepot": "le hash du lien du depo github"
        }
      },
      "postuler(uint256)": {
        "params": {
          "_indiceDemande": "indice de la demande"
        }
      },
      "renumeration(uint256)": {
        "params": {
          "_indiceDemande": "indice de la demande"
        }
      }
    },
    "title": "Dfi #2: Place de march dillustrateurs indpendants"
  },
  "userdoc": {
    "methods": {
      "accepterOffre(uint256,address)": {
        "notice": "Cette fonction permet a un utilisateur (representant de l'entreprise) d'accepter une candidature"
      },
      "ajouterDemande(uint256,uint256,string,uint8,uint256)": {
        "notice": "Cette fonction permet d'ajouter une demande d'offre d'emploi"
      },
      "bannie(address)": {
        "notice": "Cette fonction permet a l'Administrateur de Bannir un utilisateur"
      },
      "changerEtatDemande(uint256,uint8)": {
        "notice": "Cette fonction permet a un utilisateur (createur de la demande) de changer l'etat de la demande"
      },
      "hashDepot(string)": {
        "notice": "Cette fonction calcule un hash avec la fonction keccak256"
      },
      "inscription(string,string)": {
        "notice": "Cette fonction d'inscrire un utilisateur"
      },
      "livraison(uint256,bytes32)": {
        "notice": "Cette fonction calcule un hash avec la fonction keccak256"
      },
      "postuler(uint256)": {
        "notice": "Cette fonction permet a un utilisateur (candidat) de postuler  une demande (offre)"
      },
      "renumeration(uint256)": {
        "notice": "Cette fonction permet de payer un uilisateur (candidat accept)"
      }
    },
    "notice": "Ce contrat assure les fonctionalits suivantes: Mcanisme de rputation, Liste de demandes, Mcanisme de contractualisation"
  }
}