{
  "contractName": "CryptoShirtGame",
  "abi": [
    {
      "inputs": [
        {
          "internalType": "contract CryptoShirt",
          "name": "_cryptoshirt",
          "type": "address"
        }
      ],
      "stateMutability": "nonpayable",
      "type": "constructor"
    },
    {
      "inputs": [
        {
          "internalType": "uint256",
          "name": "",
          "type": "uint256"
        }
      ],
      "name": "listePotentialRequest",
      "outputs": [
        {
          "internalType": "uint256",
          "name": "_token1",
          "type": "uint256"
        },
        {
          "internalType": "uint256",
          "name": "_token2",
          "type": "uint256"
        },
        {
          "internalType": "address",
          "name": "ownerT1",
          "type": "address"
        },
        {
          "internalType": "address",
          "name": "ownerT2",
          "type": "address"
        },
        {
          "internalType": "bool",
          "name": "accepted",
          "type": "bool"
        },
        {
          "internalType": "bool",
          "name": "exchange",
          "type": "bool"
        }
      ],
      "stateMutability": "view",
      "type": "function",
      "constant": true
    },
    {
      "inputs": [
        {
          "internalType": "uint256",
          "name": "_myToken",
          "type": "uint256"
        },
        {
          "internalType": "uint256",
          "name": "_tokenWanted",
          "type": "uint256"
        }
      ],
      "name": "requestExchangingShirt",
      "outputs": [],
      "stateMutability": "nonpayable",
      "type": "function"
    },
    {
      "inputs": [
        {
          "internalType": "uint256",
          "name": "_requestID",
          "type": "uint256"
        }
      ],
      "name": "acceptExchangingShirt",
      "outputs": [],
      "stateMutability": "nonpayable",
      "type": "function"
    },
    {
      "inputs": [
        {
          "internalType": "uint256",
          "name": "_requestID",
          "type": "uint256"
        }
      ],
      "name": "makeExchange",
      "outputs": [],
      "stateMutability": "nonpayable",
      "type": "function"
    }
  ],
  "bytecode": "0x608060405234801561001057600080fd5b506040516115e63803806115e68339818101604052602081101561003357600080fd5b8101908080519060200190929190505050806000806101000a81548173ffffffffffffffffffffffffffffffffffffffff021916908373ffffffffffffffffffffffffffffffffffffffff16021790555050611552806100946000396000f3fe608060405234801561001057600080fd5b506004361061004c5760003560e01c8063192851d214610051578063579a4ce01461007f5780638154e8dc146100ad5780638b1325bb146100e5575b600080fd5b61007d6004803603602081101561006757600080fd5b81019080803590602001909291905050506101aa565b005b6100ab6004803603602081101561009557600080fd5b8101908080359060200190929190505050610b17565b005b6100e3600480360360408110156100c357600080fd5b810190808035906020019092919080359060200190929190505050610d31565b005b610111600480360360208110156100fb57600080fd5b8101908080359060200190929190505050611346565b604051808781526020018681526020018573ffffffffffffffffffffffffffffffffffffffff1673ffffffffffffffffffffffffffffffffffffffff1681526020018473ffffffffffffffffffffffffffffffffffffffff1673ffffffffffffffffffffffffffffffffffffffff1681526020018315151515815260200182151515158152602001965050505050505060405180910390f35b6001805490508110610224576040517f08c379a00000000000000000000000000000000000000000000000000000000081526004018080602001828103825260168152602001807f5265717565737420646f6573206e6f742065786973740000000000000000000081525060200191505060405180910390fd5b600115156001828154811061023557fe5b906000526020600020906004020160030160149054906101000a900460ff161515146102c9576040517f08c379a000000000000000000000000000000000000000000000000000000000815260040180806020018281038252601b8152602001807f45786368616e6765207368697274206e6f74206163636570746564000000000081525060200191505060405180910390fd5b60001515600182815481106102da57fe5b906000526020600020906004020160030160159054906101000a900460ff1615151461036e576040517f08c379a00000000000000000000000000000000000000000000000000000000081526004018080602001828103825260158152602001807f45786368616e676520616c726561647920646f6e65000000000000000000000081525060200191505060405180910390fd5b6001818154811061037b57fe5b906000526020600020906004020160020160009054906101000a900473ffffffffffffffffffffffffffffffffffffffff1673ffffffffffffffffffffffffffffffffffffffff163373ffffffffffffffffffffffffffffffffffffffff16148061044f5750600181815481106103ee57fe5b906000526020600020906004020160030160009054906101000a900473ffffffffffffffffffffffffffffffffffffffff1673ffffffffffffffffffffffffffffffffffffffff163373ffffffffffffffffffffffffffffffffffffffff16145b6104a4576040517f08c379a00000000000000000000000000000000000000000000000000000000081526004018080602001828103825260238152602001806114fa6023913960400191505060405180910390fd5b6000809054906101000a900473ffffffffffffffffffffffffffffffffffffffff1673ffffffffffffffffffffffffffffffffffffffff166342842e0e600183815481106104ee57fe5b906000526020600020906004020160030160009054906101000a900473ffffffffffffffffffffffffffffffffffffffff166001848154811061052d57fe5b906000526020600020906004020160020160009054906101000a900473ffffffffffffffffffffffffffffffffffffffff166001858154811061056c57fe5b9060005260206000209060040201600101546040518463ffffffff1660e01b8152600401808473ffffffffffffffffffffffffffffffffffffffff1673ffffffffffffffffffffffffffffffffffffffff1681526020018373ffffffffffffffffffffffffffffffffffffffff1673ffffffffffffffffffffffffffffffffffffffff1681526020018281526020019350505050600060405180830381600087803b15801561061a57600080fd5b505af115801561062e573d6000803e3d6000fd5b505050506000809054906101000a900473ffffffffffffffffffffffffffffffffffffffff1673ffffffffffffffffffffffffffffffffffffffff166342842e0e6001838154811061067c57fe5b906000526020600020906004020160020160009054906101000a900473ffffffffffffffffffffffffffffffffffffffff16600184815481106106bb57fe5b906000526020600020906004020160030160009054906101000a900473ffffffffffffffffffffffffffffffffffffffff16600185815481106106fa57fe5b9060005260206000209060040201600001546040518463ffffffff1660e01b8152600401808473ffffffffffffffffffffffffffffffffffffffff1673ffffffffffffffffffffffffffffffffffffffff1681526020018373ffffffffffffffffffffffffffffffffffffffff1673ffffffffffffffffffffffffffffffffffffffff1681526020018281526020019350505050600060405180830381600087803b1580156107a857600080fd5b505af11580156107bc573d6000803e3d6000fd5b5050505060018082815481106107ce57fe5b906000526020600020906004020160030160156101000a81548160ff0219169083151502179055506000809054906101000a900473ffffffffffffffffffffffffffffffffffffffff1673ffffffffffffffffffffffffffffffffffffffff1663319190276001838154811061084057fe5b906000526020600020906004020160000154610930600a6000809054906101000a900473ffffffffffffffffffffffffffffffffffffffff1673ffffffffffffffffffffffffffffffffffffffff16639d30b32b600188815481106108a157fe5b9060005260206000209060040201600001546040518263ffffffff1660e01b81526004018082815260200191505060206040518083038186803b1580156108e757600080fd5b505afa1580156108fb573d6000803e3d6000fd5b505050506040513d602081101561091157600080fd5b81019080805190602001909291905050506113e990919063ffffffff16565b6040518363ffffffff1660e01b81526004018083815260200182815260200192505050600060405180830381600087803b15801561096d57600080fd5b505af1158015610981573d6000803e3d6000fd5b505050506000809054906101000a900473ffffffffffffffffffffffffffffffffffffffff1673ffffffffffffffffffffffffffffffffffffffff166331919027600183815481106109cf57fe5b906000526020600020906004020160010154610abf600a6000809054906101000a900473ffffffffffffffffffffffffffffffffffffffff1673ffffffffffffffffffffffffffffffffffffffff16639d30b32b60018881548110610a3057fe5b9060005260206000209060040201600101546040518263ffffffff1660e01b81526004018082815260200191505060206040518083038186803b158015610a7657600080fd5b505afa158015610a8a573d6000803e3d6000fd5b505050506040513d6020811015610aa057600080fd5b81019080805190602001909291905050506113e990919063ffffffff16565b6040518363ffffffff1660e01b81526004018083815260200182815260200192505050600060405180830381600087803b158015610afc57600080fd5b505af1158015610b10573d6000803e3d6000fd5b5050505050565b6001805490508110610b91576040517f08c379a00000000000000000000000000000000000000000000000000000000081526004018080602001828103825260168152602001807f5265717565737420646f6573206e6f742065786973740000000000000000000081525060200191505060405180910390fd5b6000151560018281548110610ba257fe5b906000526020600020906004020160030160149054906101000a900460ff16151514610c36576040517f08c379a000000000000000000000000000000000000000000000000000000000815260040180806020018281038252601b8152602001807f45786368616e676520736869727420616c726561647920646f6e65000000000081525060200191505060405180910390fd5b3373ffffffffffffffffffffffffffffffffffffffff1660018281548110610c5a57fe5b906000526020600020906004020160030160009054906101000a900473ffffffffffffffffffffffffffffffffffffffff1673ffffffffffffffffffffffffffffffffffffffff1614610cf8576040517f08c379a00000000000000000000000000000000000000000000000000000000081526004018080602001828103825260228152602001806114d86022913960400191505060405180910390fd5b6001808281548110610d0657fe5b906000526020600020906004020160030160146101000a81548160ff02191690831515021790555050565b600073ffffffffffffffffffffffffffffffffffffffff166000809054906101000a900473ffffffffffffffffffffffffffffffffffffffff1673ffffffffffffffffffffffffffffffffffffffff16636352211e836040518263ffffffff1660e01b81526004018082815260200191505060206040518083038186803b158015610dbb57600080fd5b505afa158015610dcf573d6000803e3d6000fd5b505050506040513d6020811015610de557600080fd5b810190808051906020019092919050505073ffffffffffffffffffffffffffffffffffffffff161415610e80576040517f08c379a00000000000000000000000000000000000000000000000000000000081526004018080602001828103825260178152602001807f736869727420494420646f6573206e6f7420657869737400000000000000000081525060200191505060405180910390fd5b600073ffffffffffffffffffffffffffffffffffffffff166000809054906101000a900473ffffffffffffffffffffffffffffffffffffffff1673ffffffffffffffffffffffffffffffffffffffff16636352211e846040518263ffffffff1660e01b81526004018082815260200191505060206040518083038186803b158015610f0a57600080fd5b505afa158015610f1e573d6000803e3d6000fd5b505050506040513d6020811015610f3457600080fd5b810190808051906020019092919050505073ffffffffffffffffffffffffffffffffffffffff161415610fcf576040517f08c379a00000000000000000000000000000000000000000000000000000000081526004018080602001828103825260178152602001807f736869727420494420646f6573206e6f7420657869737400000000000000000081525060200191505060405180910390fd5b3373ffffffffffffffffffffffffffffffffffffffff166000809054906101000a900473ffffffffffffffffffffffffffffffffffffffff1673ffffffffffffffffffffffffffffffffffffffff16636352211e846040518263ffffffff1660e01b81526004018082815260200191505060206040518083038186803b15801561105857600080fd5b505afa15801561106c573d6000803e3d6000fd5b505050506040513d602081101561108257600080fd5b810190808051906020019092919050505073ffffffffffffffffffffffffffffffffffffffff161461111c576040517f08c379a00000000000000000000000000000000000000000000000000000000081526004018080602001828103825260158152602001807f596f7520617265206e6f7420746865206f776e6572000000000000000000000081525060200191505060405180910390fd5b611124611471565b6040518060c001604052808481526020018381526020013373ffffffffffffffffffffffffffffffffffffffff1681526020016000809054906101000a900473ffffffffffffffffffffffffffffffffffffffff1673ffffffffffffffffffffffffffffffffffffffff16636352211e856040518263ffffffff1660e01b81526004018082815260200191505060206040518083038186803b1580156111c957600080fd5b505afa1580156111dd573d6000803e3d6000fd5b505050506040513d60208110156111f357600080fd5b810190808051906020019092919050505073ffffffffffffffffffffffffffffffffffffffff1681526020016000151581526020016000151581525090506001819080600181540180825580915050600190039060005260206000209060040201600090919091909150600082015181600001556020820151816001015560408201518160020160006101000a81548173ffffffffffffffffffffffffffffffffffffffff021916908373ffffffffffffffffffffffffffffffffffffffff16021790555060608201518160030160006101000a81548173ffffffffffffffffffffffffffffffffffffffff021916908373ffffffffffffffffffffffffffffffffffffffff16021790555060808201518160030160146101000a81548160ff02191690831515021790555060a08201518160030160156101000a81548160ff0219169083151502179055505050505050565b6001818154811061135357fe5b90600052602060002090600402016000915090508060000154908060010154908060020160009054906101000a900473ffffffffffffffffffffffffffffffffffffffff16908060030160009054906101000a900473ffffffffffffffffffffffffffffffffffffffff16908060030160149054906101000a900460ff16908060030160159054906101000a900460ff16905086565b600080828401905083811015611467576040517f08c379a000000000000000000000000000000000000000000000000000000000815260040180806020018281038252601b8152602001807f536166654d6174683a206164646974696f6e206f766572666c6f77000000000081525060200191505060405180910390fd5b8091505092915050565b6040518060c001604052806000815260200160008152602001600073ffffffffffffffffffffffffffffffffffffffff168152602001600073ffffffffffffffffffffffffffffffffffffffff168152602001600015158152602001600015158152509056fe596f7520617265206e6f7420746865206f776e6572206f6620746865207368697274596f75722061726520636f6e73696465726564206279207468697320656368616e6765a2646970667358221220120af9a0af8201932a13dbcdb5a0c622a4571c4ab92401dfd2c48dc83802423564736f6c63430006010033",
  "source": "pragma solidity 0.6.1;\r\nimport \"./SafeMath.sol\";\r\nimport \"./cryptoShirt.sol\";\r\n\r\ncontract CryptoShirtGame  {\r\n    using SafeMath for uint;\r\n    CryptoShirt private cryptoshirt;\r\n   /// @notice when someone ask for exchanging its cryptoshirt with another someone\r\n    struct RequestExchange {\r\n           uint _token1;\r\n           uint _token2;\r\n           address ownerT1;\r\n           address ownerT2;\r\n           bool accepted;\r\n           bool exchange;\r\n   }\r\n    RequestExchange[] public listePotentialRequest;\r\n    constructor (CryptoShirt _cryptoshirt) public {\r\n       cryptoshirt = _cryptoshirt;\r\n    }\r\n    /// @notice A player asks for exchanging his cryptoShirt with another\r\n    /// @param _myToken is the player shirt\r\n    /// @param _tokenWanted is the shirt of the other player\r\n    function requestExchangingShirt(uint _myToken, uint _tokenWanted) public {\r\n        require(cryptoshirt.ownerOf(_tokenWanted) != address(0), 'shirt ID does not exist');\r\n        require(cryptoshirt.ownerOf(_myToken) != address(0), 'shirt ID does not exist');\r\n        require(cryptoshirt.ownerOf(_myToken) == msg.sender, \"You are not the owner\");\r\n        RequestExchange memory R = RequestExchange (_myToken,_tokenWanted, msg.sender, cryptoshirt.ownerOf(_tokenWanted), false, false);\r\n        listePotentialRequest.push(R);\r\n    }\r\n    /// @notice Once a request for exchanging is emitted\r\n    /// the second player can accept the exchanging by calling this function\r\n    /// @param _requestID corresponds to the request to accept\r\n    function acceptExchangingShirt(uint _requestID) public {\r\n        require(_requestID < listePotentialRequest.length, \"Request does not exist\");\r\n        require(listePotentialRequest[_requestID].accepted == false, \"Exchange shirt already done\");\r\n        require(listePotentialRequest[_requestID].ownerT2 == msg.sender, \"You are not the owner of the shirt\");\r\n        listePotentialRequest[_requestID].accepted = true;\r\n    }\r\n    /// @notice One of the two player could call this function\r\n    /// @dev this function need approval before calling\r\n    /// the approval should be done to the contract address since this the safeTransferFrom is called by the contract and not the ownerT\r\n    /// @param _requestID corresponds to the request of the exchange\r\n    function makeExchange(uint _requestID) public {\r\n        require(_requestID < listePotentialRequest.length, \"Request does not exist\");\r\n        require(listePotentialRequest[_requestID].accepted == true, \"Exchange shirt not accepted\");\r\n        require(listePotentialRequest[_requestID].exchange == false, \"Exchange already done\");\r\n        require(msg.sender == listePotentialRequest[_requestID].ownerT1 || msg.sender == listePotentialRequest[_requestID].ownerT2,\r\n        \"Your are considered by this echange\");\r\n        cryptoshirt.safeTransferFrom(listePotentialRequest[_requestID].ownerT2,\r\n                                     listePotentialRequest[_requestID].ownerT1, listePotentialRequest[_requestID]._token2);\r\n        cryptoshirt.safeTransferFrom(listePotentialRequest[_requestID].ownerT1,\r\n                                     listePotentialRequest[_requestID].ownerT2, listePotentialRequest[_requestID]._token1);\r\n        listePotentialRequest[_requestID].exchange = true;\r\n        cryptoshirt.setShirtCharacteristic(listePotentialRequest[_requestID]._token1,\r\n        cryptoshirt.getShirtCharacteristic(listePotentialRequest[_requestID]._token1).add(10));\r\n        cryptoshirt.setShirtCharacteristic(listePotentialRequest[_requestID]._token2,\r\n        cryptoshirt.getShirtCharacteristic(listePotentialRequest[_requestID]._token2).add(10));\r\n    }\r\n}",
  "sourcePath": "C:\\Users\\inesk\\Documents\\Work\\Alyra\\Git\\CryptoShirt\\contracts\\cryptoShirtGame.sol",
  "compiler": {
    "name": "solc",
    "version": "0.6.1+commit.e6f7d5a4.Emscripten.clang"
  },
  "schemaVersion": "3.0.23",
  "updatedAt": "2020-03-21T09:51:47.344Z",
  "networkType": "ethereum",
  "devdoc": {
    "methods": {
      "acceptExchangingShirt(uint256)": {
        "params": {
          "_requestID": "corresponds to the request to accept"
        }
      },
      "makeExchange(uint256)": {
        "details": "this function need approval before calling the approval should be done to the contract address since this the safeTransferFrom is called by the contract and not the ownerT",
        "params": {
          "_requestID": "corresponds to the request of the exchange"
        }
      },
      "requestExchangingShirt(uint256,uint256)": {
        "params": {
          "_myToken": "is the player shirt",
          "_tokenWanted": "is the shirt of the other player"
        }
      }
    }
  },
  "userdoc": {
    "methods": {
      "acceptExchangingShirt(uint256)": {
        "notice": "Once a request for exchanging is emitted the second player can accept the exchanging by calling this function"
      },
      "makeExchange(uint256)": {
        "notice": "One of the two player could call this function"
      },
      "requestExchangingShirt(uint256,uint256)": {
        "notice": "A player asks for exchanging his cryptoShirt with another"
      }
    }
  }
}