{
  "contractName": "CryptoShirt",
  "abi": [
    {
      "anonymous": false,
      "inputs": [
        {
          "indexed": true,
          "internalType": "address",
          "name": "owner",
          "type": "address"
        },
        {
          "indexed": true,
          "internalType": "address",
          "name": "approved",
          "type": "address"
        },
        {
          "indexed": true,
          "internalType": "uint256",
          "name": "tokenId",
          "type": "uint256"
        }
      ],
      "name": "Approval",
      "type": "event"
    },
    {
      "anonymous": false,
      "inputs": [
        {
          "indexed": true,
          "internalType": "address",
          "name": "owner",
          "type": "address"
        },
        {
          "indexed": true,
          "internalType": "address",
          "name": "operator",
          "type": "address"
        },
        {
          "indexed": false,
          "internalType": "bool",
          "name": "approved",
          "type": "bool"
        }
      ],
      "name": "ApprovalForAll",
      "type": "event"
    },
    {
      "anonymous": false,
      "inputs": [
        {
          "indexed": true,
          "internalType": "address",
          "name": "from",
          "type": "address"
        },
        {
          "indexed": true,
          "internalType": "address",
          "name": "to",
          "type": "address"
        },
        {
          "indexed": true,
          "internalType": "uint256",
          "name": "tokenId",
          "type": "uint256"
        }
      ],
      "name": "Transfer",
      "type": "event"
    },
    {
      "inputs": [
        {
          "internalType": "address",
          "name": "",
          "type": "address"
        }
      ],
      "name": "ownerToShirtCount",
      "outputs": [
        {
          "internalType": "uint256",
          "name": "",
          "type": "uint256"
        }
      ],
      "stateMutability": "view",
      "type": "function",
      "constant": true
    },
    {
      "inputs": [
        {
          "internalType": "uint256",
          "name": "",
          "type": "uint256"
        }
      ],
      "name": "shirtToOwner",
      "outputs": [
        {
          "internalType": "address",
          "name": "",
          "type": "address"
        }
      ],
      "stateMutability": "view",
      "type": "function",
      "constant": true
    },
    {
      "inputs": [
        {
          "internalType": "uint256",
          "name": "",
          "type": "uint256"
        }
      ],
      "name": "shirts",
      "outputs": [
        {
          "internalType": "string",
          "name": "shirtName",
          "type": "string"
        },
        {
          "internalType": "uint256",
          "name": "value",
          "type": "uint256"
        }
      ],
      "stateMutability": "view",
      "type": "function",
      "constant": true
    },
    {
      "inputs": [
        {
          "internalType": "string",
          "name": "_shirtName",
          "type": "string"
        }
      ],
      "name": "createNewShirt",
      "outputs": [],
      "stateMutability": "payable",
      "type": "function",
      "payable": true
    },
    {
      "inputs": [
        {
          "internalType": "address",
          "name": "_owner",
          "type": "address"
        }
      ],
      "name": "balanceOf",
      "outputs": [
        {
          "internalType": "uint256",
          "name": "",
          "type": "uint256"
        }
      ],
      "stateMutability": "view",
      "type": "function",
      "constant": true
    },
    {
      "inputs": [
        {
          "internalType": "uint256",
          "name": "_tokenId",
          "type": "uint256"
        }
      ],
      "name": "ownerOf",
      "outputs": [
        {
          "internalType": "address",
          "name": "",
          "type": "address"
        }
      ],
      "stateMutability": "view",
      "type": "function",
      "constant": true
    },
    {
      "inputs": [
        {
          "internalType": "address",
          "name": "_from",
          "type": "address"
        },
        {
          "internalType": "address",
          "name": "_to",
          "type": "address"
        },
        {
          "internalType": "uint256",
          "name": "_tokenId",
          "type": "uint256"
        }
      ],
      "name": "safeTransferFrom",
      "outputs": [],
      "stateMutability": "nonpayable",
      "type": "function"
    },
    {
      "inputs": [
        {
          "internalType": "address",
          "name": "_to",
          "type": "address"
        },
        {
          "internalType": "uint256",
          "name": "_tokenId",
          "type": "uint256"
        }
      ],
      "name": "approve",
      "outputs": [],
      "stateMutability": "nonpayable",
      "type": "function"
    },
    {
      "inputs": [
        {
          "internalType": "uint256",
          "name": "_tokenId",
          "type": "uint256"
        }
      ],
      "name": "getApproved",
      "outputs": [
        {
          "internalType": "address",
          "name": "",
          "type": "address"
        }
      ],
      "stateMutability": "view",
      "type": "function",
      "constant": true
    },
    {
      "inputs": [
        {
          "internalType": "address",
          "name": "_to",
          "type": "address"
        },
        {
          "internalType": "bool",
          "name": "_approved",
          "type": "bool"
        }
      ],
      "name": "setApprovalForAll",
      "outputs": [],
      "stateMutability": "nonpayable",
      "type": "function"
    },
    {
      "inputs": [
        {
          "internalType": "address",
          "name": "_owner",
          "type": "address"
        },
        {
          "internalType": "address",
          "name": "_operator",
          "type": "address"
        }
      ],
      "name": "isApprovedForAll",
      "outputs": [
        {
          "internalType": "bool",
          "name": "",
          "type": "bool"
        }
      ],
      "stateMutability": "view",
      "type": "function",
      "constant": true
    },
    {
      "inputs": [
        {
          "internalType": "uint256",
          "name": "_tokenId",
          "type": "uint256"
        },
        {
          "internalType": "uint256",
          "name": "_value",
          "type": "uint256"
        }
      ],
      "name": "setShirtCharacteristic",
      "outputs": [],
      "stateMutability": "nonpayable",
      "type": "function"
    },
    {
      "inputs": [
        {
          "internalType": "uint256",
          "name": "_tokenId",
          "type": "uint256"
        }
      ],
      "name": "getShirtCharacteristic",
      "outputs": [
        {
          "internalType": "uint256",
          "name": "",
          "type": "uint256"
        }
      ],
      "stateMutability": "view",
      "type": "function",
      "constant": true
    }
  ],
  "bytecode": "0x608060405234801561001057600080fd5b5061196a806100206000396000f3fe6080604052600436106100c25760003560e01c80636352211e1161007f5780639d30b32b116100595780639d30b32b146104ec578063a22cb4651461053b578063b3e9836314610598578063e985e9c5146105fd576100c2565b80636352211e146103935780636411b1b01461040e57806370a0823114610487576100c2565b8063081812fc146100c7578063095ea7b3146101425780631bfd7ac91461019d578063291f51f11461025857806331919027146102d357806342842e0e14610318575b600080fd5b3480156100d357600080fd5b50610100600480360360208110156100ea57600080fd5b8101908080359060200190929190505050610686565b604051808273ffffffffffffffffffffffffffffffffffffffff1673ffffffffffffffffffffffffffffffffffffffff16815260200191505060405180910390f35b34801561014e57600080fd5b5061019b6004803603604081101561016557600080fd5b81019080803573ffffffffffffffffffffffffffffffffffffffff16906020019092919080359060200190929190505050610798565b005b3480156101a957600080fd5b506101d6600480360360208110156101c057600080fd5b8101908080359060200190929190505050610997565b6040518080602001838152602001828103825284818151815260200191508051906020019080838360005b8381101561021c578082015181840152602081019050610201565b50505050905090810190601f1680156102495780820380516001836020036101000a031916815260200191505b50935050505060405180910390f35b34801561026457600080fd5b506102916004803603602081101561027b57600080fd5b8101908080359060200190929190505050610a60565b604051808273ffffffffffffffffffffffffffffffffffffffff1673ffffffffffffffffffffffffffffffffffffffff16815260200191505060405180910390f35b3480156102df57600080fd5b50610316600480360360408110156102f657600080fd5b810190808035906020019092919080359060200190929190505050610a93565b005b34801561032457600080fd5b506103916004803603606081101561033b57600080fd5b81019080803573ffffffffffffffffffffffffffffffffffffffff169060200190929190803573ffffffffffffffffffffffffffffffffffffffff16906020019092919080359060200190929190505050610aba565b005b34801561039f57600080fd5b506103cc600480360360208110156103b657600080fd5b8101908080359060200190929190505050611023565b604051808273ffffffffffffffffffffffffffffffffffffffff1673ffffffffffffffffffffffffffffffffffffffff16815260200191505060405180910390f35b6104856004803603602081101561042457600080fd5b810190808035906020019064010000000081111561044157600080fd5b82018360208201111561045357600080fd5b8035906020019184600183028401116401000000008311171561047557600080fd5b9091929391929390505050611135565b005b34801561049357600080fd5b506104d6600480360360208110156104aa57600080fd5b81019080803573ffffffffffffffffffffffffffffffffffffffff16906020019092919050505061134d565b6040518082815260200191505060405180910390f35b3480156104f857600080fd5b506105256004803603602081101561050f57600080fd5b8101908080359060200190929190505050611438565b6040518082815260200191505060405180910390f35b34801561054757600080fd5b506105966004803603604081101561055e57600080fd5b81019080803573ffffffffffffffffffffffffffffffffffffffff16906020019092919080351515906020019092919050505061145f565b005b3480156105a457600080fd5b506105e7600480360360208110156105bb57600080fd5b81019080803573ffffffffffffffffffffffffffffffffffffffff1690602001909291905050506115e5565b6040518082815260200191505060405180910390f35b34801561060957600080fd5b5061066c6004803603604081101561062057600080fd5b81019080803573ffffffffffffffffffffffffffffffffffffffff169060200190929190803573ffffffffffffffffffffffffffffffffffffffff1690602001909291905050506115fd565b604051808215151515815260200191505060405180910390f35b60008073ffffffffffffffffffffffffffffffffffffffff166001600084815260200190815260200160002060009054906101000a900473ffffffffffffffffffffffffffffffffffffffff1673ffffffffffffffffffffffffffffffffffffffff16141561075d576040517f08c379a00000000000000000000000000000000000000000000000000000000081526004018080602001828103825260178152602001807f736869727420494420646f6573206e6f7420657869737400000000000000000081525060200191505060405180910390fd5b6003600083815260200190815260200160002060009054906101000a900473ffffffffffffffffffffffffffffffffffffffff169050919050565b600073ffffffffffffffffffffffffffffffffffffffff168273ffffffffffffffffffffffffffffffffffffffff16141561083b576040517f08c379a00000000000000000000000000000000000000000000000000000000081526004018080602001828103825260138152602001807f41646472657373205f746f206973206e756c6c0000000000000000000000000081525060200191505060405180910390fd5b600073ffffffffffffffffffffffffffffffffffffffff1661085c82611023565b73ffffffffffffffffffffffffffffffffffffffff1614156108e6576040517f08c379a00000000000000000000000000000000000000000000000000000000081526004018080602001828103825260178152602001807f736869727420494420646f6573206e6f7420657869737400000000000000000081525060200191505060405180910390fd5b816003600083815260200190815260200160002060006101000a81548173ffffffffffffffffffffffffffffffffffffffff021916908373ffffffffffffffffffffffffffffffffffffffff160217905550808273ffffffffffffffffffffffffffffffffffffffff163373ffffffffffffffffffffffffffffffffffffffff167f8c5be1e5ebec7d5bd14f71427d1e84f3dd0314c0f7b2291e5b200ac8c7c3b92560405160405180910390a45050565b600081815481106109a457fe5b9060005260206000209060020201600091509050806000018054600181600116156101000203166002900480601f016020809104026020016040519081016040528092919081815260200182805460018160011615610100020316600290048015610a505780601f10610a2557610100808354040283529160200191610a50565b820191906000526020600020905b815481529060010190602001808311610a3357829003601f168201915b5050505050908060010154905082565b60016020528060005260406000206000915054906101000a900473ffffffffffffffffffffffffffffffffffffffff1681565b8060008381548110610aa157fe5b9060005260206000209060020201600101819055505050565b600073ffffffffffffffffffffffffffffffffffffffff168373ffffffffffffffffffffffffffffffffffffffff161415610b5d576040517f08c379a00000000000000000000000000000000000000000000000000000000081526004018080602001828103825260148152602001807f416464726573732066726f6d206973206e756c6c00000000000000000000000081525060200191505060405180910390fd5b600073ffffffffffffffffffffffffffffffffffffffff168273ffffffffffffffffffffffffffffffffffffffff161415610c00576040517f08c379a00000000000000000000000000000000000000000000000000000000081526004018080602001828103825260128152602001807f4164647265737320746f206973206e756c6c000000000000000000000000000081525060200191505060405180910390fd5b600073ffffffffffffffffffffffffffffffffffffffff16610c2182611023565b73ffffffffffffffffffffffffffffffffffffffff161415610cab576040517f08c379a00000000000000000000000000000000000000000000000000000000081526004018080602001828103825260178152602001807f736869727420494420646f6573206e6f7420657869737400000000000000000081525060200191505060405180910390fd5b8273ffffffffffffffffffffffffffffffffffffffff16610ccb82611023565b73ffffffffffffffffffffffffffffffffffffffff1614610d37576040517f08c379a00000000000000000000000000000000000000000000000000000000081526004018080602001828103825260268152602001806118ed6026913960400191505060405180910390fd5b8273ffffffffffffffffffffffffffffffffffffffff163373ffffffffffffffffffffffffffffffffffffffff161480610df75750600460008473ffffffffffffffffffffffffffffffffffffffff1673ffffffffffffffffffffffffffffffffffffffff16815260200190815260200160002060003373ffffffffffffffffffffffffffffffffffffffff1673ffffffffffffffffffffffffffffffffffffffff16815260200190815260200160002060009054906101000a900460ff165b80610e6057503373ffffffffffffffffffffffffffffffffffffffff166003600083815260200190815260200160002060009054906101000a900473ffffffffffffffffffffffffffffffffffffffff1673ffffffffffffffffffffffffffffffffffffffff16145b610ed2576040517f08c379a00000000000000000000000000000000000000000000000000000000081526004018080602001828103825260158152602001807f7472616e73666572206e6f7420617070726f766564000000000000000000000081525060200191505060405180910390fd5b600260008473ffffffffffffffffffffffffffffffffffffffff1673ffffffffffffffffffffffffffffffffffffffff1681526020019081526020016000206000815480929190600190039190505550600260008373ffffffffffffffffffffffffffffffffffffffff1673ffffffffffffffffffffffffffffffffffffffff16815260200190815260200160002060008154809291906001019190505550816001600083815260200190815260200160002060006101000a81548173ffffffffffffffffffffffffffffffffffffffff021916908373ffffffffffffffffffffffffffffffffffffffff160217905550808273ffffffffffffffffffffffffffffffffffffffff168473ffffffffffffffffffffffffffffffffffffffff167fddf252ad1be2c89b69c2b068fc378daa952ba7f163c4a11628f55a4df523b3ef60405160405180910390a4505050565b60008073ffffffffffffffffffffffffffffffffffffffff166001600084815260200190815260200160002060009054906101000a900473ffffffffffffffffffffffffffffffffffffffff1673ffffffffffffffffffffffffffffffffffffffff1614156110fa576040517f08c379a00000000000000000000000000000000000000000000000000000000081526004018080602001828103825260178152602001807f536869727420494420646f6573206e6f7420657869737400000000000000000081525060200191505060405180910390fd5b6001600083815260200190815260200160002060009054906101000a900473ffffffffffffffffffffffffffffffffffffffff169050919050565b66470de4df820000341015611195576040517f08c379a00000000000000000000000000000000000000000000000000000000081526004018080602001828103825260248152602001806118c96024913960400191505060405180910390fd5b6000604051806040016040528084848080601f016020809104026020016040519081016040528093929190818152602001838380828437600081840152601f19601f820116905080830192505050505050508152602001600081525090806001815401808255809150506001900390600052602060002090600202016000909190919091506000820151816000019080519060200190611236929190611823565b50602082015181600101555050600061125e600160008054905061169190919063ffffffff16565b9050336001600083815260200190815260200160002060006101000a81548173ffffffffffffffffffffffffffffffffffffffff021916908373ffffffffffffffffffffffffffffffffffffffff1602179055506113056001600260003373ffffffffffffffffffffffffffffffffffffffff1673ffffffffffffffffffffffffffffffffffffffff168152602001908152602001600020546116db90919063ffffffff16565b600260003373ffffffffffffffffffffffffffffffffffffffff1673ffffffffffffffffffffffffffffffffffffffff16815260200190815260200160002081905550505050565b60008073ffffffffffffffffffffffffffffffffffffffff168273ffffffffffffffffffffffffffffffffffffffff1614156113f1576040517f08c379a000000000000000000000000000000000000000000000000000000000815260040180806020018281038252600f8152602001807f61646472657373206973205a65726f000000000000000000000000000000000081525060200191505060405180910390fd5b600260008373ffffffffffffffffffffffffffffffffffffffff1673ffffffffffffffffffffffffffffffffffffffff168152602001908152602001600020549050919050565b600080828154811061144657fe5b9060005260206000209060020201600101549050919050565b3373ffffffffffffffffffffffffffffffffffffffff168273ffffffffffffffffffffffffffffffffffffffff1614156114e4576040517f08c379a00000000000000000000000000000000000000000000000000000000081526004018080602001828103825260228152602001806119136022913960400191505060405180910390fd5b80600460003373ffffffffffffffffffffffffffffffffffffffff1673ffffffffffffffffffffffffffffffffffffffff16815260200190815260200160002060008473ffffffffffffffffffffffffffffffffffffffff1673ffffffffffffffffffffffffffffffffffffffff16815260200190815260200160002060006101000a81548160ff0219169083151502179055508173ffffffffffffffffffffffffffffffffffffffff163373ffffffffffffffffffffffffffffffffffffffff167f17307eab39ab6107e8899845ad3d59bd9653f200f220920489ca2b5937696c3183604051808215151515815260200191505060405180910390a35050565b60026020528060005260406000206000915090505481565b6000600460008473ffffffffffffffffffffffffffffffffffffffff1673ffffffffffffffffffffffffffffffffffffffff16815260200190815260200160002060008373ffffffffffffffffffffffffffffffffffffffff1673ffffffffffffffffffffffffffffffffffffffff16815260200190815260200160002060009054906101000a900460ff16905092915050565b60006116d383836040518060400160405280601e81526020017f536166654d6174683a207375627472616374696f6e206f766572666c6f770000815250611763565b905092915050565b600080828401905083811015611759576040517f08c379a000000000000000000000000000000000000000000000000000000000815260040180806020018281038252601b8152602001807f536166654d6174683a206164646974696f6e206f766572666c6f77000000000081525060200191505060405180910390fd5b8091505092915050565b6000838311158290611810576040517f08c379a00000000000000000000000000000000000000000000000000000000081526004018080602001828103825283818151815260200191508051906020019080838360005b838110156117d55780820151818401526020810190506117ba565b50505050905090810190601f1680156118025780820380516001836020036101000a031916815260200191505b509250505060405180910390fd5b5060008385039050809150509392505050565b828054600181600116156101000203166002900490600052602060002090601f016020900481019282601f1061186457805160ff1916838001178555611892565b82800160010185558215611892579182015b82811115611891578251825591602001919060010190611876565b5b50905061189f91906118a3565b5090565b6118c591905b808211156118c15760008160009055506001016118a9565b5090565b9056fe6e6565642032302066696e6e657920666f722061206e65772063727970746f736869727446726f6d2061646472657373206973206e6f74206f776e6572206f6620746865207368697274596f752061726520746865206164647265737320746520626520617070726f766564a264697066735822122053bd7ddff1c2e617ca571e7cb7ba10afb47fdd42bff5fcd129fd757c2a5dea7164736f6c63430006010033",
  "source": "pragma solidity 0.6.1;\r\n\r\nimport \"./SafeMath.sol\";\r\n\r\n/// @title CryptoShirt is an ERC721 token\r\n/// @author Ines Khoufi\r\n/// @notice This contract is a game where players can create their own cryptshirt\r\n/// The cryptoShirt is an ERC721 Token and it has a name and value initialised at 0 when it is created\r\n/// The value of the cryptoshirt increases when his owner change.\r\ncontract CryptoShirt  {\r\n    using SafeMath for uint;\r\n    struct ShirtCharacteristics {\r\n        string shirtName;\r\n        uint value;\r\n    }\r\n    ShirtCharacteristics[] public shirts;\r\n\r\n    mapping (uint => address) public shirtToOwner;\r\n    mapping (address => uint) public ownerToShirtCount;\r\n    // Mapping from token ID to approved address\r\n    mapping (uint256 => address) internal tokenApproval;\r\n    // Mapping from owner to operator approvals\r\n    mapping (address => mapping (address => bool)) internal operatorApprovals;\r\n    event Transfer(address indexed from, address indexed to, uint256 indexed tokenId);\r\n    event Approval(address indexed owner, address indexed approved, uint256 indexed tokenId);\r\n    event ApprovalForAll(address indexed owner, address indexed operator, bool approved);\r\n\r\n    /// @notice Function to create new crypto shirt\r\n    /// @dev need to pay 20 finney to get new shirt but exchanging shirt is free\r\n    /// @param _shirtName cryptoshirt name\r\n    function createNewShirt (string calldata _shirtName) external payable {\r\n        require(msg.value >= 20 finney, \"need 20 finney for a new cryptoshirt\");\r\n        shirts.push(ShirtCharacteristics(_shirtName,0));\r\n        uint id = shirts.length.sub(1);\r\n        shirtToOwner[id] = msg.sender;\r\n        ownerToShirtCount[msg.sender] = ownerToShirtCount[msg.sender].add(1);\r\n    }\r\n\r\n    /// @dev Gets the balance of the specified address\r\n    /// @param _owner address to query the balance of\r\n    /// @return uint256 representing the number of shirts owned by the passed address\r\n\r\n    function balanceOf(address _owner) public view returns (uint256) {\r\n        require(_owner != address(0), \"address is Zero\");\r\n        return ownerToShirtCount[_owner];\r\n     }\r\n\r\n   /// @dev Gets the owner of the specified token ID\r\n   /// @param _tokenId uint256 ID of the token to query the owner of\r\n   /// @return owner address currently marked as the owner of the given token ID\r\n    function ownerOf(uint256 _tokenId) public view returns (address) {\r\n        require(shirtToOwner[_tokenId] != address(0), \"Shirt ID does not exist\");\r\n        return shirtToOwner[_tokenId];\r\n    }\r\n\r\n    /// @notice transfer the shirt ownership\r\n    /// @param _from owner address, _to destination address, _tokenId shirt ID\r\n    function safeTransferFrom(address _from, address _to, uint256 _tokenId) external {\r\n        require(_from != address(0), 'Address from is null');\r\n        require(_to != address(0), 'Address to is null');\r\n        require(ownerOf(_tokenId) != address(0), 'shirt ID does not exist');\r\n        require(ownerOf(_tokenId) == _from, 'From address is not owner of the shirt');\r\n        require(msg.sender == _from || operatorApprovals[_from][msg.sender] || tokenApproval[_tokenId] == msg.sender, 'transfer not approved');\r\n        ownerToShirtCount[_from]--;\r\n        ownerToShirtCount[_to]++;\r\n        shirtToOwner[_tokenId] = _to;\r\n        emit Transfer(_from, _to, _tokenId);\r\n    }\r\n\r\n    /// @notice Approves another address to transfer the given token ID\r\n    /// @param _to address to be approved for the given token ID\r\n    /// @param _tokenId uint256 ID of the token to be approved\r\n    function approve(address _to, uint256 _tokenId) external {\r\n        require(_to != address(0), 'Address _to is null');\r\n        require(ownerOf(_tokenId) != address(0), 'shirt ID does not exist');\r\n        //require(ownerOf(_tokenId) == msg.sender, 'You are not the shirt owner');\r\n        tokenApproval[_tokenId] = _to;\r\n        emit Approval(msg.sender, _to, _tokenId);\r\n    }\r\n    /// @notice get the approved address to transfer a given token id\r\n    /// @param _tokenId cryptoshirt ID\r\n    /// @return address approved\r\n    function getApproved(uint256 _tokenId) external view returns(address) {\r\n        require(shirtToOwner[_tokenId] != address(0), 'shirt ID does not exist');\r\n        return tokenApproval[_tokenId];\r\n    }\r\n\r\n   /// @dev Sets or unsets the approval of a given operator\r\n   /// An operator is allowed to transfer all tokens of the sender on their behalf\r\n   /// @param _to operator address to set the approval\r\n   /// @param _approved representing the status of the approval to be set\r\n   function setApprovalForAll(address _to, bool _approved) public {\r\n        require(_to != msg.sender, \"You are the address te be approved\");\r\n        operatorApprovals[msg.sender][_to] = _approved;\r\n        emit ApprovalForAll(msg.sender, _to, _approved);\r\n  }\r\n   /// @dev Tells whether an operator is approved by a given owner\r\n   /// @param _owner owner address which you want to query the approval of\r\n   /// @param _operator operator address which you want to query the approval of\r\n   /// @return bool whether the given operator is approved by the given owner\r\n   function isApprovedForAll(address _owner, address _operator) public view returns (bool) {\r\n        return operatorApprovals[_owner][_operator];\r\n    }\r\n    /// @notice setter to set the value of the crypto shirt\r\n    /// @param _tokenId that represents the cryptoshirt\r\n    /// @param _value the value de be changed\r\n    function setShirtCharacteristic(uint _tokenId, uint _value) external {\r\n        shirts[_tokenId].value = _value;\r\n    }\r\n\r\n    /// @notice getter : to get the value of the cryptoshirt\r\n    /// @param _tokenId of the the cryptoshirt\r\n    function getShirtCharacteristic(uint _tokenId) external view returns (uint){\r\n        return shirts[_tokenId].value;\r\n    }\r\n}\r\n",
  "sourcePath": "C:\\Users\\inesk\\Documents\\Work\\Alyra\\Git\\CryptoShirt\\contracts\\cryptoShirt.sol",
  "compiler": {
    "name": "solc",
    "version": "0.6.1+commit.e6f7d5a4.Emscripten.clang"
  },
  "schemaVersion": "3.0.23",
  "updatedAt": "2020-03-21T09:51:47.349Z",
  "networkType": "ethereum",
  "devdoc": {
    "author": "Ines Khoufi",
    "methods": {
      "approve(address,uint256)": {
        "params": {
          "_to": "address to be approved for the given token ID",
          "_tokenId": "uint256 ID of the token to be approved"
        }
      },
      "balanceOf(address)": {
        "details": "Gets the balance of the specified address",
        "params": {
          "_owner": "address to query the balance of"
        },
        "returns": {
          "_0": "uint256 representing the number of shirts owned by the passed address"
        }
      },
      "createNewShirt(string)": {
        "details": "need to pay 20 finney to get new shirt but exchanging shirt is free",
        "params": {
          "_shirtName": "cryptoshirt name"
        }
      },
      "getApproved(uint256)": {
        "params": {
          "_tokenId": "cryptoshirt ID"
        },
        "returns": {
          "_0": "address approved"
        }
      },
      "getShirtCharacteristic(uint256)": {
        "params": {
          "_tokenId": "of the the cryptoshirt"
        }
      },
      "isApprovedForAll(address,address)": {
        "details": "Tells whether an operator is approved by a given owner",
        "params": {
          "_operator": "operator address which you want to query the approval of",
          "_owner": "owner address which you want to query the approval of"
        },
        "returns": {
          "_0": "bool whether the given operator is approved by the given owner"
        }
      },
      "ownerOf(uint256)": {
        "details": "Gets the owner of the specified token ID",
        "params": {
          "_tokenId": "uint256 ID of the token to query the owner of"
        },
        "returns": {
          "_0": "owner address currently marked as the owner of the given token ID"
        }
      },
      "safeTransferFrom(address,address,uint256)": {
        "params": {
          "_from": "owner address, _to destination address, _tokenId shirt ID"
        }
      },
      "setApprovalForAll(address,bool)": {
        "details": "Sets or unsets the approval of a given operator An operator is allowed to transfer all tokens of the sender on their behalf",
        "params": {
          "_approved": "representing the status of the approval to be set",
          "_to": "operator address to set the approval"
        }
      },
      "setShirtCharacteristic(uint256,uint256)": {
        "params": {
          "_tokenId": "that represents the cryptoshirt",
          "_value": "the value de be changed"
        }
      }
    },
    "title": "CryptoShirt is an ERC721 token"
  },
  "userdoc": {
    "methods": {
      "approve(address,uint256)": {
        "notice": "Approves another address to transfer the given token ID"
      },
      "createNewShirt(string)": {
        "notice": "Function to create new crypto shirt"
      },
      "getApproved(uint256)": {
        "notice": "get the approved address to transfer a given token id"
      },
      "getShirtCharacteristic(uint256)": {
        "notice": "getter : to get the value of the cryptoshirt"
      },
      "safeTransferFrom(address,address,uint256)": {
        "notice": "transfer the shirt ownership"
      },
      "setShirtCharacteristic(uint256,uint256)": {
        "notice": "setter to set the value of the crypto shirt"
      }
    },
    "notice": "This contract is a game where players can create their own cryptshirt The cryptoShirt is an ERC721 Token and it has a name and value initialised at 0 when it is created The value of the cryptoshirt increases when his owner change."
  }
}